{
  "contractName": "ThemisPolicyContract256",
  "abi": [
    {
      "inputs": [],
      "payable": false,
      "stateMutability": "nonpayable",
      "type": "constructor"
    },
    {
      "anonymous": false,
      "inputs": [
        {
          "indexed": false,
          "internalType": "uint256[4]",
          "name": "aggr",
          "type": "uint256[4]"
        }
      ],
      "name": "Aggregate",
      "type": "event"
    },
    {
      "anonymous": false,
      "inputs": [],
      "name": "DoneProof",
      "type": "event"
    },
    {
      "anonymous": false,
      "inputs": [
        {
          "indexed": false,
          "internalType": "bytes32",
          "name": "hashed",
          "type": "bytes32"
        }
      ],
      "name": "Hash",
      "type": "event"
    },
    {
      "anonymous": false,
      "inputs": [
        {
          "indexed": false,
          "internalType": "uint256[4]",
          "name": "input",
          "type": "uint256[4]"
        }
      ],
      "name": "Input",
      "type": "event"
    },
    {
      "anonymous": false,
      "inputs": [
        {
          "indexed": false,
          "internalType": "uint256",
          "name": "int_hashed",
          "type": "uint256"
        }
      ],
      "name": "IntegerHash",
      "type": "event"
    },
    {
      "anonymous": false,
      "inputs": [],
      "name": "StartSignal",
      "type": "event"
    },
    {
      "constant": false,
      "inputs": [
        {
          "internalType": "uint256[2][3]",
          "name": "input",
          "type": "uint256[2][3]"
        }
      ],
      "name": "add_points_and_check",
      "outputs": [
        {
          "internalType": "uint256[2]",
          "name": "",
          "type": "uint256[2]"
        }
      ],
      "payable": true,
      "stateMutability": "payable",
      "type": "function"
    },
    {
      "constant": false,
      "inputs": [
        {
          "internalType": "uint256[7]",
          "name": "input",
          "type": "uint256[7]"
        },
        {
          "internalType": "bytes32",
          "name": "client_id",
          "type": "bytes32"
        }
      ],
      "name": "submit_proof_decryption",
      "outputs": [
        {
          "internalType": "bool",
          "name": "",
          "type": "bool"
        }
      ],
      "payable": true,
      "stateMutability": "payable",
      "type": "function"
    },
    {
      "constant": false,
      "inputs": [
        {
          "internalType": "uint256[4]",
          "name": "ciphertext",
          "type": "uint256[4]"
        },
        {
          "internalType": "uint256[2]",
          "name": "plaintext",
          "type": "uint256[2]"
        },
        {
          "internalType": "uint256[2]",
          "name": "public_key",
          "type": "uint256[2]"
        },
        {
          "internalType": "uint256[2]",
          "name": "announcement_g",
          "type": "uint256[2]"
        },
        {
          "internalType": "uint256[2]",
          "name": "announcement_ctx",
          "type": "uint256[2]"
        },
        {
          "internalType": "uint256",
          "name": "response",
          "type": "uint256"
        }
      ],
      "name": "check_proof",
      "outputs": [
        {
          "internalType": "bool",
          "name": "",
          "type": "bool"
        }
      ],
      "payable": true,
      "stateMutability": "payable",
      "type": "function"
    },
    {
      "constant": false,
      "inputs": [
        {
          "internalType": "uint256[4][256]",
          "name": "input",
          "type": "uint256[4][256]"
        },
        {
          "internalType": "uint256[2]",
          "name": "public_key",
          "type": "uint256[2]"
        },
        {
          "internalType": "bytes32",
          "name": "client_id",
          "type": "bytes32"
        }
      ],
      "name": "calculate_aggregate",
      "outputs": [
        {
          "internalType": "bool",
          "name": "",
          "type": "bool"
        }
      ],
      "payable": true,
      "stateMutability": "payable",
      "type": "function"
    },
    {
      "constant": true,
      "inputs": [
        {
          "internalType": "bytes32",
          "name": "client_id",
          "type": "bytes32"
        }
      ],
      "name": "fetch_encrypted_aggregate_array",
      "outputs": [
        {
          "internalType": "uint256[4]",
          "name": "",
          "type": "uint256[4]"
        }
      ],
      "payable": false,
      "stateMutability": "view",
      "type": "function"
    },
    {
      "constant": true,
      "inputs": [
        {
          "internalType": "bytes32",
          "name": "client_id",
          "type": "bytes32"
        }
      ],
      "name": "fetch_encrypted_aggregate",
      "outputs": [
        {
          "internalType": "uint256",
          "name": "",
          "type": "uint256"
        },
        {
          "internalType": "uint256",
          "name": "",
          "type": "uint256"
        },
        {
          "internalType": "uint256",
          "name": "",
          "type": "uint256"
        },
        {
          "internalType": "uint256",
          "name": "",
          "type": "uint256"
        }
      ],
      "payable": false,
      "stateMutability": "view",
      "type": "function"
    },
    {
      "constant": true,
      "inputs": [
        {
          "internalType": "bytes32",
          "name": "client_id",
          "type": "bytes32"
        }
      ],
      "name": "fetch_public_key",
      "outputs": [
        {
          "internalType": "uint256[2]",
          "name": "",
          "type": "uint256[2]"
        }
      ],
      "payable": false,
      "stateMutability": "view",
      "type": "function"
    },
    {
      "constant": true,
      "inputs": [
        {
          "internalType": "bytes32",
          "name": "client_id",
          "type": "bytes32"
        }
      ],
      "name": "fetch_proof_verification",
      "outputs": [
        {
          "internalType": "bool",
          "name": "",
          "type": "bool"
        }
      ],
      "payable": false,
      "stateMutability": "view",
      "type": "function"
    },
    {
      "constant": false,
      "inputs": [
        {
          "internalType": "uint256[4]",
          "name": "encrypted_aggregate",
          "type": "uint256[4]"
        },
        {
          "internalType": "uint256[2]",
          "name": "decrypted_aggregate",
          "type": "uint256[2]"
        },
        {
          "internalType": "uint256[2]",
          "name": "proof_correct_decryption",
          "type": "uint256[2]"
        },
        {
          "internalType": "bytes32",
          "name": "client_id",
          "type": "bytes32"
        }
      ],
      "name": "request_payment",
      "outputs": [
        {
          "internalType": "bool",
          "name": "valid",
          "type": "bool"
        }
      ],
      "payable": true,
      "stateMutability": "payable",
      "type": "function"
    }
  ],
  "bytecode": "0x608060405260405180611900016040528060018152602001600181526020016001815260200160018152602001600181526020016001815260200160018152602001600181526020016001815260200160018152602001600281526020016002815260200160028152602001600281526020016002815260200160028152602001600281526020016002815260200160028152602001600281526020016001815260200160018152602001600181526020016001815260200160018152602001600181526020016001815260200160018152602001600181526020016001815260200160028152602001600281526020016002815260200160028152602001600281526020016002815260200160028152602001600281526020016002815260200160028152602001600081526020016000815260200160008152602001600081526020016000815260200160008152602001600081526020016000815260200160008152602001600081526020016000815260200160008152602001600081526020016000815260200160008152602001600081526020016000815260200160008152602001600081526020016000815260200160008152602001600081526020016000815260200160008152602001600081526020016000815260200160008152602001600081526020016000815260200160008152602001600081526020016000815260200160008152602001600081526020016000815260200160008152602001600081526020016000815260200160008152602001600081526020016000815260200160008152602001600081526020016000815260200160008152602001600081526020016000815260200160008152602001600081526020016000815260200160008152602001600081526020016000815260200160008152602001600081526020016000815260200160008152602001600081526020016000815260200160008152602001600181526020016001815260200160018152602001600181526020016001815260200160018152602001600181526020016001815260200160018152602001600181526020016002815260200160028152602001600281526020016002815260200160028152602001600281526020016002815260200160028152602001600281526020016002815260200160018152602001600181526020016001815260200160018152602001600181526020016001815260200160018152602001600181526020016001815260200160018152602001600281526020016002815260200160028152602001600281526020016002815260200160028152602001600281526020016002815260200160028152602001600281526020016000815260200160008152602001600081526020016000815260200160008152602001600081526020016000815260200160008152602001600081526020016000815260200160008152602001600081526020016000815260200160008152602001600081526020016000815260200160008152602001600081526020016000815260200160008152602001600081526020016000815260200160008152602001600081526020016000815260200160008152602001600081526020016000815260200160008152602001600081526020016000815260200160008152602001600081526020016000815260200160008152602001600081526020016000815260200160008152602001600081526020016000815260200160008152602001600081526020016000815260200160008152602001600081526020016000815260200160008152602001600081526020016000815260200160008152602001600081526020016000815260200160008152602001600081526020016000815260200160008152602001600081526020016000815260200160008152602001600081525060009060c862000598929190620005ad565b50348015620005a657600080fd5b506200061b565b826101008101928215620005e0579160200282015b82811115620005df578251825591602001919060010190620005c2565b5b509050620005ef9190620005f3565b5090565b6200061891905b8082111562000614576000816000905550600101620005fa565b5090565b90565b611bdf806200062b6000396000f3fe6080604052600436106100865760003560e01c8063952270e411610059578063952270e4146104fd5780639bea124b14610585578063a5f1c2bd146105fc578063aba9974414610660578063f35973c6146106b357610086565b80630b71d25a1461008b578063448e538f146101645780636ceac608146102f05780638441a87f146103fa575b600080fd5b610126600480360360c08110156100a157600080fd5b810190808060c00190600380602002604051908101604052809291906000905b82821015610115578382604002016002806020026040519081016040528092919082600260200280828437600081840152601f19601f820116905080830192505050505050815260200190600101906100c1565b50505050919291929050505061072a565b6040518082600260200280838360005b83811015610151578082015181840152602081019050610136565b5050505090500191505060405180910390f35b6102d660048036036101a081101561017b57600080fd5b8101908080608001906004806020026040519081016040528092919082600460200280828437600081840152601f19601f820116905080830192505050505050919291929080604001906002806020026040519081016040528092919082600260200280828437600081840152601f19601f820116905080830192505050505050919291929080604001906002806020026040519081016040528092919082600260200280828437600081840152601f19601f820116905080830192505050505050919291929080604001906002806020026040519081016040528092919082600260200280828437600081840152601f19601f820116905080830192505050505050919291929080604001906002806020026040519081016040528092919082600260200280828437600081840152601f19601f820116905080830192505050505050919291929080359060200190929190505050610934565b604051808215151515815260200191505060405180910390f35b6103e0600480360361012081101561030757600080fd5b8101908080608001906004806020026040519081016040528092919082600460200280828437600081840152601f19601f820116905080830192505050505050919291929080604001906002806020026040519081016040528092919082600260200280828437600081840152601f19601f820116905080830192505050505050919291929080604001906002806020026040519081016040528092919082600260200280828437600081840152601f19601f820116905080830192505050505050919291929080359060200190929190505050610ad1565b604051808215151515815260200191505060405180910390f35b6104e3600480360361806081101561041157600080fd5b8101908080618000019061010080602002604051908101604052809291906000905b82821015610487578382608002016004806020026040519081016040528092919082600460200280828437600081840152601f19601f82011690508083019250505050505081526020019060010190610433565b50505050919291929080604001906002806020026040519081016040528092919082600260200280828437600081840152601f19601f820116905080830192505050505050919291929080359060200190929190505050610bbd565b604051808215151515815260200191505060405180910390f35b61056b600480360361010081101561051457600080fd5b810190808060e001906007806020026040519081016040528092919082600760200280828437600081840152601f19601f820116905080830192505050505050919291929080359060200190929190505050610dce565b604051808215151515815260200191505060405180910390f35b34801561059157600080fd5b506105be600480360360208110156105a857600080fd5b8101908080359060200190929190505050610f1e565b6040518082600460200280838360005b838110156105e95780820151818401526020810190506105ce565b5050505090500191505060405180910390f35b34801561060857600080fd5b506106356004803603602081101561061f57600080fd5b8101908080359060200190929190505050610faa565b6040518085815260200184815260200183815260200182815260200194505050505060405180910390f35b34801561066c57600080fd5b506106996004803603602081101561068357600080fd5b810190808035906020019092919050505061101f565b604051808215151515815260200191505060405180910390f35b3480156106bf57600080fd5b506106ec600480360360208110156106d657600080fd5b810190808035906020019092919050505061104a565b6040518082600260200280838360005b838110156107175780820151818401526020810190506106fc565b5050505090500191505060405180910390f35b61073261198e565b61073a61198e565b6107eb60405180608001604052808560006003811061075557fe5b602002015160006002811061076657fe5b602002015181526020018560006003811061077d57fe5b602002015160016002811061078e57fe5b60200201518152602001856001600381106107a557fe5b60200201516000600281106107b657fe5b60200201518152602001856001600381106107cd57fe5b60200201516001600281106107de57fe5b60200201518152506110ac565b9050826002600381106107fa57fe5b602002015160006002811061080b57fe5b60200201518160006002811061081d57fe5b602002015114801561086157508260026003811061083757fe5b602002015160016002811061084857fe5b60200201518160016002811061085a57fe5b6020020151145b6108d3576040517f08c379a000000000000000000000000000000000000000000000000000000000815260040180806020018281038252600f8152602001807f657175616c697479206661696c6564000000000000000000000000000000000081525060200191505060405180910390fd5b6040518060400160405280846000600381106108eb57fe5b60200201516000600281106108fc57fe5b602002015181526020018460006003811061091357fe5b602002015160016002811061092457fe5b6020020151815250915050919050565b6000808688868660405180604001604052806001815260200160028152508a6040516020018087600260200280838360005b83811015610981578082015181840152602081019050610966565b5050505090500186600460200280838360005b838110156109af578082015181840152602081019050610994565b5050505090500185600260200280838360005b838110156109dd5780820151818401526020810190506109c2565b5050505090500184600260200280838360005b83811015610a0b5780820151818401526020810190506109f0565b5050505090500183600260200280838360005b83811015610a39578082015181840152602081019050610a1e565b5050505090500182600260200280838360005b83811015610a67578082015181840152602081019050610a4c565b50505050905001965050505050505060405160208183030381529060405280519060200120905060008160001c90506000610aa48888848861113f565b90506000610ab58b8b89868a6112eb565b9050818015610ac15750805b9450505050509695505050505050565b60008060019050610ae06119b0565b6040518060800160405280888152602001878152602001868152602001831515815250905061010060008581526020019081526020016000208190806001815401808255809150509060018203906000526020600020906009020160009091929091909150600082015181600001906004610b5c9291906119ec565b50602082015181600401906002610b74929190611a2c565b50604082015181600601906002610b8c929190611a2c565b5060608201518160080160006101000a81548160ff0219169083151502179055505050508192505050949350505050565b60007fb8aeb9134ec47f3964c01c8a2ad29f486edb1d88d5a9f4324d0c560c749d04248460006101008110610bee57fe5b60200201516040518082600460200280838360005b83811015610c1e578082015181840152602081019050610c03565b5050505090500191505060405180910390a17fb8aeb9134ec47f3964c01c8a2ad29f486edb1d88d5a9f4324d0c560c749d04248460016101008110610c5f57fe5b60200201516040518082600460200280838360005b83811015610c8f578082015181840152602081019050610c74565b5050505090500191505060405180910390a1610ca9611a6c565b610cf28560006101008060200260405190810160405280929190826101008015610ce8576020028201915b815481526020019060010190808311610cd4575b50505050506115c0565b9050610cfc611a8e565b6040518060a0016040528083600060048110610d1457fe5b6020020151815260200183600160048110610d2b57fe5b6020020151815260200183600260048110610d4257fe5b6020020151815260200183600360048110610d5957fe5b6020020151815260200186815250905080610101600086815260200190815260200160002060008201518160000155602082015181600101556040820151816002015560608201518160030155608082015181600401906002610dbd929190611a2c565b509050506001925050509392505050565b6000610dd8611a6c565b610de183610f1e565b9050610deb61198e565b610df48461104a565b9050610dfe61198e565b604051806040016040528087600060078110610e1657fe5b6020020151815260200187600160078110610e2d57fe5b60200201518152509050610e3f61198e565b604051806040016040528088600260078110610e5757fe5b6020020151815260200188600360078110610e6e57fe5b60200201518152509050610e8061198e565b604051806040016040528089600460078110610e9857fe5b6020020151815260200189600560078110610eaf57fe5b60200201518152509050600088600660078110610ec857fe5b602002015190506000610edf878688878787610934565b90508061010260008b815260200190815260200160002060006101000a81548160ff021916908315150217905550600197505050505050505092915050565b610f26611a6c565b60405180608001604052806101016000858152602001908152602001600020600001548152602001610101600085815260200190815260200160002060010154815260200161010160008581526020019081526020016000206002015481526020016101016000858152602001908152602001600020600301548152509050919050565b60008060008061010160008681526020019081526020016000206000015461010160008781526020019081526020016000206001015461010160008881526020019081526020016000206002015461010160008981526020019081526020016000206003015493509350935093509193509193565b6000610102600083815260200190815260200160002060009054906101000a900460ff169050919050565b61105261198e565b61010160008381526020019081526020016000206004016002806020026040519081016040528092919082600280156110a0576020028201915b81548152602001906001019080831161108c575b50505050509050919050565b6110b461198e565b600060408260808560006006600019f1905080611139576040517f08c379a000000000000000000000000000000000000000000000000000000000815260040180806020018281038252601e8152602001807f656c6c6970746963206375727665206164646974696f6e206661696c6564000081525060200191505060405180910390fd5b50919050565b6000611149611ac3565b60405180604001604052808760006002811061116157fe5b602002015181526020018760016002811061117857fe5b6020020151815250905061118a611ac3565b604051806040016040528060018152602001600281525090506111ab61198e565b6111d66040518060600160405280846000015181526020018460200151815260200187815250611918565b90506111e061198e565b61120b6040518060600160405280866000015181526020018660200151815260200189815250611918565b905061121561198e565b61128260405180608001604052808b60006002811061123057fe5b602002015181526020018b60016002811061124757fe5b602002015181526020018460006002811061125e57fe5b602002015181526020018460016002811061127557fe5b60200201518152506110ac565b905060008160006002811061129357fe5b6020020151846000600281106112a557fe5b60200201511480156112d85750816001600281106112bf57fe5b6020020151846001600281106112d157fe5b6020020151145b9050809650505050505050949350505050565b60006112f5611add565b604051806040016040528060405180604001604052808a60006004811061131857fe5b602002015181526020018a60016004811061132f57fe5b6020020151815250815260200160405180604001604052808a60026004811061135457fe5b602002015181526020018a60036004811061136b57fe5b60200201518152508152509050611380611ac3565b60405180604001604052808860006002811061139857fe5b60200201518152602001886001600281106113af57fe5b602002015181525090506113c161198e565b6113f460405180606001604052808560000151600001518152602001856000015160200151815260200187815250611918565b90506113fe61198e565b6114296040518060600160405280856000015181526020018560200151815260200189815250611918565b905061143361198e565b6114a060405180608001604052808560006002811061144e57fe5b602002015181526020018560016002811061146557fe5b602002015181526020018460006002811061147c57fe5b602002015181526020018460016002811061149357fe5b60200201518152506110ac565b90506114aa61198e565b6114dd6040518060600160405280886020015160000151815260200188602001516020015181526020018b815250611918565b90506114e761198e565b61155460405180608001604052808d60006002811061150257fe5b602002015181526020018d60016002811061151957fe5b602002015181526020018460006002811061153057fe5b602002015181526020018460016002811061154757fe5b60200201518152506110ac565b905060008160006002811061156557fe5b60200201518460006002811061157757fe5b60200201511480156115aa57508160016002811061159157fe5b6020020151846001600281106115a357fe5b6020020151145b9050809850505050505050505095945050505050565b6115c8611a6c565b6115d061198e565b604051806040016040528060008152602001600081525090506115f161198e565b6040518060400160405280600081526020016000815250905061161261198e565b6040518060400160405280600181526020016001815250905061163361198e565b6040518060400160405280600181526020016001815250905060008090505b61010081101561183b576116d460405180606001604052808a84610100811061167757fe5b602002015160006004811061168857fe5b602002015181526020018a84610100811061169f57fe5b60200201516001600481106116b057fe5b60200201518152602001898461010081106116c757fe5b6020020151815250611918565b925061174e60405180606001604052808a8461010081106116f157fe5b602002015160026004811061170257fe5b602002015181526020018a84610100811061171957fe5b602002015160036004811061172a57fe5b602002015181526020018984610100811061174157fe5b6020020151815250611918565b91506117bd60405180608001604052808560006002811061176b57fe5b602002015181526020018560016002811061178257fe5b602002015181526020018760006002811061179957fe5b60200201518152602001876001600281106117b057fe5b60200201518152506110ac565b945061182c6040518060800160405280846000600281106117da57fe5b60200201518152602001846001600281106117f157fe5b602002015181526020018660006002811061180857fe5b602002015181526020018660016002811061181f57fe5b60200201518152506110ac565b93508080600101915050611652565b50611844611a6c565b60405180608001604052808660006002811061185c57fe5b602002015181526020018660016002811061187357fe5b602002015181526020018560006002811061188a57fe5b60200201518152602001856001600281106118a157fe5b602002015181525090507f2214d5f796a5030b1f93bdad19cf57561590f164f5e74396c5981f6e99b4d601816040518082600460200280838360005b838110156118f85780820151818401526020810190506118dd565b5050505090500191505060405180910390a1809550505050505092915050565b61192061198e565b600060408260608560006007600019f1905080611988576040517f08c379a0000000000000000000000000000000000000000000000000000000008152600401808060200182810382526024815260200180611b876024913960400191505060405180910390fd5b50919050565b6040518060400160405280600290602082028038833980820191505090505090565b60405180608001604052806119c3611b03565b81526020016119d0611b25565b81526020016119dd611b25565b81526020016000151581525090565b8260048101928215611a1b579160200282015b82811115611a1a5782518255916020019190600101906119ff565b5b509050611a289190611b47565b5090565b8260028101928215611a5b579160200282015b82811115611a5a578251825591602001919060010190611a3f565b5b509050611a689190611b47565b5090565b6040518060800160405280600490602082028038833980820191505090505090565b6040518060a0016040528060008152602001600081526020016000815260200160008152602001611abd611b25565b81525090565b604051806040016040528060008152602001600081525090565b6040518060400160405280611af0611b6c565b8152602001611afd611b6c565b81525090565b6040518060800160405280600490602082028038833980820191505090505090565b6040518060400160405280600290602082028038833980820191505090505090565b611b6991905b80821115611b65576000816000905550600101611b4d565b5090565b90565b60405180604001604052806000815260200160008152509056fe656c6c6970746963206375727665206d756c7469706c69636174696f6e206661696c6564a265627a7a723158203b8e860874c6b2c3a2ff4d25de85d1d6fc8da06d1c3cc6c83567757b064ec42364736f6c63430005100032",
  "source": "//pragma solidity >=0.4.22 <0.6.0;\npragma solidity >=0.4.22 <0.7.0;\n\ncontract ThemisPolicyContract256 {\n\n  uint constant length_policies = 256;\n  uint256[length_policies] policies = [\n    uint256(1),\n    uint256(1),\n    uint256(1),\n    uint256(1),\n    uint256(1),\n    uint256(1),\n    uint256(1),\n    uint256(1),\n    uint256(1),\n    uint256(1), //10\n\n    uint256(2),\n    uint256(2),\n    uint256(2),\n    uint256(2),\n    uint256(2),\n    uint256(2),\n    uint256(2),\n    uint256(2),\n    uint256(2),\n    uint256(2), // 2 * 10\n\n    uint256(1),\n    uint256(1),\n    uint256(1),\n    uint256(1),\n    uint256(1),\n    uint256(1),\n    uint256(1),\n    uint256(1),\n    uint256(1),\n    uint256(1), //10\n\n    uint256(2),\n    uint256(2),\n    uint256(2),\n    uint256(2),\n    uint256(2),\n    uint256(2),\n    uint256(2),\n    uint256(2),\n    uint256(2),\n    uint256(2), // 2 * 10\n\n    uint256(0),\n    uint256(0),\n    uint256(0),\n    uint256(0),\n    uint256(0),\n    uint256(0),\n    uint256(0),\n    uint256(0),\n    uint256(0),\n    uint256(0),\n\n    uint256(0),\n    uint256(0),\n    uint256(0),\n    uint256(0),\n    uint256(0),\n    uint256(0),\n    uint256(0),\n    uint256(0),\n    uint256(0),\n    uint256(0),\n\n    uint256(0),\n    uint256(0),\n    uint256(0),\n    uint256(0),\n    uint256(0),\n    uint256(0),\n    uint256(0),\n    uint256(0),\n    uint256(0),\n    uint256(0),\n\n    uint256(0),\n    uint256(0),\n    uint256(0),\n    uint256(0),\n    uint256(0),\n    uint256(0),\n    uint256(0),\n    uint256(0),\n    uint256(0),\n    uint256(0),\n\n    uint256(0),\n    uint256(0),\n    uint256(0),\n    uint256(0),\n    uint256(0),\n    uint256(0),\n    uint256(0),\n    uint256(0),\n    uint256(0),\n    uint256(0),\n\n    uint256(0),\n    uint256(0),\n    uint256(0),\n    uint256(0),\n    uint256(0),\n    uint256(0),\n    uint256(0),\n    uint256(0),\n    uint256(0),\n    uint256(0),\n\n    uint256(1),\n    uint256(1),\n    uint256(1),\n    uint256(1),\n    uint256(1),\n    uint256(1),\n    uint256(1),\n    uint256(1),\n    uint256(1),\n    uint256(1), //10\n\n    uint256(2),\n    uint256(2),\n    uint256(2),\n    uint256(2),\n    uint256(2),\n    uint256(2),\n    uint256(2),\n    uint256(2),\n    uint256(2),\n    uint256(2), // 2 * 10\n\n    uint256(1),\n    uint256(1),\n    uint256(1),\n    uint256(1),\n    uint256(1),\n    uint256(1),\n    uint256(1),\n    uint256(1),\n    uint256(1),\n    uint256(1), //10\n\n    uint256(2),\n    uint256(2),\n    uint256(2),\n    uint256(2),\n    uint256(2),\n    uint256(2),\n    uint256(2),\n    uint256(2),\n    uint256(2),\n    uint256(2), // 2 * 10\n\n    uint256(0),\n    uint256(0),\n    uint256(0),\n    uint256(0),\n    uint256(0),\n    uint256(0),\n    uint256(0),\n    uint256(0),\n    uint256(0),\n    uint256(0),\n\n    uint256(0),\n    uint256(0),\n    uint256(0),\n    uint256(0),\n    uint256(0),\n    uint256(0),\n    uint256(0),\n    uint256(0),\n    uint256(0),\n    uint256(0),\n\n    uint256(0),\n    uint256(0),\n    uint256(0),\n    uint256(0),\n    uint256(0),\n    uint256(0),\n    uint256(0),\n    uint256(0),\n    uint256(0),\n    uint256(0),\n\n    uint256(0),\n    uint256(0),\n    uint256(0),\n    uint256(0),\n    uint256(0),\n    uint256(0),\n    uint256(0),\n    uint256(0),\n    uint256(0),\n    uint256(0),\n\n    uint256(0),\n    uint256(0),\n    uint256(0),\n    uint256(0),\n    uint256(0),\n    uint256(0),\n    uint256(0),\n    uint256(0),\n    uint256(0),\n    uint256(0),\n\n    uint256(0),\n    uint256(0),\n    uint256(0),\n    uint256(0),\n    uint256(0),\n    uint256(0),\n    uint256(0),\n    uint256(0),\n    uint256(0),\n    uint256(0)\n  ];\n\n  struct EncryptedAggregate {\n    uint256 x0;\n    uint256 x1;\n    uint256 y0;\n    uint256 y1;\n    uint256[2] public_key;\n  }\n\n  struct PaymentRequests {\n    uint256[4] encrypted_aggregate;\n    uint256[2] decrypted_aggregate;\n    uint256[2] proof_correct_decryption;\n    bool valid;\n  }\n    \n    struct EcPoint{\n        uint256 x_coord; \n        uint256 y_coord;\n    }\n    \n    struct Ciphertext{\n        EcPoint point1; \n        EcPoint point2;\n    }\n\n  // public storage\n  mapping (bytes32 => PaymentRequests[]) payment_requests;\n  mapping (bytes32 => EncryptedAggregate) aggregate_storage;\n  mapping (bytes32 => bool) proof_verification_storage;\n\n  event Hash(bytes32 hashed);\n  event IntegerHash(uint256 int_hashed);\n  event Input(uint256[4] input);\n  event Aggregate(uint256[4] aggr);\n  event StartSignal();\n  event DoneProof();\n\n  // TODO: define constructor\n  constructor() public {}\n\n  // TODO: only for checking\n  function add_points_and_check(\n    uint256[2][3] memory input\n  ) payable public returns (uint256[2] memory) {\n    uint256[2] memory addition = _bn128_add([input[0][0], input[0][1], input[1][0], input[1][1]]);\n\n    require(addition[0] == input[2][0] && addition[1] == input[2][1], \"equality failed\");\n    \n    return [input[0][0], input[0][1]];\n\n  }\n\n  // public\n  function submit_proof_decryption(\n    uint256[7] memory input, \n    bytes32 client_id\n  ) payable public returns (bool) {\n    // begins fetching the client's aggregate\n    uint256[4] memory client_aggregate = fetch_encrypted_aggregate_array(client_id);\n    uint256[2] memory client_pk = fetch_public_key(client_id);\n    uint256[2] memory plaintext = [input[0], input[1]];\n    uint256[2] memory announcement_g = [input[2], input[3]];\n    uint256[2] memory announcement_ctx = [input[4], input[5]];\n    uint256 response = input[6];\n\n    bool proof_verification = check_proof(\n      client_aggregate, \n      plaintext, \n      client_pk, \n      announcement_g, \n      announcement_ctx,\n      response\n    );\n\n    proof_verification_storage[client_id] = proof_verification;\n\n    return true;\n  }\n\n  function check_proof(\n        uint256[4] memory ciphertext,\n        uint256[2] memory plaintext, \n        uint256[2] memory public_key,\n        uint256[2] memory announcement_g,\n        uint256[2] memory announcement_ctx,\n        uint256 response\n    ) payable public returns (bool) {\n    \n        bytes32 hashed_keccak256 = keccak256(abi.encode(\n            plaintext,\n            ciphertext,\n            announcement_g, \n            announcement_ctx, \n            [uint256(1), uint256(2)],\n            public_key\n            ));\n            \n\n        uint256 challenge = uint256(hashed_keccak256);\n        \n        bool check_1 = _proof_check_1(public_key, announcement_g, challenge, response);\n        bool check_2 = _proof_check_2(ciphertext, plaintext, announcement_ctx, challenge, response);\n        return check_1 && check_2;\n  }\n  \n  function _proof_check_2(\n            uint256[4] memory ciphertext, \n            uint256[2] memory plaintext, \n            uint256[2] memory announcement_ctx,\n            uint256 challenge,\n            uint256 response\n      ) private returns (bool) {\n        Ciphertext memory ctxt = Ciphertext(\n                EcPoint(ciphertext[0], ciphertext[1]), EcPoint(ciphertext[2], ciphertext[3])\n            );\n        EcPoint memory ptxt = EcPoint(plaintext[0], plaintext[1]);\n          \n        uint256[2] memory lhs_mult_1_check_2 = _bn128_multiply([ctxt.point1.x_coord, ctxt.point1.y_coord, response]);\n        // The following, in the original check is computed in the rhs. We do it in the lsh for simplicity\n        uint256[2] memory lhs_mult_2_check_2 = _bn128_multiply([ptxt.x_coord, ptxt.y_coord, challenge]);\n        uint256[2] memory lhs_check_2 = _bn128_add([lhs_mult_1_check_2[0], lhs_mult_1_check_2[1], lhs_mult_2_check_2[0], lhs_mult_2_check_2[1]]);\n        \n        uint256[2] memory rhs_mult_check_2 = _bn128_multiply([ctxt.point2.x_coord, ctxt.point2.y_coord, challenge]);\n        uint256[2] memory rhs_check_2 = _bn128_add([announcement_ctx[0], announcement_ctx[1], rhs_mult_check_2[0], rhs_mult_check_2[1]]);\n        \n        bool check_2 = lhs_check_2[0] == rhs_check_2[0] && lhs_check_2[1] == rhs_check_2[1];\n        return check_2;\n      }\n  \n  function _proof_check_1(\n        uint256[2] memory public_key,\n        uint256[2] memory announcement_g,\n        uint256 challenge,\n        uint256 response\n      ) private returns (bool) {\n        EcPoint memory pk = EcPoint(public_key[0], public_key[1]);\n        EcPoint memory generator = EcPoint(uint256(1), uint256(2));\n        \n        uint256[2] memory lhs_check_1 = _bn128_multiply([generator.x_coord, generator.y_coord, response]);\n    \n        uint256[2] memory pk_times_challenge = _bn128_multiply([pk.x_coord, pk.y_coord, challenge]);\n        uint256[2] memory rhs_check_1 = _bn128_add([announcement_g[0], announcement_g[1], pk_times_challenge[0], pk_times_challenge[1]]);    \n  \n        bool check_1 = lhs_check_1[0] == rhs_check_1[0] && lhs_check_1[1] == rhs_check_1[1];\n        return check_1;\n  }\n\n  function calculate_aggregate(\n    uint256[4][length_policies] memory input, \n    uint256[2] memory public_key,\n    bytes32 client_id\n  //) payable public returns (uint256[4] memory) {\n    ) payable public returns (bool) {    \n    emit Input(input[0]);\n    emit Input(input[1]);\n    \n    // calculates aggregate\n    uint256[4] memory aggregate = _inner_product(\n      input,\n      policies\n    );\n\n    // stores aggregate in array keyed by client_id && return aggregate to caller\n    EncryptedAggregate memory enc_aggr = EncryptedAggregate({ \n      x0: aggregate[0], \n      x1: aggregate[1], \n      y0: aggregate[2], \n      y1: aggregate[3], \n      public_key: public_key\n    });\n\n    aggregate_storage[client_id] = enc_aggr;\n\n    return true;\n  }\n\n  // supposed to replace `fetch_encrypted_aggregate` at some point. I like more uint256[4] than (.,.,.,.)\n  function fetch_encrypted_aggregate_array(bytes32 client_id) public view returns (uint256[4] memory) {\n    return [aggregate_storage[client_id].x0, aggregate_storage[client_id].x1, aggregate_storage[client_id].y0, aggregate_storage[client_id].y1];\n  }\n  function fetch_encrypted_aggregate(bytes32 client_id) public view returns (uint256, uint256, uint256, uint256) {\n      return  (aggregate_storage[client_id].x0, aggregate_storage[client_id].x1, aggregate_storage[client_id].y0, aggregate_storage[client_id].y1);\n  }\n\n  function fetch_public_key(bytes32 client_id) public view returns (uint256[2] memory ) {\n    return aggregate_storage[client_id].public_key;\n  }\n\n  function fetch_proof_verification(bytes32 client_id) public view returns (bool) {\n    return proof_verification_storage[client_id];\n  }\n\n  function request_payment(\n    uint256[4] memory encrypted_aggregate,\n    uint256[2] memory decrypted_aggregate,\n    uint256[2] memory proof_correct_decryption,\n    bytes32 client_id\n  ) payable public returns (bool valid) {\n    // TODO: implement proof verification\n\n    bool proof_is_valid = true;\n\n    PaymentRequests memory payment_request = PaymentRequests(\n      encrypted_aggregate,\n      decrypted_aggregate,\n      proof_correct_decryption,\n      proof_is_valid);    \n\n    payment_requests[client_id].push(payment_request);\n\n    return proof_is_valid;\n  }\n\n  // private\n  function _inner_product(\n    uint256[4][length_policies] memory ciphertext_vector, \n    uint256[length_policies] memory scalar_vector\n  ) private returns (uint256[4] memory) {\n\n      uint256[2] memory aggregate_1 = [uint256(0), uint256(0)];\n      uint256[2] memory aggregate_2 = [uint256(0), uint256(0)];\n      uint256[2] memory resultMult_1 = [uint256(1), uint256(1)];\n      uint256[2] memory resultMult_2 =  [uint256(1), uint256(1)];\n\n      for (uint i = 0; i < length_policies; i++) {\n        resultMult_1 = _bn128_multiply([\n          ciphertext_vector[i][0],\n          ciphertext_vector[i][1], \n          scalar_vector[i]\n        ]);  \n\n        resultMult_2 = _bn128_multiply([\n          ciphertext_vector[i][2], \n          ciphertext_vector[i][3],\n          scalar_vector[i]\n        ]);\n\n        aggregate_1 = _bn128_add([resultMult_1[0], resultMult_1[1], aggregate_1[0], aggregate_1[1]]);\n        \n        aggregate_2 = _bn128_add([resultMult_2[0], resultMult_2[1], aggregate_2[0], aggregate_2[1]]);\n        }\n\n      uint256[4] memory aggregate = [aggregate_1[0], aggregate_1[1], aggregate_2[0], aggregate_2[1]];\n\n\n      emit Aggregate(aggregate);\n      return aggregate;\n    }\n\n    function _bn128_add(uint256[4] memory input) private returns (uint256[2] memory result) {\n        bool success;\n        assembly {\n            success := call(not(0), 0x06, 0, input, 128, result, 64)\n        }\n        require(success, \"elliptic curve addition failed\");\n    }\n  \n    function _bn128_multiply(uint256[3] memory input)\n    private returns (uint256[2] memory result) {\n        bool success;\n        assembly {\n            success := call(not(0), 0x07, 0, input, 96, result, 64)\n        }\n        require(success, \"elliptic curve multiplication failed\");\n    }\n}\n",
  "sourcePath": "/Users/gpestana/brave/decentralized-bat-net-experiments/themis/contracts/Themis_256.sol",
  "compiler": {
    "name": "solc",
    "version": "0.5.16+commit.9c3226ce.Emscripten.clang"
  },
  "schemaVersion": "3.0.23",
  "updatedAt": "2020-07-24T13:17:54.589Z",
  "networkType": "ethereum",
  "devdoc": {
    "methods": {}
  },
  "userdoc": {
    "methods": {}
  }
}