{
  "contractName": "ThemisPolicyContract",
  "abi": [
    {
      "inputs": [],
      "payable": false,
      "stateMutability": "nonpayable",
      "type": "constructor"
    },
    {
      "anonymous": false,
      "inputs": [
        {
          "indexed": false,
          "internalType": "uint256[4]",
          "name": "aggr",
          "type": "uint256[4]"
        }
      ],
      "name": "Aggregate",
      "type": "event"
    },
    {
      "anonymous": false,
      "inputs": [],
      "name": "DoneProof",
      "type": "event"
    },
    {
      "anonymous": false,
      "inputs": [
        {
          "indexed": false,
          "internalType": "bytes32",
          "name": "hashed",
          "type": "bytes32"
        }
      ],
      "name": "Hash",
      "type": "event"
    },
    {
      "anonymous": false,
      "inputs": [
        {
          "indexed": false,
          "internalType": "uint256[4]",
          "name": "input",
          "type": "uint256[4]"
        }
      ],
      "name": "Input",
      "type": "event"
    },
    {
      "anonymous": false,
      "inputs": [
        {
          "indexed": false,
          "internalType": "uint256",
          "name": "int_hashed",
          "type": "uint256"
        }
      ],
      "name": "IntegerHash",
      "type": "event"
    },
    {
      "constant": false,
      "inputs": [
        {
          "internalType": "uint256[2][3]",
          "name": "input",
          "type": "uint256[2][3]"
        }
      ],
      "name": "add_points_and_check",
      "outputs": [
        {
          "internalType": "uint256[2]",
          "name": "",
          "type": "uint256[2]"
        }
      ],
      "payable": true,
      "stateMutability": "payable",
      "type": "function"
    },
    {
      "constant": false,
      "inputs": [
        {
          "internalType": "uint256[4][128]",
          "name": "_input",
          "type": "uint256[4][128]"
        },
        {
          "internalType": "bytes32",
          "name": "_client_id",
          "type": "bytes32"
        }
      ],
      "name": "calculate_aggregate_mock",
      "outputs": [
        {
          "internalType": "bool",
          "name": "",
          "type": "bool"
        }
      ],
      "payable": true,
      "stateMutability": "payable",
      "type": "function"
    },
    {
      "constant": false,
      "inputs": [
        {
          "internalType": "uint256[7]",
          "name": "input",
          "type": "uint256[7]"
        },
        {
          "internalType": "bytes32",
          "name": "client_id",
          "type": "bytes32"
        }
      ],
      "name": "submit_proof_decryption",
      "outputs": [
        {
          "internalType": "bool",
          "name": "",
          "type": "bool"
        }
      ],
      "payable": true,
      "stateMutability": "payable",
      "type": "function"
    },
    {
      "constant": false,
      "inputs": [
        {
          "internalType": "uint256[4]",
          "name": "ciphertext",
          "type": "uint256[4]"
        },
        {
          "internalType": "uint256[2]",
          "name": "plaintext",
          "type": "uint256[2]"
        },
        {
          "internalType": "uint256[2]",
          "name": "public_key",
          "type": "uint256[2]"
        },
        {
          "internalType": "uint256[2]",
          "name": "announcement_g",
          "type": "uint256[2]"
        },
        {
          "internalType": "uint256[2]",
          "name": "announcement_ctx",
          "type": "uint256[2]"
        },
        {
          "internalType": "uint256",
          "name": "response",
          "type": "uint256"
        }
      ],
      "name": "check_proof",
      "outputs": [
        {
          "internalType": "bool",
          "name": "",
          "type": "bool"
        }
      ],
      "payable": true,
      "stateMutability": "payable",
      "type": "function"
    },
    {
      "constant": false,
      "inputs": [
        {
          "internalType": "uint256[4][128]",
          "name": "input",
          "type": "uint256[4][128]"
        },
        {
          "internalType": "uint256[2]",
          "name": "public_key",
          "type": "uint256[2]"
        },
        {
          "internalType": "bytes32",
          "name": "client_id",
          "type": "bytes32"
        }
      ],
      "name": "calculate_aggregate",
      "outputs": [
        {
          "internalType": "bool",
          "name": "",
          "type": "bool"
        }
      ],
      "payable": true,
      "stateMutability": "payable",
      "type": "function"
    },
    {
      "constant": true,
      "inputs": [
        {
          "internalType": "bytes32",
          "name": "client_id",
          "type": "bytes32"
        }
      ],
      "name": "fetch_encrypted_aggregate_array",
      "outputs": [
        {
          "internalType": "uint256[4]",
          "name": "",
          "type": "uint256[4]"
        }
      ],
      "payable": false,
      "stateMutability": "view",
      "type": "function"
    },
    {
      "constant": true,
      "inputs": [
        {
          "internalType": "bytes32",
          "name": "client_id",
          "type": "bytes32"
        }
      ],
      "name": "fetch_encrypted_aggregate",
      "outputs": [
        {
          "internalType": "uint256",
          "name": "",
          "type": "uint256"
        },
        {
          "internalType": "uint256",
          "name": "",
          "type": "uint256"
        },
        {
          "internalType": "uint256",
          "name": "",
          "type": "uint256"
        },
        {
          "internalType": "uint256",
          "name": "",
          "type": "uint256"
        }
      ],
      "payable": false,
      "stateMutability": "view",
      "type": "function"
    },
    {
      "constant": true,
      "inputs": [
        {
          "internalType": "bytes32",
          "name": "client_id",
          "type": "bytes32"
        }
      ],
      "name": "fetch_public_key",
      "outputs": [
        {
          "internalType": "uint256[2]",
          "name": "",
          "type": "uint256[2]"
        }
      ],
      "payable": false,
      "stateMutability": "view",
      "type": "function"
    },
    {
      "constant": true,
      "inputs": [
        {
          "internalType": "bytes32",
          "name": "client_id",
          "type": "bytes32"
        }
      ],
      "name": "fetch_proof_verification",
      "outputs": [
        {
          "internalType": "bool",
          "name": "",
          "type": "bool"
        }
      ],
      "payable": false,
      "stateMutability": "view",
      "type": "function"
    },
    {
      "constant": false,
      "inputs": [
        {
          "internalType": "uint256[4]",
          "name": "encrypted_aggregate",
          "type": "uint256[4]"
        },
        {
          "internalType": "uint256[2]",
          "name": "decrypted_aggregate",
          "type": "uint256[2]"
        },
        {
          "internalType": "uint256[2]",
          "name": "proof_correct_decryption",
          "type": "uint256[2]"
        },
        {
          "internalType": "bytes32",
          "name": "client_id",
          "type": "bytes32"
        }
      ],
      "name": "request_payment",
      "outputs": [
        {
          "internalType": "bool",
          "name": "valid",
          "type": "bool"
        }
      ],
      "payable": true,
      "stateMutability": "payable",
      "type": "function"
    }
  ],
  "bytecode": "0x6080604052604051806040016040528060018152602001600281525060009060026200002d92919062000042565b503480156200003b57600080fd5b50620000af565b826080810192821562000074579160200282015b828111156200007357825182559160200191906001019062000056565b5b50905062000083919062000087565b5090565b620000ac91905b80821115620000a85760008160009055506001016200008e565b5090565b90565b611c9e80620000bf6000396000f3fe6080604052600436106100915760003560e01c8063952270e411610059578063952270e4146105c85780639bea124b14610650578063a5f1c2bd146106c7578063aba997441461072b578063f35973c61461077e57610091565b806309b1b897146100965780630b71d25a14610157578063448e538f146102305780636ceac608146103bc5780636d4c974f146104c6575b600080fd5b61013d60048036036140208110156100ad57600080fd5b81019080806140000190608080602002604051908101604052809291906000905b82821015610122578382608002016004806020026040519081016040528092919082600460200280828437600081840152601f19601f820116905080830192505050505050815260200190600101906100ce565b505050509192919290803590602001909291905050506107f5565b604051808215151515815260200191505060405180910390f35b6101f2600480360360c081101561016d57600080fd5b810190808060c00190600380602002604051908101604052809291906000905b828210156101e1578382604002016002806020026040519081016040528092919082600260200280828437600081840152601f19601f8201169050808301925050505050508152602001906001019061018d565b505050509192919290505050610801565b6040518082600260200280838360005b8381101561021d578082015181840152602081019050610202565b5050505090500191505060405180910390f35b6103a260048036036101a081101561024757600080fd5b8101908080608001906004806020026040519081016040528092919082600460200280828437600081840152601f19601f820116905080830192505050505050919291929080604001906002806020026040519081016040528092919082600260200280828437600081840152601f19601f820116905080830192505050505050919291929080604001906002806020026040519081016040528092919082600260200280828437600081840152601f19601f820116905080830192505050505050919291929080604001906002806020026040519081016040528092919082600260200280828437600081840152601f19601f820116905080830192505050505050919291929080604001906002806020026040519081016040528092919082600260200280828437600081840152601f19601f820116905080830192505050505050919291929080359060200190929190505050610a0b565b604051808215151515815260200191505060405180910390f35b6104ac60048036036101208110156103d357600080fd5b8101908080608001906004806020026040519081016040528092919082600460200280828437600081840152601f19601f820116905080830192505050505050919291929080604001906002806020026040519081016040528092919082600260200280828437600081840152601f19601f820116905080830192505050505050919291929080604001906002806020026040519081016040528092919082600260200280828437600081840152601f19601f820116905080830192505050505050919291929080359060200190929190505050610ba8565b604051808215151515815260200191505060405180910390f35b6105ae60048036036140608110156104dd57600080fd5b81019080806140000190608080602002604051908101604052809291906000905b82821015610552578382608002016004806020026040519081016040528092919082600460200280828437600081840152601f19601f820116905080830192505050505050815260200190600101906104fe565b50505050919291929080604001906002806020026040519081016040528092919082600260200280828437600081840152601f19601f820116905080830192505050505050919291929080359060200190929190505050610c93565b604051808215151515815260200191505060405180910390f35b61063660048036036101008110156105df57600080fd5b810190808060e001906007806020026040519081016040528092919082600760200280828437600081840152601f19601f820116905080830192505050505050919291929080359060200190929190505050610e9f565b604051808215151515815260200191505060405180910390f35b34801561065c57600080fd5b506106896004803603602081101561067357600080fd5b8101908080359060200190929190505050610fee565b6040518082600460200280838360005b838110156106b4578082015181840152602081019050610699565b5050505090500191505060405180910390f35b3480156106d357600080fd5b50610700600480360360208110156106ea57600080fd5b8101908080359060200190929190505050611076565b6040518085815260200184815260200183815260200182815260200194505050505060405180910390f35b34801561073757600080fd5b506107646004803603602081101561074e57600080fd5b81019080803590602001909291905050506110e7565b604051808215151515815260200191505060405180910390f35b34801561078a57600080fd5b506107b7600480360360208110156107a157600080fd5b8101908080359060200190929190505050611111565b6040518082600260200280838360005b838110156107e25780820151818401526020810190506107c7565b5050505090500191505060405180910390f35b60006001905092915050565b610809611a4d565b610811611a4d565b6108c260405180608001604052808560006003811061082c57fe5b602002015160006002811061083d57fe5b602002015181526020018560006003811061085457fe5b602002015160016002811061086557fe5b602002015181526020018560016003811061087c57fe5b602002015160006002811061088d57fe5b60200201518152602001856001600381106108a457fe5b60200201516001600281106108b557fe5b6020020151815250611172565b9050826002600381106108d157fe5b60200201516000600281106108e257fe5b6020020151816000600281106108f457fe5b602002015114801561093857508260026003811061090e57fe5b602002015160016002811061091f57fe5b60200201518160016002811061093157fe5b6020020151145b6109aa576040517f08c379a000000000000000000000000000000000000000000000000000000000815260040180806020018281038252600f8152602001807f657175616c697479206661696c6564000000000000000000000000000000000081525060200191505060405180910390fd5b6040518060400160405280846000600381106109c257fe5b60200201516000600281106109d357fe5b60200201518152602001846000600381106109ea57fe5b60200201516001600281106109fb57fe5b6020020151815250915050919050565b6000808688868660405180604001604052806001815260200160028152508a6040516020018087600260200280838360005b83811015610a58578082015181840152602081019050610a3d565b5050505090500186600460200280838360005b83811015610a86578082015181840152602081019050610a6b565b5050505090500185600260200280838360005b83811015610ab4578082015181840152602081019050610a99565b5050505090500184600260200280838360005b83811015610ae2578082015181840152602081019050610ac7565b5050505090500183600260200280838360005b83811015610b10578082015181840152602081019050610af5565b5050505090500182600260200280838360005b83811015610b3e578082015181840152602081019050610b23565b50505050905001965050505050505060405160208183030381529060405280519060200120905060008160001c90506000610b7b88888488611205565b90506000610b8c8b8b89868a6113b1565b9050818015610b985750805b9450505050509695505050505050565b60008060019050610bb7611a6f565b60405180608001604052808881526020018781526020018681526020018315158152509050608060008581526020019081526020016000208190806001815401808255809150509060018203906000526020600020906009020160009091929091909150600082015181600001906004610c32929190611aab565b50602082015181600401906002610c4a929190611aeb565b50604082015181600601906002610c62929190611aeb565b5060608201518160080160006101000a81548160ff0219169083151502179055505050508192505050949350505050565b60007fb8aeb9134ec47f3964c01c8a2ad29f486edb1d88d5a9f4324d0c560c749d042484600060808110610cc357fe5b60200201516040518082600460200280838360005b83811015610cf3578082015181840152602081019050610cd8565b5050505090500191505060405180910390a17fb8aeb9134ec47f3964c01c8a2ad29f486edb1d88d5a9f4324d0c560c749d042484600160808110610d3357fe5b60200201516040518082600460200280838360005b83811015610d63578082015181840152602081019050610d48565b5050505090500191505060405180910390a1610d7d611b2b565b610dc4856000608080602002604051908101604052809291908260808015610dba576020028201915b815481526020019060010190808311610da6575b5050505050611686565b9050610dce611b4d565b6040518060a0016040528083600060048110610de657fe5b6020020151815260200183600160048110610dfd57fe5b6020020151815260200183600260048110610e1457fe5b6020020151815260200183600360048110610e2b57fe5b60200201518152602001868152509050806081600086815260200190815260200160002060008201518160000155602082015181600101556040820151816002015560608201518160030155608082015181600401906002610e8e929190611aeb565b509050506001925050509392505050565b6000610ea9611b2b565b610eb283610fee565b9050610ebc611a4d565b610ec584611111565b9050610ecf611a4d565b604051806040016040528087600060078110610ee757fe5b6020020151815260200187600160078110610efe57fe5b60200201518152509050610f10611a4d565b604051806040016040528088600260078110610f2857fe5b6020020151815260200188600360078110610f3f57fe5b60200201518152509050610f51611a4d565b604051806040016040528089600460078110610f6957fe5b6020020151815260200189600560078110610f8057fe5b60200201518152509050600088600660078110610f9957fe5b602002015190506000610fb0878688878787610a0b565b905080608260008b815260200190815260200160002060006101000a81548160ff021916908315150217905550600197505050505050505092915050565b610ff6611b2b565b604051806080016040528060816000858152602001908152602001600020600001548152602001608160008581526020019081526020016000206001015481526020016081600085815260200190815260200160002060020154815260200160816000858152602001908152602001600020600301548152509050919050565b600080600080608160008681526020019081526020016000206000015460816000878152602001908152602001600020600101546081600088815260200190815260200160002060020154608160008981526020019081526020016000206003015493509350935093509193509193565b60006082600083815260200190815260200160002060009054906101000a900460ff169050919050565b611119611a4d565b60816000838152602001908152602001600020600401600280602002604051908101604052809291908260028015611166576020028201915b815481526020019060010190808311611152575b50505050509050919050565b61117a611a4d565b600060408260808560006006600019f19050806111ff576040517f08c379a000000000000000000000000000000000000000000000000000000000815260040180806020018281038252601e8152602001807f656c6c6970746963206375727665206164646974696f6e206661696c6564000081525060200191505060405180910390fd5b50919050565b600061120f611b82565b60405180604001604052808760006002811061122757fe5b602002015181526020018760016002811061123e57fe5b60200201518152509050611250611b82565b60405180604001604052806001815260200160028152509050611271611a4d565b61129c60405180606001604052808460000151815260200184602001518152602001878152506119d7565b90506112a6611a4d565b6112d160405180606001604052808660000151815260200186602001518152602001898152506119d7565b90506112db611a4d565b61134860405180608001604052808b6000600281106112f657fe5b602002015181526020018b60016002811061130d57fe5b602002015181526020018460006002811061132457fe5b602002015181526020018460016002811061133b57fe5b6020020151815250611172565b905060008160006002811061135957fe5b60200201518460006002811061136b57fe5b602002015114801561139e57508160016002811061138557fe5b60200201518460016002811061139757fe5b6020020151145b9050809650505050505050949350505050565b60006113bb611b9c565b604051806040016040528060405180604001604052808a6000600481106113de57fe5b602002015181526020018a6001600481106113f557fe5b6020020151815250815260200160405180604001604052808a60026004811061141a57fe5b602002015181526020018a60036004811061143157fe5b60200201518152508152509050611446611b82565b60405180604001604052808860006002811061145e57fe5b602002015181526020018860016002811061147557fe5b60200201518152509050611487611a4d565b6114ba604051806060016040528085600001516000015181526020018560000151602001518152602001878152506119d7565b90506114c4611a4d565b6114ef60405180606001604052808560000151815260200185602001518152602001898152506119d7565b90506114f9611a4d565b61156660405180608001604052808560006002811061151457fe5b602002015181526020018560016002811061152b57fe5b602002015181526020018460006002811061154257fe5b602002015181526020018460016002811061155957fe5b6020020151815250611172565b9050611570611a4d565b6115a36040518060600160405280886020015160000151815260200188602001516020015181526020018b8152506119d7565b90506115ad611a4d565b61161a60405180608001604052808d6000600281106115c857fe5b602002015181526020018d6001600281106115df57fe5b60200201518152602001846000600281106115f657fe5b602002015181526020018460016002811061160d57fe5b6020020151815250611172565b905060008160006002811061162b57fe5b60200201518460006002811061163d57fe5b602002015114801561167057508160016002811061165757fe5b60200201518460016002811061166957fe5b6020020151145b9050809850505050505050505095945050505050565b61168e611b2b565b611696611a4d565b604051806040016040528060008152602001600081525090506116b7611a4d565b604051806040016040528060008152602001600081525090506116d8611a4d565b604051806040016040528060018152602001600181525090506116f9611a4d565b6040518060400160405280600181526020016001815250905060008090505b60808110156118fa5761179660405180606001604052808a846080811061173b57fe5b602002015160006004811061174c57fe5b602002015181526020018a846080811061176257fe5b602002015160016004811061177357fe5b6020020151815260200189846080811061178957fe5b60200201518152506119d7565b925061180d60405180606001604052808a84608081106117b257fe5b60200201516002600481106117c357fe5b602002015181526020018a84608081106117d957fe5b60200201516003600481106117ea57fe5b6020020151815260200189846080811061180057fe5b60200201518152506119d7565b915061187c60405180608001604052808560006002811061182a57fe5b602002015181526020018560016002811061184157fe5b602002015181526020018760006002811061185857fe5b602002015181526020018760016002811061186f57fe5b6020020151815250611172565b94506118eb60405180608001604052808460006002811061189957fe5b60200201518152602001846001600281106118b057fe5b60200201518152602001866000600281106118c757fe5b60200201518152602001866001600281106118de57fe5b6020020151815250611172565b93508080600101915050611718565b50611903611b2b565b60405180608001604052808660006002811061191b57fe5b602002015181526020018660016002811061193257fe5b602002015181526020018560006002811061194957fe5b602002015181526020018560016002811061196057fe5b602002015181525090507f2214d5f796a5030b1f93bdad19cf57561590f164f5e74396c5981f6e99b4d601816040518082600460200280838360005b838110156119b757808201518184015260208101905061199c565b5050505090500191505060405180910390a1809550505050505092915050565b6119df611a4d565b600060408260608560006007600019f1905080611a47576040517f08c379a0000000000000000000000000000000000000000000000000000000008152600401808060200182810382526024815260200180611c466024913960400191505060405180910390fd5b50919050565b6040518060400160405280600290602082028038833980820191505090505090565b6040518060800160405280611a82611bc2565b8152602001611a8f611be4565b8152602001611a9c611be4565b81526020016000151581525090565b8260048101928215611ada579160200282015b82811115611ad9578251825591602001919060010190611abe565b5b509050611ae79190611c06565b5090565b8260028101928215611b1a579160200282015b82811115611b19578251825591602001919060010190611afe565b5b509050611b279190611c06565b5090565b6040518060800160405280600490602082028038833980820191505090505090565b6040518060a0016040528060008152602001600081526020016000815260200160008152602001611b7c611be4565b81525090565b604051806040016040528060008152602001600081525090565b6040518060400160405280611baf611c2b565b8152602001611bbc611c2b565b81525090565b6040518060800160405280600490602082028038833980820191505090505090565b6040518060400160405280600290602082028038833980820191505090505090565b611c2891905b80821115611c24576000816000905550600101611c0c565b5090565b90565b60405180604001604052806000815260200160008152509056fe656c6c6970746963206375727665206d756c7469706c69636174696f6e206661696c6564a265627a7a723158200336628fe65680358c6a820b0527f5901759ee5c28f0583f3435469850baae0364736f6c63430005100032",
  "source": "//pragma solidity >=0.4.22 <0.6.0;\npragma solidity >=0.4.22 <0.7.0;\n\ncontract ThemisPolicyContract {\n\n  uint constant length_policies = 128;\n  uint256[length_policies] policies = [uint256(1), uint256(2)];\n\n  struct EncryptedAggregate {\n    uint256 x0;\n    uint256 x1;\n    uint256 y0;\n    uint256 y1;\n    uint256[2] public_key;\n  }\n\n  struct PaymentRequests {\n    uint256[4] encrypted_aggregate;\n    uint256[2] decrypted_aggregate;\n    uint256[2] proof_correct_decryption;\n    bool valid;\n  }\n    \n    struct EcPoint{\n        uint256 x_coord; \n        uint256 y_coord;\n    }\n    \n    struct Ciphertext{\n        EcPoint point1; \n        EcPoint point2;\n    }\n\n  // public storage\n  mapping (bytes32 => PaymentRequests[]) payment_requests;\n  mapping (bytes32 => EncryptedAggregate) aggregate_storage;\n  mapping (bytes32 => bool) proof_verification_storage;\n\n  event Hash(bytes32 hashed);\n  event IntegerHash(uint256 int_hashed);\n  event Input(uint256[4] input);\n  event Aggregate(uint256[4] aggr);\n  event DoneProof();\n\n  // TODO: define constructor\n  constructor() public {}\n\n  // TODO: only for checking\n  function add_points_and_check(\n    uint256[2][3] memory input\n  ) payable public returns (uint256[2] memory) {\n    uint256[2] memory addition = _bn128_add([input[0][0], input[0][1], input[1][0], input[1][1]]);\n\n    require(addition[0] == input[2][0] && addition[1] == input[2][1], \"equality failed\");\n    \n    return [input[0][0], input[0][1]];\n\n  }\n\n  function calculate_aggregate_mock(\n    uint256[4][length_policies] memory _input, \n    bytes32 _client_id\n  ) payable public returns (bool) {\n  \n    return true;\n  }\n\n  // public\n  function submit_proof_decryption(\n    uint256[7] memory input, \n    bytes32 client_id\n  ) payable public returns (bool) {\n    // begins fetching the client's aggregate\n    uint256[4] memory client_aggregate = fetch_encrypted_aggregate_array(client_id);\n    uint256[2] memory client_pk = fetch_public_key(client_id);\n    uint256[2] memory plaintext = [input[0], input[1]];\n    uint256[2] memory announcement_g = [input[2], input[3]];\n    uint256[2] memory announcement_ctx = [input[4], input[5]];\n    uint256 response = input[6];\n\n    bool proof_verification = check_proof(\n      client_aggregate, \n      plaintext, \n      client_pk, \n      announcement_g, \n      announcement_ctx,\n      response\n    );\n\n    proof_verification_storage[client_id] = proof_verification;\n\n    return true;\n  }\n\n  function check_proof(\n        uint256[4] memory ciphertext,\n        uint256[2] memory plaintext, \n        uint256[2] memory public_key,\n        uint256[2] memory announcement_g,\n        uint256[2] memory announcement_ctx,\n        uint256 response\n    ) payable public returns (bool) {\n    \n        bytes32 hashed_keccak256 = keccak256(abi.encode(\n            plaintext,\n            ciphertext,\n            announcement_g, \n            announcement_ctx, \n            [uint256(1), uint256(2)],\n            public_key\n            ));\n            \n\n        uint256 challenge = uint256(hashed_keccak256);\n        \n        bool check_1 = _proof_check_1(public_key, announcement_g, challenge, response);\n        bool check_2 = _proof_check_2(ciphertext, plaintext, announcement_ctx, challenge, response);\n        return check_1 && check_2;\n  }\n  \n  function _proof_check_2(\n            uint256[4] memory ciphertext, \n            uint256[2] memory plaintext, \n            uint256[2] memory announcement_ctx,\n            uint256 challenge,\n            uint256 response\n      ) private returns (bool) {\n        Ciphertext memory ctxt = Ciphertext(\n                EcPoint(ciphertext[0], ciphertext[1]), EcPoint(ciphertext[2], ciphertext[3])\n            );\n        EcPoint memory ptxt = EcPoint(plaintext[0], plaintext[1]);\n          \n        uint256[2] memory lhs_mult_1_check_2 = _bn128_multiply([ctxt.point1.x_coord, ctxt.point1.y_coord, response]);\n        // The following, in the original check is computed in the rhs. We do it in the lsh for simplicity\n        uint256[2] memory lhs_mult_2_check_2 = _bn128_multiply([ptxt.x_coord, ptxt.y_coord, challenge]);\n        uint256[2] memory lhs_check_2 = _bn128_add([lhs_mult_1_check_2[0], lhs_mult_1_check_2[1], lhs_mult_2_check_2[0], lhs_mult_2_check_2[1]]);\n        \n        uint256[2] memory rhs_mult_check_2 = _bn128_multiply([ctxt.point2.x_coord, ctxt.point2.y_coord, challenge]);\n        uint256[2] memory rhs_check_2 = _bn128_add([announcement_ctx[0], announcement_ctx[1], rhs_mult_check_2[0], rhs_mult_check_2[1]]);\n        \n        bool check_2 = lhs_check_2[0] == rhs_check_2[0] && lhs_check_2[1] == rhs_check_2[1];\n        return check_2;\n      }\n  \n  function _proof_check_1(\n        uint256[2] memory public_key,\n        uint256[2] memory announcement_g,\n        uint256 challenge,\n        uint256 response\n      ) private returns (bool) {\n        EcPoint memory pk = EcPoint(public_key[0], public_key[1]);\n        EcPoint memory generator = EcPoint(uint256(1), uint256(2));\n        \n        uint256[2] memory lhs_check_1 = _bn128_multiply([generator.x_coord, generator.y_coord, response]);\n    \n        uint256[2] memory pk_times_challenge = _bn128_multiply([pk.x_coord, pk.y_coord, challenge]);\n        uint256[2] memory rhs_check_1 = _bn128_add([announcement_g[0], announcement_g[1], pk_times_challenge[0], pk_times_challenge[1]]);    \n  \n        bool check_1 = lhs_check_1[0] == rhs_check_1[0] && lhs_check_1[1] == rhs_check_1[1];\n        return check_1;\n  }\n\n  function calculate_aggregate(\n    uint256[4][length_policies] memory input, \n    uint256[2] memory public_key,\n    bytes32 client_id\n  //) payable public returns (uint256[4] memory) {\n    ) payable public returns (bool) {    \n    emit Input(input[0]);\n    emit Input(input[1]);\n    \n    // calculates aggregate\n    uint256[4] memory aggregate = _inner_product(\n      input,\n      policies\n    );\n\n    // stores aggregate in array keyed by client_id && return aggregate to caller\n    EncryptedAggregate memory enc_aggr = EncryptedAggregate({ \n      x0: aggregate[0], \n      x1: aggregate[1], \n      y0: aggregate[2], \n      y1: aggregate[3], \n      public_key: public_key\n    });\n\n    aggregate_storage[client_id] = enc_aggr;\n\n    return true;\n  }\n\n  // supposed to replace `fetch_encrypted_aggregate` at some point. I like more uint256[4] than (.,.,.,.)\n  function fetch_encrypted_aggregate_array(bytes32 client_id) public view returns (uint256[4] memory) {\n    return [aggregate_storage[client_id].x0, aggregate_storage[client_id].x1, aggregate_storage[client_id].y0, aggregate_storage[client_id].y1];\n  }\n  function fetch_encrypted_aggregate(bytes32 client_id) public view returns (uint256, uint256, uint256, uint256) {\n      return  (aggregate_storage[client_id].x0, aggregate_storage[client_id].x1, aggregate_storage[client_id].y0, aggregate_storage[client_id].y1);\n  }\n\n  function fetch_public_key(bytes32 client_id) public view returns (uint256[2] memory ) {\n    return aggregate_storage[client_id].public_key;\n  }\n\n  function fetch_proof_verification(bytes32 client_id) public view returns (bool) {\n    return proof_verification_storage[client_id];\n  }\n\n  function request_payment(\n    uint256[4] memory encrypted_aggregate,\n    uint256[2] memory decrypted_aggregate,\n    uint256[2] memory proof_correct_decryption,\n    bytes32 client_id\n  ) payable public returns (bool valid) {\n    // TODO: implement proof verification\n\n    bool proof_is_valid = true;\n\n    PaymentRequests memory payment_request = PaymentRequests(\n      encrypted_aggregate,\n      decrypted_aggregate,\n      proof_correct_decryption,\n      proof_is_valid);    \n\n    payment_requests[client_id].push(payment_request);\n\n    return proof_is_valid;\n  }\n\n  // private\n  function _inner_product(\n    uint256[4][length_policies] memory ciphertext_vector, \n    uint256[length_policies] memory scalar_vector\n  ) private returns (uint256[4] memory) {\n\n      uint256[2] memory aggregate_1 = [uint256(0), uint256(0)];\n      uint256[2] memory aggregate_2 = [uint256(0), uint256(0)];\n      uint256[2] memory resultMult_1 = [uint256(1), uint256(1)];\n      uint256[2] memory resultMult_2 =  [uint256(1), uint256(1)];\n\n      for (uint i = 0; i < length_policies; i++) {\n        resultMult_1 = _bn128_multiply([\n          ciphertext_vector[i][0],\n          ciphertext_vector[i][1], \n          scalar_vector[i]\n        ]);  \n\n        resultMult_2 = _bn128_multiply([\n          ciphertext_vector[i][2], \n          ciphertext_vector[i][3],\n          scalar_vector[i]\n        ]);\n\n        aggregate_1 = _bn128_add([resultMult_1[0], resultMult_1[1], aggregate_1[0], aggregate_1[1]]);\n        \n        aggregate_2 = _bn128_add([resultMult_2[0], resultMult_2[1], aggregate_2[0], aggregate_2[1]]);\n        }\n\n      uint256[4] memory aggregate = [aggregate_1[0], aggregate_1[1], aggregate_2[0], aggregate_2[1]];\n\n\n      emit Aggregate(aggregate);\n      return aggregate;\n    }\n\n    function _bn128_add(uint256[4] memory input) private returns (uint256[2] memory result) {\n        bool success;\n        assembly {\n            success := call(not(0), 0x06, 0, input, 128, result, 64)\n        }\n        require(success, \"elliptic curve addition failed\");\n    }\n  \n    function _bn128_multiply(uint256[3] memory input)\n    private returns (uint256[2] memory result) {\n        bool success;\n        assembly {\n            success := call(not(0), 0x07, 0, input, 96, result, 64)\n        }\n        require(success, \"elliptic curve multiplication failed\");\n    }\n}\n",
  "sourcePath": "/Users/gpestana/brave/decentralized-bat-net-experiments/themis/contracts/Themis.sol",
  "compiler": {
    "name": "solc",
    "version": "0.5.16+commit.9c3226ce.Emscripten.clang"
  },
  "schemaVersion": "3.0.23",
  "updatedAt": "2020-06-01T13:50:37.789Z",
  "networkType": "ethereum",
  "devdoc": {
    "methods": {}
  },
  "userdoc": {
    "methods": {}
  }
}