{
  "contractName": "ThemisPolicyContract",
  "abi": [
    {
      "inputs": [],
      "payable": false,
      "stateMutability": "nonpayable",
      "type": "constructor"
    },
    {
      "anonymous": false,
      "inputs": [
        {
          "indexed": false,
          "internalType": "uint256[4]",
          "name": "aggr",
          "type": "uint256[4]"
        }
      ],
      "name": "Aggregate",
      "type": "event"
    },
    {
      "anonymous": false,
      "inputs": [],
      "name": "DoneProof",
      "type": "event"
    },
    {
      "anonymous": false,
      "inputs": [
        {
          "indexed": false,
          "internalType": "uint256[4]",
          "name": "input",
          "type": "uint256[4]"
        }
      ],
      "name": "Input",
      "type": "event"
    },
    {
      "constant": false,
      "inputs": [
        {
          "internalType": "uint256[2][3]",
          "name": "input",
          "type": "uint256[2][3]"
        }
      ],
      "name": "add_points_and_check",
      "outputs": [
        {
          "internalType": "uint256[2]",
          "name": "",
          "type": "uint256[2]"
        }
      ],
      "payable": true,
      "stateMutability": "payable",
      "type": "function"
    },
    {
      "constant": false,
      "inputs": [
        {
          "internalType": "uint256[4][2]",
          "name": "_input",
          "type": "uint256[4][2]"
        },
        {
          "internalType": "bytes32",
          "name": "_client_id",
          "type": "bytes32"
        }
      ],
      "name": "calculate_aggregate_mock",
      "outputs": [
        {
          "internalType": "bool",
          "name": "",
          "type": "bool"
        }
      ],
      "payable": true,
      "stateMutability": "payable",
      "type": "function"
    },
    {
      "constant": false,
      "inputs": [
        {
          "internalType": "uint256[4][2]",
          "name": "input",
          "type": "uint256[4][2]"
        },
        {
          "internalType": "bytes32",
          "name": "client_id",
          "type": "bytes32"
        }
      ],
      "name": "calculate_aggregate",
      "outputs": [
        {
          "internalType": "bool",
          "name": "",
          "type": "bool"
        }
      ],
      "payable": true,
      "stateMutability": "payable",
      "type": "function"
    },
    {
      "constant": true,
      "inputs": [
        {
          "internalType": "bytes32",
          "name": "client_id",
          "type": "bytes32"
        }
      ],
      "name": "fetch_encrypted_aggregate",
      "outputs": [
        {
          "internalType": "uint256",
          "name": "",
          "type": "uint256"
        },
        {
          "internalType": "uint256",
          "name": "",
          "type": "uint256"
        },
        {
          "internalType": "uint256",
          "name": "",
          "type": "uint256"
        },
        {
          "internalType": "uint256",
          "name": "",
          "type": "uint256"
        }
      ],
      "payable": false,
      "stateMutability": "view",
      "type": "function"
    },
    {
      "constant": false,
      "inputs": [
        {
          "internalType": "uint256[4]",
          "name": "encrypted_aggregate",
          "type": "uint256[4]"
        },
        {
          "internalType": "uint256[2]",
          "name": "decrypted_aggregate",
          "type": "uint256[2]"
        },
        {
          "internalType": "uint256[2]",
          "name": "proof_correct_decryption",
          "type": "uint256[2]"
        },
        {
          "internalType": "bytes32",
          "name": "client_id",
          "type": "bytes32"
        }
      ],
      "name": "request_payment",
      "outputs": [
        {
          "internalType": "bool",
          "name": "valid",
          "type": "bool"
        }
      ],
      "payable": true,
      "stateMutability": "payable",
      "type": "function"
    }
  ],
  "bytecode": "0x60806040526040518060400160405280600181526020016002815250600090600261002b92919061003e565b5034801561003857600080fd5b506100a3565b826002810192821561006d579160200282015b8281111561006c578251825591602001919060010190610051565b5b50905061007a919061007e565b5090565b6100a091905b8082111561009c576000816000905550600101610084565b5090565b90565b610fbb806100b26000396000f3fe60806040526004361061004a5760003560e01c8063069be4021461004f5780630b71d25a146101105780635b678f1c146101e95780636ceac608146102aa578063a5f1c2bd146103b4575b600080fd5b6100f6600480360361012081101561006657600080fd5b81019080806101000190600280602002604051908101604052809291906000905b828210156100db578382608002016004806020026040519081016040528092919082600460200280828437600081840152601f19601f82011690508083019250505050505081526020019060010190610087565b50505050919291929080359060200190929190505050610418565b604051808215151515815260200191505060405180910390f35b6101ab600480360360c081101561012657600080fd5b810190808060c00190600380602002604051908101604052809291906000905b8282101561019a578382604002016002806020026040519081016040528092919082600260200280828437600081840152601f19601f82011690508083019250505050505081526020019060010190610146565b505050509192919290505050610605565b6040518082600260200280838360005b838110156101d65780820151818401526020810190506101bb565b5050505090500191505060405180910390f35b610290600480360361012081101561020057600080fd5b81019080806101000190600280602002604051908101604052809291906000905b82821015610275578382608002016004806020026040519081016040528092919082600460200280828437600081840152601f19601f82011690508083019250505050505081526020019060010190610221565b5050505091929192908035906020019092919050505061080f565b604051808215151515815260200191505060405180910390f35b61039a60048036036101208110156102c157600080fd5b8101908080608001906004806020026040519081016040528092919082600460200280828437600081840152601f19601f820116905080830192505050505050919291929080604001906002806020026040519081016040528092919082600260200280828437600081840152601f19601f820116905080830192505050505050919291929080604001906002806020026040519081016040528092919082600260200280828437600081840152601f19601f82011690508083019250505050505091929192908035906020019092919050505061081b565b604051808215151515815260200191505060405180910390f35b3480156103c057600080fd5b506103ed600480360360208110156103d757600080fd5b8101908080359060200190929190505050610906565b6040518085815260200184815260200183815260200182815260200194505050505060405180910390f35b60007fb8aeb9134ec47f3964c01c8a2ad29f486edb1d88d5a9f4324d0c560c749d04248360006002811061044857fe5b60200201516040518082600460200280838360005b8381101561047857808201518184015260208101905061045d565b5050505090500191505060405180910390a17fb8aeb9134ec47f3964c01c8a2ad29f486edb1d88d5a9f4324d0c560c749d0424836001600281106104b857fe5b60200201516040518082600460200280838360005b838110156104e85780820151818401526020810190506104cd565b5050505090500191505060405180910390a1610502610dd1565b61054984600060028060200260405190810160405280929190826002801561053f576020028201915b81548152602001906001019080831161052b575b5050505050610977565b9050610553610df3565b60405180608001604052808360006004811061056b57fe5b602002015181526020018360016004811061058257fe5b602002015181526020018360026004811061059957fe5b60200201518152602001836003600481106105b057fe5b6020020151815250905080600360008681526020019081526020016000206000820151816000015560208201518160010155604082015181600201556060820151816003015590505060019250505092915050565b61060d610e1b565b610615610e1b565b6106c660405180608001604052808560006003811061063057fe5b602002015160006002811061064157fe5b602002015181526020018560006003811061065857fe5b602002015160016002811061066957fe5b602002015181526020018560016003811061068057fe5b602002015160006002811061069157fe5b60200201518152602001856001600381106106a857fe5b60200201516001600281106106b957fe5b6020020151815250610cc8565b9050826002600381106106d557fe5b60200201516000600281106106e657fe5b6020020151816000600281106106f857fe5b602002015114801561073c57508260026003811061071257fe5b602002015160016002811061072357fe5b60200201518160016002811061073557fe5b6020020151145b6107ae576040517f08c379a000000000000000000000000000000000000000000000000000000000815260040180806020018281038252600f8152602001807f657175616c697479206661696c6564000000000000000000000000000000000081525060200191505060405180910390fd5b6040518060400160405280846000600381106107c657fe5b60200201516000600281106107d757fe5b60200201518152602001846000600381106107ee57fe5b60200201516001600281106107ff57fe5b6020020151815250915050919050565b60006001905092915050565b6000806001905061082a610e3d565b604051806080016040528088815260200187815260200186815260200183151581525090506002600085815260200190815260200160002081908060018154018082558091505090600182039060005260206000209060090201600090919290919091506000820151816000019060046108a5929190610e79565b506020820151816004019060026108bd929190610eb9565b506040820151816006019060026108d5929190610eb9565b5060608201518160080160006101000a81548160ff0219169083151502179055505050508192505050949350505050565b600080600080600360008681526020019081526020016000206000015460036000878152602001908152602001600020600101546003600088815260200190815260200160002060020154600360008981526020019081526020016000206003015493509350935093509193509193565b61097f610dd1565b610987610e1b565b604051806040016040528060008152602001600081525090506109a8610e1b565b604051806040016040528060008152602001600081525090506109c9610e1b565b604051806040016040528060018152602001600181525090506109ea610e1b565b6040518060400160405280600181526020016001815250905060008090505b6002811015610beb57610a8760405180606001604052808a8460028110610a2c57fe5b6020020151600060048110610a3d57fe5b602002015181526020018a8460028110610a5357fe5b6020020151600160048110610a6457fe5b60200201518152602001898460028110610a7a57fe5b6020020151815250610d5b565b9250610afe60405180606001604052808a8460028110610aa357fe5b6020020151600260048110610ab457fe5b602002015181526020018a8460028110610aca57fe5b6020020151600360048110610adb57fe5b60200201518152602001898460028110610af157fe5b6020020151815250610d5b565b9150610b6d604051806080016040528085600060028110610b1b57fe5b6020020151815260200185600160028110610b3257fe5b6020020151815260200187600060028110610b4957fe5b6020020151815260200187600160028110610b6057fe5b6020020151815250610cc8565b9450610bdc604051806080016040528084600060028110610b8a57fe5b6020020151815260200184600160028110610ba157fe5b6020020151815260200186600060028110610bb857fe5b6020020151815260200186600160028110610bcf57fe5b6020020151815250610cc8565b93508080600101915050610a09565b50610bf4610dd1565b604051806080016040528086600060028110610c0c57fe5b6020020151815260200186600160028110610c2357fe5b6020020151815260200185600060028110610c3a57fe5b6020020151815260200185600160028110610c5157fe5b602002015181525090507f2214d5f796a5030b1f93bdad19cf57561590f164f5e74396c5981f6e99b4d601816040518082600460200280838360005b83811015610ca8578082015181840152602081019050610c8d565b5050505090500191505060405180910390a1809550505050505092915050565b610cd0610e1b565b600060408260808560006006600019f1905080610d55576040517f08c379a000000000000000000000000000000000000000000000000000000000815260040180806020018281038252601e8152602001807f656c6c6970746963206375727665206164646974696f6e206661696c6564000081525060200191505060405180910390fd5b50919050565b610d63610e1b565b600060408260608560006007600019f1905080610dcb576040517f08c379a0000000000000000000000000000000000000000000000000000000008152600401808060200182810382526024815260200180610f636024913960400191505060405180910390fd5b50919050565b6040518060800160405280600490602082028038833980820191505090505090565b6040518060800160405280600081526020016000815260200160008152602001600081525090565b6040518060400160405280600290602082028038833980820191505090505090565b6040518060800160405280610e50610ef9565b8152602001610e5d610f1b565b8152602001610e6a610f1b565b81526020016000151581525090565b8260048101928215610ea8579160200282015b82811115610ea7578251825591602001919060010190610e8c565b5b509050610eb59190610f3d565b5090565b8260028101928215610ee8579160200282015b82811115610ee7578251825591602001919060010190610ecc565b5b509050610ef59190610f3d565b5090565b6040518060800160405280600490602082028038833980820191505090505090565b6040518060400160405280600290602082028038833980820191505090505090565b610f5f91905b80821115610f5b576000816000905550600101610f43565b5090565b9056fe656c6c6970746963206375727665206d756c7469706c69636174696f6e206661696c6564a265627a7a72315820c414bdfd6505735ae092c90f72f4fe5b042626b03d7227abe591bf0e15b8a2cc64736f6c63430005100032",
  "source": "//pragma solidity >=0.4.22 <0.6.0;\npragma solidity >=0.4.22 <0.7.0;\n\n\ncontract ThemisPolicyContract {\n\n  uint constant length_policies = 2;\n  uint256[length_policies] policies = [uint256(1), uint256(2)];\n\n  struct EncryptedAggregate {\n    uint256 x0;\n    uint256 x1;\n    uint256 y0;\n    uint256 y1;\n  }\n\n  struct PaymentRequests {\n    uint256[4] encrypted_aggregate;\n    uint256[2] decrypted_aggregate;\n    uint256[2] proof_correct_decryption;\n    bool valid;\n  }\n\n  // public storage\n  mapping (bytes32 => PaymentRequests[]) payment_requests;\n  mapping (bytes32 => EncryptedAggregate) aggregate_storage;\n\n  event Input(uint256[4] input);\n  event Aggregate(uint256[4] aggr);\n  event DoneProof();\n\n  // TODO: define constructor\n  constructor() public {}\n\n  // public \n  function add_points_and_check(\n    uint256[2][3] memory input\n  ) payable public returns (uint256[2] memory) {\n    uint256[2] memory addition = _bn128_add([input[0][0], input[0][1], input[1][0], input[1][1]]);\n\n    require(addition[0] == input[2][0] && addition[1] == input[2][1], \"equality failed\");\n    \n    return [input[0][0], input[0][1]];\n\n  }\n  // public\n\n  function calculate_aggregate_mock(\n    uint256[4][length_policies] memory _input, \n    bytes32 _client_id\n  ) payable public returns (bool) {\n  \n    return true;\n  }\n\n  function calculate_aggregate(\n    uint256[4][length_policies] memory input, \n    bytes32 client_id\n  //) payable public returns (uint256[4] memory) {\n    ) payable public returns (bool) {\n\n    emit Input(input[0]);\n    emit Input(input[1]);\n    \n    // calculates aggregate\n    uint256[4] memory aggregate = _inner_product(\n      input,\n      policies\n    );\n\n    // stores aggregate in array keyed by client_id && return aggregate to caller\n    EncryptedAggregate memory enc_aggr = EncryptedAggregate({ \n      x0: aggregate[0], \n      x1: aggregate[1], \n      y0: aggregate[2], \n      y1: aggregate[3]\n    });\n    aggregate_storage[client_id] = enc_aggr;\n\n    return true;\n  }\n\n  function fetch_encrypted_aggregate(bytes32 client_id) public view returns (uint256, uint256, uint256, uint256) {\n      return  (aggregate_storage[client_id].x0, aggregate_storage[client_id].x1, aggregate_storage[client_id].y0, aggregate_storage[client_id].y1);\n  }\n\n  function request_payment(\n    uint256[4] memory encrypted_aggregate,\n    uint256[2] memory decrypted_aggregate,\n    uint256[2] memory proof_correct_decryption,\n    bytes32 client_id\n  ) payable public returns (bool valid) {\n    // TODO: implement proof verification\n\n    bool proof_is_valid = true;\n\n    PaymentRequests memory payment_request = PaymentRequests(\n      encrypted_aggregate,\n      decrypted_aggregate,\n      proof_correct_decryption,\n      proof_is_valid);    \n\n    payment_requests[client_id].push(payment_request);\n\n    return proof_is_valid;\n  }\n\n  // private\n  function _inner_product(\n    uint256[4][length_policies] memory ciphertext_vector, \n    uint256[length_policies] memory scalar_vector\n  ) private returns (uint256[4] memory) {\n\n      uint256[2] memory aggregate_1 = [uint256(0), uint256(0)];\n      uint256[2] memory aggregate_2 = [uint256(0), uint256(0)];\n      uint256[2] memory resultMult_1 = [uint256(1), uint256(1)];\n      uint256[2] memory resultMult_2 =  [uint256(1), uint256(1)];\n\n      for (uint i = 0; i < length_policies; i++) {\n        resultMult_1 = _bn128_multiply([\n          ciphertext_vector[i][0],\n          ciphertext_vector[i][1], \n          scalar_vector[i]\n        ]);  \n\n        resultMult_2 = _bn128_multiply([\n          ciphertext_vector[i][2], \n          ciphertext_vector[i][3],\n          scalar_vector[i]\n        ]);\n\n        aggregate_1 = _bn128_add([resultMult_1[0], resultMult_1[1], aggregate_1[0], aggregate_1[1]]);\n        \n        aggregate_2 = _bn128_add([resultMult_2[0], resultMult_2[1], aggregate_2[0], aggregate_2[1]]);\n        }\n\n      uint256[4] memory aggregate = [aggregate_1[0], aggregate_1[1], aggregate_2[0], aggregate_2[1]];\n\n\n      emit Aggregate(aggregate);\n      return aggregate;\n    }\n\n    function _bn128_add(uint256[4] memory input) private returns (uint256[2] memory result) {\n        bool success;\n        assembly {\n            success := call(not(0), 0x06, 0, input, 128, result, 64)\n        }\n        require(success, \"elliptic curve addition failed\");\n    }\n  \n    function _bn128_multiply(uint256[3] memory input)\n    private returns (uint256[2] memory result) {\n        bool success;\n        assembly {\n            success := call(not(0), 0x07, 0, input, 96, result, 64)\n        }\n        require(success, \"elliptic curve multiplication failed\");\n    }\n}\n",
  "sourcePath": "/Users/gpestana/brave/decentralized-bat-net-experiments/themis/contracts/Themis.sol",
  "compiler": {
    "name": "solc",
    "version": "0.5.16+commit.9c3226ce.Emscripten.clang"
  },
  "schemaVersion": "3.0.23",
  "updatedAt": "2020-04-28T15:21:51.641Z",
  "networkType": "ethereum",
  "devdoc": {
    "methods": {}
  },
  "userdoc": {
    "methods": {}
  }
}