{
  "contractName": "CryptoUtils",
  "abi": [
    {
      "anonymous": false,
      "inputs": [
        {
          "indexed": false,
          "internalType": "uint256[2]",
          "name": "aggr",
          "type": "uint256[2]"
        }
      ],
      "name": "Aggregate",
      "type": "event"
    },
    {
      "anonymous": false,
      "inputs": [],
      "name": "DoneProof",
      "type": "event"
    },
    {
      "constant": false,
      "inputs": [
        {
          "internalType": "uint256[2][4]",
          "name": "ciphertext_vector",
          "type": "uint256[2][4]"
        },
        {
          "internalType": "uint256[4]",
          "name": "scalar_vector",
          "type": "uint256[4]"
        }
      ],
      "name": "inner_product",
      "outputs": [
        {
          "internalType": "uint256[2]",
          "name": "",
          "type": "uint256[2]"
        }
      ],
      "payable": true,
      "stateMutability": "payable",
      "type": "function"
    },
    {
      "constant": false,
      "inputs": [],
      "name": "verify_decryption_proof",
      "outputs": [
        {
          "internalType": "bool",
          "name": "valid",
          "type": "bool"
        }
      ],
      "payable": true,
      "stateMutability": "payable",
      "type": "function"
    }
  ],
  "bytecode": "0x608060405234801561001057600080fd5b5061047e806100206000396000f3fe6080604052600436106100295760003560e01c80639b07aacd1461002e578063b75b319d14610050575b600080fd5b61003661016c565b604051808215151515815260200191505060405180910390f35b61012e600480360361018081101561006757600080fd5b81019080806101000190600480602002604051908101604052809291906000905b828210156100dc578382604002016002806020026040519081016040528092919082600260200280828437600081840152601f19601f82011690508083019250505050505081526020019060010190610088565b50505050919291929080608001906004806020026040519081016040528092919082600460200280828437600081840152601f19601f8201169050808301925050505050509192919290505050610175565b6040518082600260200280838360005b8381101561015957808201518184015260208101905061013e565b5050505090500191505060405180910390f35b60006001905090565b61017d610403565b610185610403565b61018d610403565b60008090505b600481101561028f5761021160405180606001604052808884600481106101b657fe5b60200201516000600281106101c757fe5b602002015181526020018884600481106101dd57fe5b60200201516001600281106101ee57fe5b6020020151815260200187846004811061020457fe5b60200201518152506102fa565b915061028060405180608001604052808460006002811061022e57fe5b602002015181526020018460016002811061024557fe5b602002015181526020018560006002811061025c57fe5b602002015181526020018560016002811061027357fe5b6020020151815250610370565b92508080600101915050610193565b507f798bddc99a3ff2913dc383e7d8f8793396b4c7cd686c09cecb490d2e99ba89b5826040518082600260200280838360005b838110156102dd5780820151818401526020810190506102c2565b5050505090500191505060405180910390a1819250505092915050565b610302610403565b600060408260608560006007600019f190508061036a576040517f08c379a00000000000000000000000000000000000000000000000000000000081526004018080602001828103825260248152602001806104266024913960400191505060405180910390fd5b50919050565b610378610403565b600060408260808560006006600019f19050806103fd576040517f08c379a000000000000000000000000000000000000000000000000000000000815260040180806020018281038252601e8152602001807f656c6c6970746963206375727665206164646974696f6e206661696c6564000081525060200191505060405180910390fd5b50919050565b604051806040016040528060029060208202803883398082019150509050509056fe656c6c6970746963206375727665206d756c7469706c69636174696f6e206661696c6564a265627a7a723158204be00116fc840150b174cb32a58b9230aa8d03bd9e71c30bb69a5641516d9d7f64736f6c63430005100032",
  "source": "pragma solidity >=0.4.22 <0.6.0;\n\ncontract CryptoUtils {\n    uint constant length_policies = 4;\n    \n    event Aggregate(uint256[2] aggr);\n    event DoneProof();\n\n    function inner_product(uint256[2][length_policies] memory ciphertext_vector, uint256[length_policies] memory scalar_vector) payable public returns (uint256[2] memory)\n    {\n\n        uint256[2] memory aggregate;\n        uint256[2] memory resultMult;\n\n        for (uint i = 0; i < length_policies; i++) {\n          resultMult = bn128_multiply([\n            ciphertext_vector[i][0],\n            ciphertext_vector[i][1], \n            scalar_vector[i]\n          ]);  \n\n          aggregate = bn128_add([resultMult[0], resultMult[1], aggregate[0], aggregate[1]]);\n        }\n\n        emit Aggregate(aggregate);\n        return aggregate;\n    }\n\n    function verify_decryption_proof() payable public returns (bool valid) {\n      return true;\n    }\n\n    function bn128_add(uint256[length_policies] memory input) private returns (uint256[2] memory result) {\n        bool success;\n        assembly {\n            success := call(not(0), 0x06, 0, input, 128, result, 64)\n        }\n        require(success, \"elliptic curve addition failed\");\n    }\n  \n    function bn128_multiply(uint256[3] memory input)\n    private returns (uint256[2] memory result) {\n        bool success;\n        assembly {\n            success := call(not(0), 0x07, 0, input, 96, result, 64)\n        }\n        require(success, \"elliptic curve multiplication failed\");\n    }\n}\n",
  "sourcePath": "/Users/gpestana/brave/decentralized-bat-net-experiments/themis/contracts/CryptoUtils.sol",
  "compiler": {
    "name": "solc",
    "version": "0.5.16+commit.9c3226ce.Emscripten.clang"
  },
  "schemaVersion": "3.0.23",
  "updatedAt": "2020-04-01T15:16:53.359Z",
  "devdoc": {
    "methods": {}
  },
  "userdoc": {
    "methods": {}
  }
}