{
  "contractName": "ElGamal",
  "abi": [
    {
      "anonymous": false,
      "inputs": [
        {
          "indexed": false,
          "internalType": "uint256[2]",
          "name": "aggr",
          "type": "uint256[2]"
        }
      ],
      "name": "Aggregate",
      "type": "event"
    },
    {
      "anonymous": false,
      "inputs": [],
      "name": "DoneProof",
      "type": "event"
    },
    {
      "constant": false,
      "inputs": [
        {
          "internalType": "uint256[2][4]",
          "name": "ciphertext_vector",
          "type": "uint256[2][4]"
        },
        {
          "internalType": "uint256[4]",
          "name": "scalar_vector",
          "type": "uint256[4]"
        }
      ],
      "name": "inner_product",
      "outputs": [
        {
          "internalType": "uint256[2]",
          "name": "",
          "type": "uint256[2]"
        }
      ],
      "payable": true,
      "stateMutability": "payable",
      "type": "function"
    },
    {
      "constant": false,
      "inputs": [],
      "name": "decryption_proof",
      "outputs": [],
      "payable": false,
      "stateMutability": "nonpayable",
      "type": "function"
    }
  ],
  "bytecode": "0x608060405234801561001057600080fd5b50610732806100206000396000f3fe6080604052600436106100295760003560e01c80639361d3c21461002e578063b75b319d14610045575b600080fd5b34801561003a57600080fd5b50610043610161565b005b610123600480360361018081101561005c57600080fd5b81019080806101000190600480602002604051908101604052809291906000905b828210156100d1578382604002016002806020026040519081016040528092919082600260200280828437600081840152601f19601f8201169050808301925050505050508152602001906001019061007d565b50505050919291929080608001906004806020026040519081016040528092919082600460200280828437600081840152601f19601f82011690508083019250505050505091929192905050506102f3565b6040518082600260200280838360005b8381101561014e578082015181840152602081019050610133565b5050505090500191505060405180910390f35b610169610581565b610171610581565b610179610581565b610181610581565b610189610581565b6000807f030644e72e131a029b85045b68181585d97816a916871ca8d3c208c16d87cfd3905060007f15ed738c0e0a7c92e7845f96b2ae9c0a68a6a449e3538fc7ff3ebf7a5a18a2c490506000600290506101fd604051806060016040528085815260200184815260200183815250610478565b9850610222604051806060016040528085815260200184815260200183815250610478565b9750610247604051806060016040528085815260200184815260200183815250610478565b96506102726040518060800160405280858152602001848152602001858152602001848152506104ee565b955061029d6040518060800160405280858152602001848152602001858152602001848152506104ee565b945060405180806105c86101369139610136019050604051809103902093507ffd88615721088dc1f5b54d8f22a12769ff690898e6013ce37f75fe3e9c6db54160405160405180910390a1505050505050505050565b6102fb610581565b610303610581565b61030b610581565b60008090505b600481101561040d5761038f604051806060016040528088846004811061033457fe5b602002015160006002811061034557fe5b6020020151815260200188846004811061035b57fe5b602002015160016002811061036c57fe5b6020020151815260200187846004811061038257fe5b6020020151815250610478565b91506103fe6040518060800160405280846000600281106103ac57fe5b60200201518152602001846001600281106103c357fe5b60200201518152602001856000600281106103da57fe5b60200201518152602001856001600281106103f157fe5b60200201518152506104ee565b92508080600101915050610311565b507f798bddc99a3ff2913dc383e7d8f8793396b4c7cd686c09cecb490d2e99ba89b5826040518082600260200280838360005b8381101561045b578082015181840152602081019050610440565b5050505090500191505060405180910390a1819250505092915050565b610480610581565b600060408260608560006007600019f19050806104e8576040517f08c379a00000000000000000000000000000000000000000000000000000000081526004018080602001828103825260248152602001806105a46024913960400191505060405180910390fd5b50919050565b6104f6610581565b600060408260808560006006600019f190508061057b576040517f08c379a000000000000000000000000000000000000000000000000000000000815260040180806020018281038252601e8152602001807f656c6c6970746963206375727665206164646974696f6e206661696c6564000081525060200191505060405180910390fd5b50919050565b604051806040016040528060029060208202803883398082019150509050509056fe656c6c6970746963206375727665206d756c7469706c69636174696f6e206661696c6564393931383131303035313330323137313538353038303430323630333331393730323737343536353531353939333135303537363334373135353937303239363031313131383132353736342c20393931383131303035313330323137313538353038303430323630333331393730323737343536353531353939333135303537363334373135353937303239363031313131383132353736342c20393931383131303035313330323137313538353038303430323630333331393730323737343536353531353939333135303537363334373135353937303239363031313131383132353736342c2039393138313130303531333032313731353835303830343032363033333139373032373734353635353135393933313530353736333437313535393730323936303131313138313235373634a265627a7a72315820831e919debbc674dc7abbea3e895e6de5bc294c69a65092c6c51bcb942f0319664736f6c63430005100032",
  "source": "pragma solidity >=0.4.22 <0.6.0;\n\ncontract ElGamal {\n\n    uint constant length_policies = 4;\n    \n    event Aggregate(uint256[2] aggr);\n    event DoneProof();\n\n    function inner_product(uint256[2][length_policies] memory ciphertext_vector, uint256[length_policies] memory scalar_vector) payable public returns (uint256[2] memory)\n    {\n\n        uint256[2] memory aggregate;\n        uint256[2] memory resultMult;\n\n        for (uint i = 0; i < length_policies; i++) {\n          resultMult = bn128_multiply([\n            ciphertext_vector[i][0],\n            ciphertext_vector[i][1], \n            scalar_vector[i]\n          ]);  \n\n          aggregate = bn128_add([resultMult[0], resultMult[1], aggregate[0], aggregate[1]]);\n        }\n\n        emit Aggregate(aggregate);\n        return aggregate;\n    }\n\n    function decryption_proof() public {\n      uint256[2] memory one;\n      uint256[2] memory two;\n      uint256[2] memory three;\n      uint256[2] memory four;\n      uint256[2] memory five;\n      bytes32 hash;\n\n      uint256 X = uint256(1368015179489954701390400359078579693043519447331113978918064868415326638035);\n      uint256 Y = uint256(9918110051302171585080402603319702774565515993150576347155970296011118125764);\n      uint256 scalar = 2;\n\n      one = bn128_multiply([X, Y, scalar]);\n      two = bn128_multiply([X, Y, scalar]);\n      three = bn128_multiply([X, Y, scalar]);\n      four =  bn128_add([X, Y, X, Y]);\n      five =  bn128_add([X, Y, X, Y]);\n\n      hash = keccak256(\"9918110051302171585080402603319702774565515993150576347155970296011118125764, 9918110051302171585080402603319702774565515993150576347155970296011118125764, 9918110051302171585080402603319702774565515993150576347155970296011118125764, 9918110051302171585080402603319702774565515993150576347155970296011118125764\");\n      emit DoneProof();\n      return;\n    }\n\n    function bn128_add(uint256[4] memory input) private returns (uint256[2] memory result) {\n        bool success;\n        assembly {\n            success := call(not(0), 0x06, 0, input, 128, result, 64)\n        }\n        require(success, \"elliptic curve addition failed\");\n    }\n  \n    function bn128_multiply(uint256[3] memory input)\n    private returns (uint256[2] memory result) {\n        bool success;\n        assembly {\n            success := call(not(0), 0x07, 0, input, 96, result, 64)\n        }\n        require(success, \"elliptic curve multiplication failed\");\n    }\n}\n",
  "sourcePath": "/Users/gpestana/brave/decentralized-bat-net-experiments/themis/contracts/Elgamal.sol",
  "compiler": {
    "name": "solc",
    "version": "0.5.16+commit.9c3226ce.Emscripten.clang"
  },
  "schemaVersion": "3.0.23",
  "updatedAt": "2020-04-01T15:10:15.065Z",
  "devdoc": {
    "methods": {}
  },
  "userdoc": {
    "methods": {}
  }
}