{
  "contractName": "Policy",
  "abi": [
    {
      "constant": true,
      "inputs": [],
      "name": "get_length",
      "outputs": [
        {
          "internalType": "uint256",
          "name": "",
          "type": "uint256"
        }
      ],
      "payable": false,
      "stateMutability": "pure",
      "type": "function"
    },
    {
      "constant": true,
      "inputs": [],
      "name": "get_policies",
      "outputs": [
        {
          "internalType": "uint256[]",
          "name": "",
          "type": "uint256[]"
        }
      ],
      "payable": false,
      "stateMutability": "view",
      "type": "function"
    }
  ],
  "bytecode": "0x60806040526040518061020001604052806001815260200160018152602001600181526020016001815260200160018152602001600181526020016001815260200160018152602001600281526020016002815260200160028152602001600281526020016001815260200160008152602001600081526020016000815250600090601061008e9291906100a1565b5034801561009b57600080fd5b50610113565b8280548282559060005260206000209081019282156100dd579160200282015b828111156100dc5782518255916020019190600101906100c1565b5b5090506100ea91906100ee565b5090565b61011091905b8082111561010c5760008160009055506001016100f4565b5090565b90565b61014e806101226000396000f3fe608060405234801561001057600080fd5b50600436106100365760003560e01c8063ad88cac01461003b578063eec376911461009a575b600080fd5b6100436100b8565b6040518080602001828103825283818151815260200191508051906020019060200280838360005b8381101561008657808201518184015260208101905061006b565b505050509050019250505060405180910390f35b6100a2610110565b6040518082815260200191505060405180910390f35b6060600080548060200260200160405190810160405280929190818152602001828054801561010657602002820191906000526020600020905b8154815260200190600101908083116100f2575b5050505050905090565b6000600290509056fea265627a7a72315820cc0373cdfd5b1e2d49069240ff556fd86c5d725fb1ffd89dee2ef7c9c7431e5c64736f6c63430005100032",
  "source": "pragma solidity >=0.4.22 <0.7.0;\n\ncontract Policy {\n    \n    uint constant length_policies = 2;\n    uint256[] policies = [\n    uint256(1),\n    uint256(1),\n    uint256(1),\n    uint256(1),\n    uint256(1),\n    uint256(1),\n    uint256(1),\n    uint256(1), // 8\n\n    uint256(2),\n    uint256(2),\n    uint256(2),\n    uint256(2),\n    uint256(1),\n    uint256(0),\n    uint256(0),\n    uint256(0) // 9\n  ];\n    \n    function get_length() public pure returns (uint){\n        return length_policies;\n    }\n    \n    function get_policies() public view returns (uint256[] memory) {\n        return policies;\n    }   \n}",
  "sourcePath": "/Users/inigoquerejeta/brave/decentralized-bat-net-experiments/themis/contracts/Policy.sol",
  "compiler": {
    "name": "solc",
    "version": "0.5.16+commit.9c3226ce.Emscripten.clang"
  },
  "schemaVersion": "3.0.23",
  "updatedAt": "2020-07-07T11:05:30.149Z",
  "networkType": "ethereum",
  "devdoc": {
    "methods": {}
  },
  "userdoc": {
    "methods": {}
  }
}