{
  "contractName": "Policy",
  "abi": [
    {
      "constant": true,
      "inputs": [],
      "name": "get_length",
      "outputs": [
        {
          "internalType": "uint256",
          "name": "",
          "type": "uint256"
        }
      ],
      "payable": false,
      "stateMutability": "pure",
      "type": "function"
    },
    {
      "constant": true,
      "inputs": [],
      "name": "get_policies",
      "outputs": [
        {
          "internalType": "uint256[2]",
          "name": "",
          "type": "uint256[2]"
        }
      ],
      "payable": false,
      "stateMutability": "view",
      "type": "function"
    }
  ],
  "bytecode": "0x60806040526040518060400160405280600181526020016002815250600090600261002b92919061003e565b5034801561003857600080fd5b506100a3565b826002810192821561006d579160200282015b8281111561006c578251825591602001919060010190610051565b5b50905061007a919061007e565b5090565b6100a091905b8082111561009c576000816000905550600101610084565b5090565b90565b61014a806100b26000396000f3fe608060405234801561001057600080fd5b50600436106100365760003560e01c8063ad88cac01461003b578063eec3769114610081575b600080fd5b61004361009f565b6040518082600260200280838360005b8381101561006e578082015181840152602081019050610053565b5050505090500191505060405180910390f35b6100896100ea565b6040518082815260200191505060405180910390f35b6100a76100f3565b60006002806020026040519081016040528092919082600280156100e0576020028201915b8154815260200190600101908083116100cc575b5050505050905090565b60006002905090565b604051806040016040528060029060208202803883398082019150509050509056fea265627a7a723158202489bfc62f449557785f1373d4eb3a8bfccb53d4e333383e241148489d22a12564736f6c63430005100032",
  "source": "pragma solidity >=0.4.22 <0.7.0;\n\ncontract Policy {\n    \n    uint constant length_policies = 2;\n    uint256[length_policies] policies = [uint256(1), uint256(2)];\n    \n    function get_length() public pure returns (uint){\n        return length_policies;\n    }\n    \n    function get_policies() public view returns (uint256[length_policies] memory) {\n        return policies;\n    }\n    \n}",
  "sourcePath": "/Users/inigoquerejeta/brave/decentralized-bat-net-experiments/themis/contracts/Policy.sol",
  "compiler": {
    "name": "solc",
    "version": "0.5.16+commit.9c3226ce.Emscripten.clang"
  },
  "schemaVersion": "3.0.23",
  "updatedAt": "2020-06-29T09:11:29.549Z",
  "networkType": "ethereum",
  "devdoc": {
    "methods": {}
  },
  "userdoc": {
    "methods": {}
  }
}