{
  "contractName": "ThemisPolicyContract",
  "abi": [
    {
      "inputs": [],
      "payable": false,
      "stateMutability": "nonpayable",
      "type": "constructor"
    },
    {
      "anonymous": false,
      "inputs": [
        {
          "indexed": false,
          "internalType": "uint256[4]",
          "name": "aggr",
          "type": "uint256[4]"
        }
      ],
      "name": "Aggregate",
      "type": "event"
    },
    {
      "anonymous": false,
      "inputs": [],
      "name": "DoneProof",
      "type": "event"
    },
    {
      "anonymous": false,
      "inputs": [
        {
          "indexed": false,
          "internalType": "uint256[4]",
          "name": "input",
          "type": "uint256[4]"
        }
      ],
      "name": "Input",
      "type": "event"
    },
    {
      "constant": false,
      "inputs": [
        {
          "internalType": "uint256[2][3]",
          "name": "input",
          "type": "uint256[2][3]"
        }
      ],
      "name": "add_points_and_check",
      "outputs": [
        {
          "internalType": "uint256[2]",
          "name": "",
          "type": "uint256[2]"
        }
      ],
      "payable": true,
      "stateMutability": "payable",
      "type": "function"
    },
    {
      "constant": false,
      "inputs": [
        {
          "internalType": "uint256[4][2]",
          "name": "_input",
          "type": "uint256[4][2]"
        },
        {
          "internalType": "bytes32",
          "name": "_client_id",
          "type": "bytes32"
        }
      ],
      "name": "calculate_aggregate_mock",
      "outputs": [
        {
          "internalType": "bool",
          "name": "",
          "type": "bool"
        }
      ],
      "payable": true,
      "stateMutability": "payable",
      "type": "function"
    },
    {
      "constant": false,
      "inputs": [
        {
          "internalType": "uint256[5]",
          "name": "input",
          "type": "uint256[5]"
        },
        {
          "internalType": "bytes32",
          "name": "client_id",
          "type": "bytes32"
        }
      ],
      "name": "verify_proof",
      "outputs": [
        {
          "internalType": "bool",
          "name": "",
          "type": "bool"
        }
      ],
      "payable": true,
      "stateMutability": "payable",
      "type": "function"
    },
    {
      "constant": false,
      "inputs": [
        {
          "internalType": "uint256[4][2]",
          "name": "input",
          "type": "uint256[4][2]"
        },
        {
          "internalType": "uint256[2]",
          "name": "public_key",
          "type": "uint256[2]"
        },
        {
          "internalType": "bytes32",
          "name": "client_id",
          "type": "bytes32"
        }
      ],
      "name": "calculate_aggregate",
      "outputs": [
        {
          "internalType": "bool",
          "name": "",
          "type": "bool"
        }
      ],
      "payable": true,
      "stateMutability": "payable",
      "type": "function"
    },
    {
      "constant": true,
      "inputs": [
        {
          "internalType": "bytes32",
          "name": "client_id",
          "type": "bytes32"
        }
      ],
      "name": "fetch_encrypted_aggregate_array",
      "outputs": [
        {
          "internalType": "uint256[4]",
          "name": "",
          "type": "uint256[4]"
        }
      ],
      "payable": false,
      "stateMutability": "view",
      "type": "function"
    },
    {
      "constant": true,
      "inputs": [
        {
          "internalType": "bytes32",
          "name": "client_id",
          "type": "bytes32"
        }
      ],
      "name": "fetch_encrypted_aggregate",
      "outputs": [
        {
          "internalType": "uint256",
          "name": "",
          "type": "uint256"
        },
        {
          "internalType": "uint256",
          "name": "",
          "type": "uint256"
        },
        {
          "internalType": "uint256",
          "name": "",
          "type": "uint256"
        },
        {
          "internalType": "uint256",
          "name": "",
          "type": "uint256"
        }
      ],
      "payable": false,
      "stateMutability": "view",
      "type": "function"
    },
    {
      "constant": true,
      "inputs": [
        {
          "internalType": "bytes32",
          "name": "client_id",
          "type": "bytes32"
        }
      ],
      "name": "fetch_public_key",
      "outputs": [
        {
          "internalType": "uint256[2]",
          "name": "",
          "type": "uint256[2]"
        }
      ],
      "payable": false,
      "stateMutability": "view",
      "type": "function"
    },
    {
      "constant": false,
      "inputs": [
        {
          "internalType": "uint256[4]",
          "name": "encrypted_aggregate",
          "type": "uint256[4]"
        },
        {
          "internalType": "uint256[2]",
          "name": "decrypted_aggregate",
          "type": "uint256[2]"
        },
        {
          "internalType": "uint256[2]",
          "name": "proof_correct_decryption",
          "type": "uint256[2]"
        },
        {
          "internalType": "bytes32",
          "name": "client_id",
          "type": "bytes32"
        }
      ],
      "name": "request_payment",
      "outputs": [
        {
          "internalType": "bool",
          "name": "valid",
          "type": "bool"
        }
      ],
      "payable": true,
      "stateMutability": "payable",
      "type": "function"
    }
  ],
  "bytecode": "0x60806040526040518060400160405280600181526020016002815250600090600261002b92919061003e565b5034801561003857600080fd5b506100a3565b826002810192821561006d579160200282015b8281111561006c578251825591602001919060010190610051565b5b50905061007a919061007e565b5090565b6100a091905b8082111561009c576000816000905550600101610084565b5090565b90565b6112d780620000b36000396000f3fe60806040526004361061007b5760003560e01c806388ad43111161004e57806388ad4311146104265780639bea124b146104ad578063a5f1c2bd14610524578063f35973c6146105885761007b565b80630b71d25a1461008057806321c33d65146101595780635b678f1c1461025b5780636ceac6081461031c575b600080fd5b61011b600480360360c081101561009657600080fd5b810190808060c00190600380602002604051908101604052809291906000905b8282101561010a578382604002016002806020026040519081016040528092919082600260200280828437600081840152601f19601f820116905080830192505050505050815260200190600101906100b6565b5050505091929192905050506105ff565b6040518082600260200280838360005b8381101561014657808201518184015260208101905061012b565b5050505090500191505060405180910390f35b610241600480360361016081101561017057600080fd5b81019080806101000190600280602002604051908101604052809291906000905b828210156101e5578382608002016004806020026040519081016040528092919082600460200280828437600081840152601f19601f82011690508083019250505050505081526020019060010190610191565b50505050919291929080604001906002806020026040519081016040528092919082600260200280828437600081840152601f19601f820116905080830192505050505050919291929080359060200190929190505050610809565b604051808215151515815260200191505060405180910390f35b610302600480360361012081101561027257600080fd5b81019080806101000190600280602002604051908101604052809291906000905b828210156102e7578382608002016004806020026040519081016040528092919082600460200280828437600081840152601f19601f82011690508083019250505050505081526020019060010190610293565b50505050919291929080359060200190929190505050610a15565b604051808215151515815260200191505060405180910390f35b61040c600480360361012081101561033357600080fd5b8101908080608001906004806020026040519081016040528092919082600460200280828437600081840152601f19601f820116905080830192505050505050919291929080604001906002806020026040519081016040528092919082600260200280828437600081840152601f19601f820116905080830192505050505050919291929080604001906002806020026040519081016040528092919082600260200280828437600081840152601f19601f820116905080830192505050505050919291929080359060200190929190505050610a21565b604051808215151515815260200191505060405180910390f35b610493600480360360c081101561043c57600080fd5b810190808060a001906005806020026040519081016040528092919082600560200280828437600081840152601f19601f820116905080830192505050505050919291929080359060200190929190505050610b0c565b604051808215151515815260200191505060405180910390f35b3480156104b957600080fd5b506104e6600480360360208110156104d057600080fd5b8101908080359060200190929190505050610b2c565b6040518082600460200280838360005b838110156105115780820151818401526020810190506104f6565b5050505090500191505060405180910390f35b34801561053057600080fd5b5061055d6004803603602081101561054757600080fd5b8101908080359060200190929190505050610bb4565b6040518085815260200184815260200183815260200182815260200194505050505060405180910390f35b34801561059457600080fd5b506105c1600480360360208110156105ab57600080fd5b8101908080359060200190929190505050610c25565b6040518082600260200280838360005b838110156105ec5780820151818401526020810190506105d1565b5050505090500191505060405180910390f35b6106076110e0565b61060f6110e0565b6106c060405180608001604052808560006003811061062a57fe5b602002015160006002811061063b57fe5b602002015181526020018560006003811061065257fe5b602002015160016002811061066357fe5b602002015181526020018560016003811061067a57fe5b602002015160006002811061068b57fe5b60200201518152602001856001600381106106a257fe5b60200201516001600281106106b357fe5b6020020151815250610c86565b9050826002600381106106cf57fe5b60200201516000600281106106e057fe5b6020020151816000600281106106f257fe5b602002015114801561073657508260026003811061070c57fe5b602002015160016002811061071d57fe5b60200201518160016002811061072f57fe5b6020020151145b6107a8576040517f08c379a000000000000000000000000000000000000000000000000000000000815260040180806020018281038252600f8152602001807f657175616c697479206661696c6564000000000000000000000000000000000081525060200191505060405180910390fd5b6040518060400160405280846000600381106107c057fe5b60200201516000600281106107d157fe5b60200201518152602001846000600381106107e857fe5b60200201516001600281106107f957fe5b6020020151815250915050919050565b60007fb8aeb9134ec47f3964c01c8a2ad29f486edb1d88d5a9f4324d0c560c749d04248460006002811061083957fe5b60200201516040518082600460200280838360005b8381101561086957808201518184015260208101905061084e565b5050505090500191505060405180910390a17fb8aeb9134ec47f3964c01c8a2ad29f486edb1d88d5a9f4324d0c560c749d0424846001600281106108a957fe5b60200201516040518082600460200280838360005b838110156108d95780820151818401526020810190506108be565b5050505090500191505060405180910390a16108f3611102565b61093a856000600280602002604051908101604052809291908260028015610930576020028201915b81548152602001906001019080831161091c575b5050505050610d19565b9050610944611124565b6040518060a001604052808360006004811061095c57fe5b602002015181526020018360016004811061097357fe5b602002015181526020018360026004811061098a57fe5b60200201518152602001836003600481106109a157fe5b60200201518152602001868152509050806003600086815260200190815260200160002060008201518160000155602082015181600101556040820151816002015560608201518160030155608082015181600401906002610a04929190611159565b509050506001925050509392505050565b60006001905092915050565b60008060019050610a30611199565b60405180608001604052808881526020018781526020018681526020018315158152509050600260008581526020019081526020016000208190806001815401808255809150509060018203906000526020600020906009020160009091929091909150600082015181600001906004610aab9291906111d5565b50602082015181600401906002610ac3929190611159565b50604082015181600601906002610adb929190611159565b5060608201518160080160006101000a81548160ff0219169083151502179055505050508192505050949350505050565b6000610b16611102565b610b1f83610b2c565b9050600191505092915050565b610b34611102565b604051806080016040528060036000858152602001908152602001600020600001548152602001600360008581526020019081526020016000206001015481526020016003600085815260200190815260200160002060020154815260200160036000858152602001908152602001600020600301548152509050919050565b600080600080600360008681526020019081526020016000206000015460036000878152602001908152602001600020600101546003600088815260200190815260200160002060020154600360008981526020019081526020016000206003015493509350935093509193509193565b610c2d6110e0565b60036000838152602001908152602001600020600401600280602002604051908101604052809291908260028015610c7a576020028201915b815481526020019060010190808311610c66575b50505050509050919050565b610c8e6110e0565b600060408260808560006006600019f1905080610d13576040517f08c379a000000000000000000000000000000000000000000000000000000000815260040180806020018281038252601e8152602001807f656c6c6970746963206375727665206164646974696f6e206661696c6564000081525060200191505060405180910390fd5b50919050565b610d21611102565b610d296110e0565b60405180604001604052806000815260200160008152509050610d4a6110e0565b60405180604001604052806000815260200160008152509050610d6b6110e0565b60405180604001604052806001815260200160018152509050610d8c6110e0565b6040518060400160405280600181526020016001815250905060008090505b6002811015610f8d57610e2960405180606001604052808a8460028110610dce57fe5b6020020151600060048110610ddf57fe5b602002015181526020018a8460028110610df557fe5b6020020151600160048110610e0657fe5b60200201518152602001898460028110610e1c57fe5b602002015181525061106a565b9250610ea060405180606001604052808a8460028110610e4557fe5b6020020151600260048110610e5657fe5b602002015181526020018a8460028110610e6c57fe5b6020020151600360048110610e7d57fe5b60200201518152602001898460028110610e9357fe5b602002015181525061106a565b9150610f0f604051806080016040528085600060028110610ebd57fe5b6020020151815260200185600160028110610ed457fe5b6020020151815260200187600060028110610eeb57fe5b6020020151815260200187600160028110610f0257fe5b6020020151815250610c86565b9450610f7e604051806080016040528084600060028110610f2c57fe5b6020020151815260200184600160028110610f4357fe5b6020020151815260200186600060028110610f5a57fe5b6020020151815260200186600160028110610f7157fe5b6020020151815250610c86565b93508080600101915050610dab565b50610f96611102565b604051806080016040528086600060028110610fae57fe5b6020020151815260200186600160028110610fc557fe5b6020020151815260200185600060028110610fdc57fe5b6020020151815260200185600160028110610ff357fe5b602002015181525090507f2214d5f796a5030b1f93bdad19cf57561590f164f5e74396c5981f6e99b4d601816040518082600460200280838360005b8381101561104a57808201518184015260208101905061102f565b5050505090500191505060405180910390a1809550505050505092915050565b6110726110e0565b600060408260608560006007600019f19050806110da576040517f08c379a000000000000000000000000000000000000000000000000000000000815260040180806020018281038252602481526020018061127f6024913960400191505060405180910390fd5b50919050565b6040518060400160405280600290602082028038833980820191505090505090565b6040518060800160405280600490602082028038833980820191505090505090565b6040518060a0016040528060008152602001600081526020016000815260200160008152602001611153611215565b81525090565b8260028101928215611188579160200282015b8281111561118757825182559160200191906001019061116c565b5b5090506111959190611237565b5090565b60405180608001604052806111ac61125c565b81526020016111b9611215565b81526020016111c6611215565b81526020016000151581525090565b8260048101928215611204579160200282015b828111156112035782518255916020019190600101906111e8565b5b5090506112119190611237565b5090565b6040518060400160405280600290602082028038833980820191505090505090565b61125991905b8082111561125557600081600090555060010161123d565b5090565b90565b604051806080016040528060049060208202803883398082019150509050509056fe656c6c6970746963206375727665206d756c7469706c69636174696f6e206661696c6564a265627a7a72315820468e361e42bdce541205c802449fedd094665ea1d47b7c49683294660ae8347064736f6c63430005100032",
  "source": "//pragma solidity >=0.4.22 <0.6.0;\npragma solidity >=0.4.22 <0.7.0;\n\ncontract ThemisPolicyContract {\n\n  uint constant length_policies = 2;\n  uint256[length_policies] policies = [uint256(1), uint256(2)];\n\n  struct EncryptedAggregate {\n    uint256 x0;\n    uint256 x1;\n    uint256 y0;\n    uint256 y1;\n    uint256[2] public_key;\n  }\n\n  struct PaymentRequests {\n    uint256[4] encrypted_aggregate;\n    uint256[2] decrypted_aggregate;\n    uint256[2] proof_correct_decryption;\n    bool valid;\n  }\n\n  // public storage\n  mapping (bytes32 => PaymentRequests[]) payment_requests;\n  mapping (bytes32 => EncryptedAggregate) aggregate_storage;\n\n  event Input(uint256[4] input);\n  event Aggregate(uint256[4] aggr);\n  event DoneProof();\n\n  // TODO: define constructor\n  constructor() public {}\n\n  // TODO: only for checking\n  function add_points_and_check(\n    uint256[2][3] memory input\n  ) payable public returns (uint256[2] memory) {\n    uint256[2] memory addition = _bn128_add([input[0][0], input[0][1], input[1][0], input[1][1]]);\n\n    require(addition[0] == input[2][0] && addition[1] == input[2][1], \"equality failed\");\n    \n    return [input[0][0], input[0][1]];\n\n  }\n\n\n  function calculate_aggregate_mock(\n    uint256[4][length_policies] memory _input, \n    bytes32 _client_id\n  ) payable public returns (bool) {\n  \n    return true;\n  }\n  // public\n  function verify_proof(\n    uint256[5] memory input , \n    bytes32 client_id\n  ) payable public returns (bool) {\n    // begins fetching the client's aggregate\n    uint256[4] memory client_aggregate = fetch_encrypted_aggregate_array(client_id);\n\n    return true;\n  }\n\n  function calculate_aggregate(\n    uint256[4][length_policies] memory input, \n    uint256[2] memory public_key,\n    bytes32 client_id\n  //) payable public returns (uint256[4] memory) {\n    ) payable public returns (bool) {\n\n    emit Input(input[0]);\n    emit Input(input[1]);\n    \n    // calculates aggregate\n    uint256[4] memory aggregate = _inner_product(\n      input,\n      policies\n    );\n\n    // stores aggregate in array keyed by client_id && return aggregate to caller\n    EncryptedAggregate memory enc_aggr = EncryptedAggregate({ \n      x0: aggregate[0], \n      x1: aggregate[1], \n      y0: aggregate[2], \n      y1: aggregate[3], \n      public_key: public_key\n    });\n    aggregate_storage[client_id] = enc_aggr;\n\n    return true;\n  }\n\n  function fetch_encrypted_aggregate_array(bytes32 client_id) public view returns (uint256[4] memory) {\n    return [aggregate_storage[client_id].x0, aggregate_storage[client_id].x1, aggregate_storage[client_id].y0, aggregate_storage[client_id].y1];\n  }\n  function fetch_encrypted_aggregate(bytes32 client_id) public view returns (uint256, uint256, uint256, uint256) {\n      return  (aggregate_storage[client_id].x0, aggregate_storage[client_id].x1, aggregate_storage[client_id].y0, aggregate_storage[client_id].y1);\n  }\n\n  function fetch_public_key(bytes32 client_id) public view returns (uint256[2] memory ) {\n    return aggregate_storage[client_id].public_key;\n  }\n\n  function request_payment(\n    uint256[4] memory encrypted_aggregate,\n    uint256[2] memory decrypted_aggregate,\n    uint256[2] memory proof_correct_decryption,\n    bytes32 client_id\n  ) payable public returns (bool valid) {\n    // TODO: implement proof verification\n\n    bool proof_is_valid = true;\n\n    PaymentRequests memory payment_request = PaymentRequests(\n      encrypted_aggregate,\n      decrypted_aggregate,\n      proof_correct_decryption,\n      proof_is_valid);    \n\n    payment_requests[client_id].push(payment_request);\n\n    return proof_is_valid;\n  }\n\n  // private\n  function _inner_product(\n    uint256[4][length_policies] memory ciphertext_vector, \n    uint256[length_policies] memory scalar_vector\n  ) private returns (uint256[4] memory) {\n\n      uint256[2] memory aggregate_1 = [uint256(0), uint256(0)];\n      uint256[2] memory aggregate_2 = [uint256(0), uint256(0)];\n      uint256[2] memory resultMult_1 = [uint256(1), uint256(1)];\n      uint256[2] memory resultMult_2 =  [uint256(1), uint256(1)];\n\n      for (uint i = 0; i < length_policies; i++) {\n        resultMult_1 = _bn128_multiply([\n          ciphertext_vector[i][0],\n          ciphertext_vector[i][1], \n          scalar_vector[i]\n        ]);  \n\n        resultMult_2 = _bn128_multiply([\n          ciphertext_vector[i][2], \n          ciphertext_vector[i][3],\n          scalar_vector[i]\n        ]);\n\n        aggregate_1 = _bn128_add([resultMult_1[0], resultMult_1[1], aggregate_1[0], aggregate_1[1]]);\n        \n        aggregate_2 = _bn128_add([resultMult_2[0], resultMult_2[1], aggregate_2[0], aggregate_2[1]]);\n        }\n\n      uint256[4] memory aggregate = [aggregate_1[0], aggregate_1[1], aggregate_2[0], aggregate_2[1]];\n\n\n      emit Aggregate(aggregate);\n      return aggregate;\n    }\n\n    function _bn128_add(uint256[4] memory input) private returns (uint256[2] memory result) {\n        bool success;\n        assembly {\n            success := call(not(0), 0x06, 0, input, 128, result, 64)\n        }\n        require(success, \"elliptic curve addition failed\");\n    }\n  \n    function _bn128_multiply(uint256[3] memory input)\n    private returns (uint256[2] memory result) {\n        bool success;\n        assembly {\n            success := call(not(0), 0x07, 0, input, 96, result, 64)\n        }\n        require(success, \"elliptic curve multiplication failed\");\n    }\n}\n",
  "sourcePath": "/Users/inigoquerejeta/brave/decentralized-bat-net-experiments/themis/contracts/Themis.sol",
  "compiler": {
    "name": "solc",
    "version": "0.5.16+commit.9c3226ce.Emscripten.clang"
  },
  "schemaVersion": "3.0.23",
  "updatedAt": "2020-04-29T12:19:18.636Z",
  "devdoc": {
    "methods": {}
  },
  "userdoc": {
    "methods": {}
  }
}