{
  "contractName": "ThemisPolicyContract",
  "abi": [
    {
      "inputs": [
        {
          "internalType": "address",
          "name": "policy_sc_add",
          "type": "address"
        }
      ],
      "payable": false,
      "stateMutability": "nonpayable",
      "type": "constructor"
    },
    {
      "anonymous": false,
      "inputs": [
        {
          "indexed": false,
          "internalType": "uint256[4]",
          "name": "aggr",
          "type": "uint256[4]"
        }
      ],
      "name": "Aggregate",
      "type": "event"
    },
    {
      "anonymous": false,
      "inputs": [],
      "name": "DoneProof",
      "type": "event"
    },
    {
      "anonymous": false,
      "inputs": [
        {
          "indexed": false,
          "internalType": "bytes32",
          "name": "hashed",
          "type": "bytes32"
        }
      ],
      "name": "Hash",
      "type": "event"
    },
    {
      "anonymous": false,
      "inputs": [
        {
          "indexed": false,
          "internalType": "uint256[4]",
          "name": "input",
          "type": "uint256[4]"
        }
      ],
      "name": "Input",
      "type": "event"
    },
    {
      "anonymous": false,
      "inputs": [
        {
          "indexed": false,
          "internalType": "uint256",
          "name": "int_hashed",
          "type": "uint256"
        }
      ],
      "name": "IntegerHash",
      "type": "event"
    },
    {
      "constant": true,
      "inputs": [],
      "name": "policy_sc_address",
      "outputs": [
        {
          "internalType": "contract Policy",
          "name": "",
          "type": "address"
        }
      ],
      "payable": false,
      "stateMutability": "view",
      "type": "function"
    },
    {
      "constant": false,
      "inputs": [
        {
          "internalType": "uint256[7]",
          "name": "input",
          "type": "uint256[7]"
        },
        {
          "internalType": "bytes32",
          "name": "client_id",
          "type": "bytes32"
        }
      ],
      "name": "submit_proof_decryption",
      "outputs": [
        {
          "internalType": "bool",
          "name": "",
          "type": "bool"
        }
      ],
      "payable": true,
      "stateMutability": "payable",
      "type": "function"
    },
    {
      "constant": false,
      "inputs": [
        {
          "internalType": "uint256[4]",
          "name": "ciphertext",
          "type": "uint256[4]"
        },
        {
          "internalType": "uint256[2]",
          "name": "plaintext",
          "type": "uint256[2]"
        },
        {
          "internalType": "uint256[2]",
          "name": "public_key",
          "type": "uint256[2]"
        },
        {
          "internalType": "uint256[2]",
          "name": "announcement_g",
          "type": "uint256[2]"
        },
        {
          "internalType": "uint256[2]",
          "name": "announcement_ctx",
          "type": "uint256[2]"
        },
        {
          "internalType": "uint256",
          "name": "response",
          "type": "uint256"
        }
      ],
      "name": "check_proof",
      "outputs": [
        {
          "internalType": "bool",
          "name": "",
          "type": "bool"
        }
      ],
      "payable": true,
      "stateMutability": "payable",
      "type": "function"
    },
    {
      "constant": false,
      "inputs": [
        {
          "internalType": "uint256[4][]",
          "name": "input",
          "type": "uint256[4][]"
        },
        {
          "internalType": "uint256[2]",
          "name": "public_key",
          "type": "uint256[2]"
        },
        {
          "internalType": "bytes32",
          "name": "client_id",
          "type": "bytes32"
        }
      ],
      "name": "calculate_aggregate",
      "outputs": [
        {
          "internalType": "bool",
          "name": "",
          "type": "bool"
        }
      ],
      "payable": true,
      "stateMutability": "payable",
      "type": "function"
    },
    {
      "constant": true,
      "inputs": [
        {
          "internalType": "bytes32",
          "name": "client_id",
          "type": "bytes32"
        }
      ],
      "name": "fetch_encrypted_aggregate_array",
      "outputs": [
        {
          "internalType": "uint256[4]",
          "name": "",
          "type": "uint256[4]"
        }
      ],
      "payable": false,
      "stateMutability": "view",
      "type": "function"
    },
    {
      "constant": true,
      "inputs": [
        {
          "internalType": "bytes32",
          "name": "client_id",
          "type": "bytes32"
        }
      ],
      "name": "fetch_public_key",
      "outputs": [
        {
          "internalType": "uint256[2]",
          "name": "",
          "type": "uint256[2]"
        }
      ],
      "payable": false,
      "stateMutability": "view",
      "type": "function"
    },
    {
      "constant": true,
      "inputs": [
        {
          "internalType": "bytes32",
          "name": "client_id",
          "type": "bytes32"
        }
      ],
      "name": "fetch_proof_verification",
      "outputs": [
        {
          "internalType": "bool",
          "name": "",
          "type": "bool"
        }
      ],
      "payable": false,
      "stateMutability": "view",
      "type": "function"
    },
    {
      "constant": false,
      "inputs": [
        {
          "internalType": "uint256[4]",
          "name": "encrypted_aggregate",
          "type": "uint256[4]"
        },
        {
          "internalType": "uint256[2]",
          "name": "decrypted_aggregate",
          "type": "uint256[2]"
        },
        {
          "internalType": "uint256[2]",
          "name": "proof_correct_decryption",
          "type": "uint256[2]"
        },
        {
          "internalType": "bytes32",
          "name": "client_id",
          "type": "bytes32"
        }
      ],
      "name": "request_payment",
      "outputs": [
        {
          "internalType": "bool",
          "name": "valid",
          "type": "bool"
        }
      ],
      "payable": true,
      "stateMutability": "payable",
      "type": "function"
    }
  ],
  "bytecode": "0x60806040523480156200001157600080fd5b5060405162001edf38038062001edf833981810160405262000037919081019062000095565b806000806101000a81548173ffffffffffffffffffffffffffffffffffffffff021916908373ffffffffffffffffffffffffffffffffffffffff160217905550506200010f565b6000815190506200008f81620000f5565b92915050565b600060208284031215620000a857600080fd5b6000620000b8848285016200007e565b91505092915050565b6000620000ce82620000d5565b9050919050565b600073ffffffffffffffffffffffffffffffffffffffff82169050919050565b6200010081620000c1565b81146200010c57600080fd5b50565b611dc0806200011f6000396000f3fe60806040526004361061007b5760003560e01c80639bea124b1161004e5780639bea124b14610140578063aba997441461017d578063d3233c59146101ba578063f35973c6146101e55761007b565b8063448e538f146100805780636ceac608146100b0578063952270e4146100e05780639911270714610110575b600080fd5b61009a6004803603610095919081019061170d565b610222565b6040516100a79190611b0b565b60405180910390f35b6100ca60048036036100c5919081019061179a565b6102b1565b6040516100d79190611b0b565b60405180910390f35b6100fa60048036036100f591908101906117ff565b61039c565b6040516101079190611b0b565b60405180910390f35b61012a600480360361012591908101906116a6565b6104eb565b6040516101379190611b0b565b60405180910390f35b34801561014c57600080fd5b506101676004803603610162919081019061183c565b61078d565b6040516101749190611af0565b60405180910390f35b34801561018957600080fd5b506101a4600480360361019f919081019061183c565b61082d565b6040516101b19190611b0b565b60405180910390f35b3480156101c657600080fd5b506101cf610857565b6040516101dc9190611b26565b60405180910390f35b3480156101f157600080fd5b5061020c6004803603610207919081019061183c565b61087c565b6040516102199190611a55565b60405180910390f35b6000808688868660405180604001604052806001815260200160028152508a60405160200161025696959493929190611a70565b60405160208183030381529060405280519060200120905060008160001c90506000610284888884886108dd565b905060006102958b8b89868a610a89565b90508180156102a15750805b9450505050509695505050505050565b600080600190506102c06111cd565b6040518060800160405280888152602001878152602001868152602001831515815250905060026000858152602001908152602001600020819080600181540180825580915050906001820390600052602060002090600902016000909192909190915060008201518160000190600461033b929190611209565b50602082015181600401906002610353929190611249565b5060408201518160060190600261036b929190611249565b5060608201518160080160006101000a81548160ff0219169083151502179055505050508192505050949350505050565b60006103a6611289565b6103af8361078d565b90506103b96112ab565b6103c28461087c565b90506103cc6112ab565b6040518060400160405280876000600781106103e457fe5b60200201518152602001876001600781106103fb57fe5b6020020151815250905061040d6112ab565b60405180604001604052808860026007811061042557fe5b602002015181526020018860036007811061043c57fe5b6020020151815250905061044e6112ab565b60405180604001604052808960046007811061046657fe5b602002015181526020018960056007811061047d57fe5b6020020151815250905060008860066007811061049657fe5b6020020151905060006104ad878688878787610222565b905080600460008b815260200190815260200160002060006101000a81548160ff021916908315150217905550600197505050505050505092915050565b60006104f56112cd565b604051806040016040528060018152602001600281525090506105166112e7565b604051806040016040528083815260200183815250905061053561130d565b60405180604001604052808381526020018781525090508060036000878152602001908152602001600020600082015181600001600082015181600001600082015181600001556020820151816001015550506020820151816002016000820151816000015560208201518160010155505050506020820151816004019060026105c0929190611249565b509050507fb8aeb9134ec47f3964c01c8a2ad29f486edb1d88d5a9f4324d0c560c749d0424876000815181106105f257fe5b60200260200101516040516106079190611ad5565b60405180910390a17fb8aeb9134ec47f3964c01c8a2ad29f486edb1d88d5a9f4324d0c560c749d04248760018151811061063d57fe5b60200260200101516040516106529190611ad5565b60405180910390a160405180604001604052806001815260200160028152506001906002610681929190611333565b5061068a6112e7565b6106e48860018054806020026020016040519081016040528092919081815260200182805480156106da57602002820191906000526020600020905b8154815260200190600101908083116106c6575b5050505050610d5e565b90506106ee61130d565b6040518060400160405280838152602001898152509050806003600089815260200190815260200160002060008201518160000160008201518160000160008201518160000155602082015181600101555050602082015181600201600082015181600001556020820151816001015550505050602082015181600401906002610779929190611249565b509050506001955050505050509392505050565b610795611289565b604051806080016040528060036000858152602001908152602001600020600001600001600001548152602001600360008581526020019081526020016000206000016000016001015481526020016003600085815260200190815260200160002060000160020160000154815260200160036000858152602001908152602001600020600001600201600101548152509050919050565b60006004600083815260200190815260200160002060009054906101000a900460ff169050919050565b6000809054906101000a900473ffffffffffffffffffffffffffffffffffffffff1681565b6108846112ab565b600360008381526020019081526020016000206004016002806020026040519081016040528092919082600280156108d1576020028201915b8154815260200190600101908083116108bd575b50505050509050919050565b60006108e76112cd565b6040518060400160405280876000600281106108ff57fe5b602002015181526020018760016002811061091657fe5b602002015181525090506109286112cd565b604051806040016040528060018152602001600281525090506109496112ab565b610974604051806060016040528084600001518152602001846020015181526020018781525061110d565b905061097e6112ab565b6109a9604051806060016040528086600001518152602001866020015181526020018981525061110d565b90506109b36112ab565b610a2060405180608001604052808b6000600281106109ce57fe5b602002015181526020018b6001600281106109e557fe5b60200201518152602001846000600281106109fc57fe5b6020020151815260200184600160028110610a1357fe5b602002015181525061116d565b9050600081600060028110610a3157fe5b602002015184600060028110610a4357fe5b6020020151148015610a76575081600160028110610a5d57fe5b602002015184600160028110610a6f57fe5b6020020151145b9050809650505050505050949350505050565b6000610a936112e7565b604051806040016040528060405180604001604052808a600060048110610ab657fe5b602002015181526020018a600160048110610acd57fe5b6020020151815250815260200160405180604001604052808a600260048110610af257fe5b602002015181526020018a600360048110610b0957fe5b60200201518152508152509050610b1e6112cd565b604051806040016040528088600060028110610b3657fe5b6020020151815260200188600160028110610b4d57fe5b60200201518152509050610b5f6112ab565b610b926040518060600160405280856000015160000151815260200185600001516020015181526020018781525061110d565b9050610b9c6112ab565b610bc7604051806060016040528085600001518152602001856020015181526020018981525061110d565b9050610bd16112ab565b610c3e604051806080016040528085600060028110610bec57fe5b6020020151815260200185600160028110610c0357fe5b6020020151815260200184600060028110610c1a57fe5b6020020151815260200184600160028110610c3157fe5b602002015181525061116d565b9050610c486112ab565b610c7b6040518060600160405280886020015160000151815260200188602001516020015181526020018b81525061110d565b9050610c856112ab565b610cf260405180608001604052808d600060028110610ca057fe5b602002015181526020018d600160028110610cb757fe5b6020020151815260200184600060028110610cce57fe5b6020020151815260200184600160028110610ce557fe5b602002015181525061116d565b9050600081600060028110610d0357fe5b602002015184600060028110610d1557fe5b6020020151148015610d48575081600160028110610d2f57fe5b602002015184600160028110610d4157fe5b6020020151145b9050809850505050505050505095945050505050565b610d666112e7565b610d6e6112ab565b60405180604001604052806000815260200160008152509050610d8f6112ab565b60405180604001604052806000815260200160008152509050610db06112ab565b60405180604001604052806001815260200160018152509050610dd16112ab565b6040518060400160405280600181526020016001815250905060008090505b6002811015610fe457610e7760405180606001604052808a8481518110610e1357fe5b6020026020010151600060048110610e2757fe5b602002015181526020018a8481518110610e3d57fe5b6020026020010151600160048110610e5157fe5b60200201518152602001898481518110610e6757fe5b602002602001015181525061110d565b9250610ef760405180606001604052808a8481518110610e9357fe5b6020026020010151600260048110610ea757fe5b602002015181526020018a8481518110610ebd57fe5b6020026020010151600360048110610ed157fe5b60200201518152602001898481518110610ee757fe5b602002602001015181525061110d565b9150610f66604051806080016040528085600060028110610f1457fe5b6020020151815260200185600160028110610f2b57fe5b6020020151815260200187600060028110610f4257fe5b6020020151815260200187600160028110610f5957fe5b602002015181525061116d565b9450610fd5604051806080016040528084600060028110610f8357fe5b6020020151815260200184600160028110610f9a57fe5b6020020151815260200186600060028110610fb157fe5b6020020151815260200186600160028110610fc857fe5b602002015181525061116d565b93508080600101915050610df0565b50610fed6112cd565b60405180604001604052808660006002811061100557fe5b602002015181526020018660016002811061101c57fe5b6020020151815250905061102e6112cd565b60405180604001604052808660006002811061104657fe5b602002015181526020018660016002811061105d57fe5b6020020151815250905061106f6112e7565b60405180604001604052808481526020018381525090507f2214d5f796a5030b1f93bdad19cf57561590f164f5e74396c5981f6e99b4d60160405180608001604052808360000151600001518152602001836000015160200151815260200183602001516000015181526020018360200151602001518152506040516110f59190611af0565b60405180910390a18097505050505050505092915050565b6111156112ab565b600060408260608560006007600019f1905080611167576040517f08c379a000000000000000000000000000000000000000000000000000000000815260040161115e90611b61565b60405180910390fd5b50919050565b6111756112ab565b600060408260808560006006600019f19050806111c7576040517f08c379a00000000000000000000000000000000000000000000000000000000081526004016111be90611b41565b60405180910390fd5b50919050565b60405180608001604052806111e0611380565b81526020016111ed6113a2565b81526020016111fa6113a2565b81526020016000151581525090565b8260048101928215611238579160200282015b8281111561123757825182559160200191906001019061121c565b5b50905061124591906113c4565b5090565b8260028101928215611278579160200282015b8281111561127757825182559160200191906001019061125c565b5b50905061128591906113c4565b5090565b6040518060800160405280600490602082028038833980820191505090505090565b6040518060400160405280600290602082028038833980820191505090505090565b604051806040016040528060008152602001600081525090565b60405180604001604052806112fa6113e9565b81526020016113076113e9565b81525090565b6040518060400160405280611320611403565b815260200161132d6113a2565b81525090565b82805482825590600052602060002090810192821561136f579160200282015b8281111561136e578251825591602001919060010190611353565b5b50905061137c91906113c4565b5090565b6040518060800160405280600490602082028038833980820191505090505090565b6040518060400160405280600290602082028038833980820191505090505090565b6113e691905b808211156113e25760008160009055506001016113ca565b5090565b90565b604051806040016040528060008152602001600081525090565b60405180604001604052806114166113e9565b81526020016114236113e9565b81525090565b600082601f83011261143a57600080fd5b813561144d61144882611bae565b611b81565b9150818183526020840193506020810190508385608084028201111561147257600080fd5b60005b838110156114a257816114888882611520565b845260208401935060808301925050600181019050611475565b5050505092915050565b600082601f8301126114bd57600080fd5b60026114d06114cb82611bd6565b611b81565b915081838560208402820111156114e657600080fd5b60005b8381101561151657816114fc8882611691565b8452602084019350602083019250506001810190506114e9565b5050505092915050565b600082601f83011261153157600080fd5b600461154461153f82611bf8565b611b81565b9150818385602084028201111561155a57600080fd5b60005b8381101561158a57816115708882611691565b84526020840193506020830192505060018101905061155d565b5050505092915050565b600082601f8301126115a557600080fd5b60046115b86115b382611c1a565b611b81565b915081838560208402820111156115ce57600080fd5b60005b838110156115fe57816115e48882611691565b8452602084019350602083019250506001810190506115d1565b5050505092915050565b600082601f83011261161957600080fd5b600761162c61162782611c3c565b611b81565b9150818385602084028201111561164257600080fd5b60005b8381101561167257816116588882611691565b845260208401935060208301925050600181019050611645565b5050505092915050565b60008135905061168b81611d4f565b92915050565b6000813590506116a081611d66565b92915050565b6000806000608084860312156116bb57600080fd5b600084013567ffffffffffffffff8111156116d557600080fd5b6116e186828701611429565b93505060206116f2868287016114ac565b92505060606117038682870161167c565b9150509250925092565b6000806000806000806101a0878903121561172757600080fd5b600061173589828a01611594565b965050608061174689828a016114ac565b95505060c061175789828a016114ac565b94505061010061176989828a016114ac565b93505061014061177b89828a016114ac565b92505061018061178d89828a01611691565b9150509295509295509295565b60008060008061012085870312156117b157600080fd5b60006117bf87828801611594565b94505060806117d0878288016114ac565b93505060c06117e1878288016114ac565b9250506101006117f38782880161167c565b91505092959194509250565b600080610100838503121561181357600080fd5b600061182185828601611608565b92505060e06118328582860161167c565b9150509250929050565b60006020828403121561184e57600080fd5b600061185c8482850161167c565b91505092915050565b60006118718383611a46565b60208301905092915050565b61188681611c7c565b6118908184611cc4565b925061189b82611c5e565b8060005b838110156118cc5781516118b38782611865565b96506118be83611c9d565b92505060018101905061189f565b505050505050565b6118dd81611c92565b6118e78184611ccf565b92506118f282611c72565b8060005b8381101561192357815161190a8782611865565b965061191583611cb7565b9250506001810190506118f6565b505050505050565b61193481611c87565b61193e8184611ccf565b925061194982611c68565b8060005b8381101561197a5781516119618782611865565b965061196c83611caa565b92505060018101905061194d565b505050505050565b61198b81611ceb565b82525050565b61199a81611d2b565b82525050565b60006119ad601e83611cda565b91507f656c6c6970746963206375727665206164646974696f6e206661696c656400006000830152602082019050919050565b60006119ed602483611cda565b91507f656c6c6970746963206375727665206d756c7469706c69636174696f6e20666160008301527f696c6564000000000000000000000000000000000000000000000000000000006020830152604082019050919050565b611a4f81611d21565b82525050565b6000604082019050611a6a600083018461187d565b92915050565b60006101c082019050611a86600083018961187d565b611a9360408301886118d4565b611aa060c083018761187d565b611aae61010083018661187d565b611abc61014083018561187d565b611aca61018083018461187d565b979650505050505050565b6000608082019050611aea600083018461192b565b92915050565b6000608082019050611b0560008301846118d4565b92915050565b6000602082019050611b206000830184611982565b92915050565b6000602082019050611b3b6000830184611991565b92915050565b60006020820190508181036000830152611b5a816119a0565b9050919050565b60006020820190508181036000830152611b7a816119e0565b9050919050565b6000604051905081810181811067ffffffffffffffff82111715611ba457600080fd5b8060405250919050565b600067ffffffffffffffff821115611bc557600080fd5b602082029050602081019050919050565b600067ffffffffffffffff821115611bed57600080fd5b602082029050919050565b600067ffffffffffffffff821115611c0f57600080fd5b602082029050919050565b600067ffffffffffffffff821115611c3157600080fd5b602082029050919050565b600067ffffffffffffffff821115611c5357600080fd5b602082029050919050565b6000819050919050565b6000819050919050565b6000819050919050565b600060029050919050565b600060049050919050565b600060049050919050565b6000602082019050919050565b6000602082019050919050565b6000602082019050919050565b600081905092915050565b600081905092915050565b600082825260208201905092915050565b60008115159050919050565b6000819050919050565b600073ffffffffffffffffffffffffffffffffffffffff82169050919050565b6000819050919050565b6000611d3682611d3d565b9050919050565b6000611d4882611d01565b9050919050565b611d5881611cf7565b8114611d6357600080fd5b50565b611d6f81611d21565b8114611d7a57600080fd5b5056fea365627a7a72315820344831336f161445b3bbc30864816a42b95b383ea74c26e59444e4ae4f290e6a6c6578706572696d656e74616cf564736f6c63430005100040",
  "source": "//pragma solidity >=0.4.22 <0.6.0;\npragma solidity >=0.4.22 <0.7.0;\n\npragma experimental ABIEncoderV2;\n\ncontract ThemisPolicyContract {\n\n  Policy public policy_sc_address;\n  uint constant length_policies = 2;\n  uint256[] policies;\n\n  struct EncryptedAggregate {\n    Ciphertext ctxt;\n    uint256[2] public_key;\n  }\n\n  struct PaymentRequests {\n    uint256[4] encrypted_aggregate;\n    uint256[2] decrypted_aggregate;\n    uint256[2] proof_correct_decryption;\n    bool valid;\n  }\n    \n    struct EcPoint{\n        uint256 x_coord; \n        uint256 y_coord;\n    }\n    \n    struct Ciphertext{\n        EcPoint point1; \n        EcPoint point2;\n    }\n\n  // public storage\n  mapping (bytes32 => PaymentRequests[]) payment_requests;\n  mapping (bytes32 => EncryptedAggregate) aggregate_storage;\n  mapping (bytes32 => bool) proof_verification_storage;\n\n  event Hash(bytes32 hashed);\n  event IntegerHash(uint256 int_hashed);\n  event Input(uint256[4] input);\n  event Aggregate(uint256[4] aggr);\n  event DoneProof();\n\n  // TODO: define constructor\n  constructor(address policy_sc_add) public {\n      policy_sc_address = Policy(policy_sc_add);\n  }\n\n  // public\n  function submit_proof_decryption(\n    uint256[7] memory input, \n    bytes32 client_id\n  ) payable public returns (bool) {\n    // begins fetching the client's aggregate\n    uint256[4] memory client_aggregate = fetch_encrypted_aggregate_array(client_id);\n    uint256[2] memory client_pk = fetch_public_key(client_id);\n    uint256[2] memory plaintext = [input[0], input[1]];\n    uint256[2] memory announcement_g = [input[2], input[3]];\n    uint256[2] memory announcement_ctx = [input[4], input[5]];\n    uint256 response = input[6];\n\n    bool proof_verification = check_proof(\n      client_aggregate, \n      plaintext, \n      client_pk, \n      announcement_g, \n      announcement_ctx,\n      response\n    );\n\n    proof_verification_storage[client_id] = proof_verification;\n\n    return true;\n  }\n\n  function check_proof(\n        uint256[4] memory ciphertext,\n        uint256[2] memory plaintext, \n        uint256[2] memory public_key,\n        uint256[2] memory announcement_g,\n        uint256[2] memory announcement_ctx,\n        uint256 response\n    ) payable public returns (bool) {\n    \n        bytes32 hashed_keccak256 = keccak256(abi.encode(\n            plaintext,\n            ciphertext,\n            announcement_g, \n            announcement_ctx, \n            [uint256(1), uint256(2)],\n            public_key\n            ));\n            \n\n        uint256 challenge = uint256(hashed_keccak256);\n        \n        bool check_1 = _proof_check_1(public_key, announcement_g, challenge, response);\n        bool check_2 = _proof_check_2(ciphertext, plaintext, announcement_ctx, challenge, response);\n        return check_1 && check_2;\n  }\n  \n  function _proof_check_1(\n        uint256[2] memory public_key,\n        uint256[2] memory announcement_g,\n        uint256 challenge,\n        uint256 response\n      ) private returns (bool) {\n        EcPoint memory pk = EcPoint(public_key[0], public_key[1]);\n        EcPoint memory generator = EcPoint(uint256(1), uint256(2));\n        \n        uint256[2] memory lhs_check_1 = _bn128_multiply([generator.x_coord, generator.y_coord, response]);\n    \n        uint256[2] memory pk_times_challenge = _bn128_multiply([pk.x_coord, pk.y_coord, challenge]);\n        uint256[2] memory rhs_check_1 = _bn128_add([announcement_g[0], announcement_g[1], pk_times_challenge[0], pk_times_challenge[1]]);    \n  \n        bool check_1 = lhs_check_1[0] == rhs_check_1[0] && lhs_check_1[1] == rhs_check_1[1];\n        return check_1;\n  }\n  \n  function _proof_check_2(\n            uint256[4] memory ciphertext, \n            uint256[2] memory plaintext, \n            uint256[2] memory announcement_ctx,\n            uint256 challenge,\n            uint256 response\n      ) private returns (bool) {\n        Ciphertext memory ctxt = Ciphertext(\n                EcPoint(ciphertext[0], ciphertext[1]), EcPoint(ciphertext[2], ciphertext[3])\n            );\n        EcPoint memory ptxt = EcPoint(plaintext[0], plaintext[1]);\n          \n        uint256[2] memory lhs_mult_1_check_2 = _bn128_multiply([ctxt.point1.x_coord, ctxt.point1.y_coord, response]);\n        // The following, in the original check is computed in the rhs. We do it in the lsh for simplicity\n        uint256[2] memory lhs_mult_2_check_2 = _bn128_multiply([ptxt.x_coord, ptxt.y_coord, challenge]);\n        uint256[2] memory lhs_check_2 = _bn128_add([lhs_mult_1_check_2[0], lhs_mult_1_check_2[1], lhs_mult_2_check_2[0], lhs_mult_2_check_2[1]]);\n        \n        uint256[2] memory rhs_mult_check_2 = _bn128_multiply([ctxt.point2.x_coord, ctxt.point2.y_coord, challenge]);\n        uint256[2] memory rhs_check_2 = _bn128_add([announcement_ctx[0], announcement_ctx[1], rhs_mult_check_2[0], rhs_mult_check_2[1]]);\n        \n        bool check_2 = lhs_check_2[0] == rhs_check_2[0] && lhs_check_2[1] == rhs_check_2[1];\n        return check_2;\n      }\n\n  function calculate_aggregate(\n    uint256[4][] memory input, \n    uint256[2] memory public_key,\n    bytes32 client_id\n  //) payable public returns (uint256[4] memory) {\n    ) payable public returns (bool) { \n    \n    EcPoint memory point_1_d = EcPoint({x_coord: uint256(1), y_coord: uint256(2)});\n    Ciphertext memory ctxt_d = Ciphertext({point1: point_1_d, point2: point_1_d});\n    EncryptedAggregate memory enc_aggr_d = EncryptedAggregate({\n      ctxt: ctxt_d, \n      public_key: public_key\n    });\n\n    aggregate_storage[client_id] = enc_aggr_d; \n\n\n    emit Input(input[0]);\n    emit Input(input[1]);\n\n    policies = [uint256(1), uint256(2)];\n    \n    // calculates aggregate\n    Ciphertext memory aggregate = _inner_product(\n      input,\n      policies\n    );\n\n    // stores aggregate in array keyed by client_id && return aggregate to caller\n    EncryptedAggregate memory enc_aggr = EncryptedAggregate({ \n      ctxt: aggregate,\n      public_key: public_key\n    });\n\n    aggregate_storage[client_id] = enc_aggr;\n\n    return true;\n  }\n\n  // supposed to replace `fetch_encrypted_aggregate` at some point. I like more uint256[4] than (.,.,.,.)\n  function fetch_encrypted_aggregate_array(bytes32 client_id) public view returns (uint256[4] memory) {\n    return [aggregate_storage[client_id].ctxt.point1.x_coord, aggregate_storage[client_id].ctxt.point1.y_coord, aggregate_storage[client_id].ctxt.point2.x_coord, aggregate_storage[client_id].ctxt.point2.y_coord];\n  }\n\n  function fetch_public_key(bytes32 client_id) public view returns (uint256[2] memory ) {\n    return aggregate_storage[client_id].public_key;\n  }\n\n  function fetch_proof_verification(bytes32 client_id) public view returns (bool) {\n    return proof_verification_storage[client_id];\n  }\n\n  function request_payment(\n    uint256[4] memory encrypted_aggregate,\n    uint256[2] memory decrypted_aggregate,\n    uint256[2] memory proof_correct_decryption,\n    bytes32 client_id\n  ) payable public returns (bool valid) {\n    // TODO: implement proof verification\n\n    bool proof_is_valid = true;\n\n    PaymentRequests memory payment_request = PaymentRequests(\n      encrypted_aggregate,\n      decrypted_aggregate,\n      proof_correct_decryption,\n      proof_is_valid);    \n\n    payment_requests[client_id].push(payment_request);\n\n    return proof_is_valid;\n  }\n\n  // private\n  function _inner_product(\n    uint256[4][] memory ciphertext_vector, \n    uint256[] memory scalar_vector\n  ) private returns (Ciphertext memory) {\n\n      uint256[2] memory aggregate_1 = [uint256(0), uint256(0)];\n      uint256[2] memory aggregate_2 = [uint256(0), uint256(0)];\n      uint256[2] memory resultMult_1 = [uint256(1), uint256(1)];\n      uint256[2] memory resultMult_2 =  [uint256(1), uint256(1)];\n\n      for (uint i = 0; i < length_policies; i++) {\n        resultMult_1 = _bn128_multiply([\n          ciphertext_vector[i][0],\n          ciphertext_vector[i][1], \n          scalar_vector[i]\n        ]);  \n\n        resultMult_2 = _bn128_multiply([\n          ciphertext_vector[i][2], \n          ciphertext_vector[i][3],\n          scalar_vector[i]\n        ]);\n\n        aggregate_1 = _bn128_add([resultMult_1[0], resultMult_1[1], aggregate_1[0], aggregate_1[1]]);\n        \n        aggregate_2 = _bn128_add([resultMult_2[0], resultMult_2[1], aggregate_2[0], aggregate_2[1]]);\n        }\n\n      EcPoint memory point1 = EcPoint(aggregate_1[0], aggregate_1[1]);\n      EcPoint memory point2 = EcPoint(aggregate_2[0], aggregate_2[1]);\n      Ciphertext memory aggregate = Ciphertext(point1, point2);\n\n\n      emit Aggregate([aggregate.point1.x_coord, aggregate.point1.y_coord, aggregate.point2.x_coord, aggregate.point2.y_coord]);\n      return aggregate;\n    }\n\n    function _bn128_add(uint256[4] memory input) private returns (uint256[2] memory result) {\n        bool success;\n        assembly {\n            success := call(not(0), 0x06, 0, input, 128, result, 64)\n        }\n        require(success, \"elliptic curve addition failed\");\n    }\n  \n    function _bn128_multiply(uint256[3] memory input)\n    private returns (uint256[2] memory result) {\n        bool success;\n        assembly {\n            success := call(not(0), 0x07, 0, input, 96, result, 64)\n        }\n        require(success, \"elliptic curve multiplication failed\");\n    }\n}\n\ninterface Policy{\n    function get_length() external view returns (uint);\n    function get_policies() external view returns (uint256[] memory);\n}",
  "sourcePath": "/Users/inigoquerejeta/brave/decentralized-bat-net-experiments/themis/contracts/Themis.sol",
  "compiler": {
    "name": "solc",
    "version": "0.5.16+commit.9c3226ce.Emscripten.clang"
  },
  "schemaVersion": "3.0.23",
  "updatedAt": "2020-06-29T09:11:29.539Z",
  "networkType": "ethereum",
  "devdoc": {
    "methods": {}
  },
  "userdoc": {
    "methods": {}
  }
}