{
  "contractName": "ThemisPolicyContract",
  "abi": [
    {
      "inputs": [],
      "payable": false,
      "stateMutability": "nonpayable",
      "type": "constructor"
    },
    {
      "anonymous": false,
      "inputs": [
        {
          "indexed": false,
          "internalType": "uint256[2]",
          "name": "aggr",
          "type": "uint256[2]"
        }
      ],
      "name": "Aggregate",
      "type": "event"
    },
    {
      "anonymous": false,
      "inputs": [],
      "name": "DoneProof",
      "type": "event"
    },
    {
      "constant": false,
      "inputs": [
        {
          "internalType": "uint256[2][2]",
          "name": "input",
          "type": "uint256[2][2]"
        },
        {
          "internalType": "bytes32",
          "name": "client_id",
          "type": "bytes32"
        }
      ],
      "name": "calculate_aggregate",
      "outputs": [
        {
          "internalType": "uint256[2]",
          "name": "",
          "type": "uint256[2]"
        }
      ],
      "payable": true,
      "stateMutability": "payable",
      "type": "function"
    },
    {
      "constant": false,
      "inputs": [],
      "name": "request_payment",
      "outputs": [
        {
          "internalType": "bool",
          "name": "valid",
          "type": "bool"
        }
      ],
      "payable": true,
      "stateMutability": "payable",
      "type": "function"
    }
  ],
  "bytecode": "0x60806040526040518060400160405280600160ff168152602001600260ff168152506000906002610031929190610044565b5034801561003e57600080fd5b506100ae565b8260028101928215610078579160200282015b82811115610077578251829060ff16905591602001919060010190610057565b5b5090506100859190610089565b5090565b6100ab91905b808211156100a757600081600090555060010161008f565b5090565b90565b61055c806100bd6000396000f3fe6080604052600436106100295760003560e01c8063796f74931461002e5780637f1a22b214610111575b600080fd5b6100d3600480360360a081101561004457600080fd5b810190808060800190600280602002604051908101604052809291906000905b828210156100b8578382604002016002806020026040519081016040528092919082600260200280828437600081840152601f19601f82011690508083019250505050505081526020019060010190610064565b50505050919291929080359060200190929190505050610133565b6040518082600260200280838360005b838110156100fe5780820151818401526020810190506100e3565b5050505090500191505060405180910390f35b6101196101e5565b604051808215151515815260200191505060405180910390f35b61013b61047c565b61014361047c565b61018a846000600280602002604051908101604052809291908260028015610180576020028201915b81548152602001906001019080831161016c575b50505050506101ee565b90506002600084815260200190815260200160002081908060018154018082558091505090600182039060005260206000209060020201600090919290919091509060026101d992919061049e565b50508091505092915050565b60006001905090565b6101f661047c565b6101fe61047c565b61020661047c565b60008090505b60028110156103085761028a604051806060016040528088846002811061022f57fe5b602002015160006002811061024057fe5b6020020151815260200188846002811061025657fe5b602002015160016002811061026757fe5b6020020151815260200187846002811061027d57fe5b6020020151815250610373565b91506102f96040518060800160405280846000600281106102a757fe5b60200201518152602001846001600281106102be57fe5b60200201518152602001856000600281106102d557fe5b60200201518152602001856001600281106102ec57fe5b60200201518152506103e9565b9250808060010191505061020c565b507f798bddc99a3ff2913dc383e7d8f8793396b4c7cd686c09cecb490d2e99ba89b5826040518082600260200280838360005b8381101561035657808201518184015260208101905061033b565b5050505090500191505060405180910390a1819250505092915050565b61037b61047c565b600060408260608560006007600019f19050806103e3576040517f08c379a00000000000000000000000000000000000000000000000000000000081526004018080602001828103825260248152602001806105046024913960400191505060405180910390fd5b50919050565b6103f161047c565b600060408260808560006006600019f1905080610476576040517f08c379a000000000000000000000000000000000000000000000000000000000815260040180806020018281038252601e8152602001807f656c6c6970746963206375727665206164646974696f6e206661696c6564000081525060200191505060405180910390fd5b50919050565b6040518060400160405280600290602082028038833980820191505090505090565b82600281019282156104cd579160200282015b828111156104cc5782518255916020019190600101906104b1565b5b5090506104da91906104de565b5090565b61050091905b808211156104fc5760008160009055506001016104e4565b5090565b9056fe656c6c6970746963206375727665206d756c7469706c69636174696f6e206661696c6564a265627a7a723158208afc62801f437b5f62ea29590f4e41aff80fe291a8d025037eb3f8f3db2433f764736f6c63430005100032",
  "source": "pragma solidity >=0.4.22 <0.6.0;\n\ncontract ThemisPolicyContract {\n  uint constant length_policies = 2;\n  uint256[length_policies] policies = [1, 2];\n  mapping (bytes32 => uint256[2][]) aggregate_storage;\n\n  event Aggregate(uint256[2] aggr);\n  event DoneProof();\n\n  // TODO: define constructor\n  constructor() public {}\n\n\n  // public\n  function calculate_aggregate(\n    uint256[2][length_policies] memory input, \n    bytes32 client_id\n  ) payable public returns (uint256[2] memory) {\n\n    // calculates aggregate\n    uint256[2] memory aggregate = _inner_product(\n      input,\n      policies\n    );\n\n    // stores aggregate in array keyed by client_id\n    aggregate_storage[client_id].push(aggregate);\n\n    return aggregate;\n  }\n\n  function request_payment() payable public returns (bool valid) {\n    return true;\n  }\n\n  // private\n  function _inner_product(uint256[2][length_policies] memory ciphertext_vector, uint256[length_policies] memory scalar_vector) private returns (uint256[2] memory) {\n      uint256[2] memory aggregate;\n      uint256[2] memory resultMult;\n\n      for (uint i = 0; i < length_policies; i++) {\n        resultMult = _bn128_multiply([\n          ciphertext_vector[i][0],\n          ciphertext_vector[i][1], \n          scalar_vector[i]\n        ]);  \n\n        aggregate = _bn128_add([resultMult[0], resultMult[1], aggregate[0], aggregate[1]]);\n        }\n\n      emit Aggregate(aggregate);\n      return aggregate;\n    }\n\n    function _bn128_add(uint256[4] memory input) private returns (uint256[2] memory result) {\n        bool success;\n        assembly {\n            success := call(not(0), 0x06, 0, input, 128, result, 64)\n        }\n        require(success, \"elliptic curve addition failed\");\n    }\n  \n    function _bn128_multiply(uint256[3] memory input)\n    private returns (uint256[2] memory result) {\n        bool success;\n        assembly {\n            success := call(not(0), 0x07, 0, input, 96, result, 64)\n        }\n        require(success, \"elliptic curve multiplication failed\");\n    }\n}\n",
  "sourcePath": "/Users/gpestana/brave/decentralized-bat-net-experiments/themis/contracts/Themis.sol",
  "compiler": {
    "name": "solc",
    "version": "0.5.16+commit.9c3226ce.Emscripten.clang"
  },
  "schemaVersion": "3.0.23",
  "updatedAt": "2020-04-01T15:56:45.382Z",
  "devdoc": {
    "methods": {}
  },
  "userdoc": {
    "methods": {}
  }
}