{
  "contractName": "ThemisPolicyContract",
  "abi": [
    {
      "inputs": [],
      "payable": false,
      "stateMutability": "nonpayable",
      "type": "constructor"
    },
    {
      "anonymous": false,
      "inputs": [
        {
          "indexed": false,
          "internalType": "uint256[4]",
          "name": "aggr",
          "type": "uint256[4]"
        }
      ],
      "name": "Aggregate",
      "type": "event"
    },
    {
      "anonymous": false,
      "inputs": [],
      "name": "DoneProof",
      "type": "event"
    },
    {
      "constant": false,
      "inputs": [
        {
          "internalType": "uint256[2][3]",
          "name": "input",
          "type": "uint256[2][3]"
        }
      ],
      "name": "add_points_and_check",
      "outputs": [
        {
          "internalType": "uint256[2]",
          "name": "",
          "type": "uint256[2]"
        }
      ],
      "payable": true,
      "stateMutability": "payable",
      "type": "function"
    },
    {
      "constant": false,
      "inputs": [
        {
          "internalType": "uint256[4][2]",
          "name": "input",
          "type": "uint256[4][2]"
        },
        {
          "internalType": "bytes32",
          "name": "client_id",
          "type": "bytes32"
        }
      ],
      "name": "calculate_aggregate",
      "outputs": [
        {
          "internalType": "uint256[4]",
          "name": "",
          "type": "uint256[4]"
        }
      ],
      "payable": true,
      "stateMutability": "payable",
      "type": "function"
    },
    {
      "constant": true,
      "inputs": [
        {
          "internalType": "bytes32",
          "name": "client_id",
          "type": "bytes32"
        }
      ],
      "name": "fetch_encrypted_aggregate",
      "outputs": [
        {
          "internalType": "uint256",
          "name": "",
          "type": "uint256"
        },
        {
          "internalType": "uint256",
          "name": "",
          "type": "uint256"
        },
        {
          "internalType": "uint256",
          "name": "",
          "type": "uint256"
        },
        {
          "internalType": "uint256",
          "name": "",
          "type": "uint256"
        }
      ],
      "payable": false,
      "stateMutability": "view",
      "type": "function"
    },
    {
      "constant": false,
      "inputs": [
        {
          "internalType": "uint256[4]",
          "name": "encrypted_aggregate",
          "type": "uint256[4]"
        },
        {
          "internalType": "uint256[2]",
          "name": "decrypted_aggregate",
          "type": "uint256[2]"
        },
        {
          "internalType": "uint256[2]",
          "name": "proof_correct_decryption",
          "type": "uint256[2]"
        },
        {
          "internalType": "bytes32",
          "name": "client_id",
          "type": "bytes32"
        }
      ],
      "name": "request_payment",
      "outputs": [
        {
          "internalType": "bool",
          "name": "valid",
          "type": "bool"
        }
      ],
      "payable": true,
      "stateMutability": "payable",
      "type": "function"
    }
  ],
  "bytecode": "0x60806040526040518060400160405280600160ff168152602001600260ff168152506000906002610031929190610044565b5034801561003e57600080fd5b506100ae565b8260028101928215610078579160200282015b82811115610077578251829060ff16905591602001919060010190610057565b5b5090506100859190610089565b5090565b6100ab91905b808211156100a757600081600090555060010161008f565b5090565b90565b610dc8806100bd6000396000f3fe60806040526004361061003f5760003560e01c8063069be402146100445780630b71d25a146101295780636ceac60814610202578063a5f1c2bd1461030c575b600080fd5b6100eb600480360361012081101561005b57600080fd5b81019080806101000190600280602002604051908101604052809291906000905b828210156100d0578382608002016004806020026040519081016040528092919082600460200280828437600081840152601f19601f8201169050808301925050505050508152602001906001019061007c565b50505050919291929080359060200190929190505050610370565b6040518082600460200280838360005b838110156101165780820151818401526020810190506100fb565b5050505090500191505060405180910390f35b6101c4600480360360c081101561013f57600080fd5b810190808060c00190600380602002604051908101604052809291906000905b828210156101b3578382604002016002806020026040519081016040528092919082600260200280828437600081840152601f19601f8201169050808301925050505050508152602001906001019061015f565b505050509192919290505050610482565b6040518082600260200280838360005b838110156101ef5780820151818401526020810190506101d4565b5050505090500191505060405180910390f35b6102f2600480360361012081101561021957600080fd5b8101908080608001906004806020026040519081016040528092919082600460200280828437600081840152601f19601f820116905080830192505050505050919291929080604001906002806020026040519081016040528092919082600260200280828437600081840152601f19601f820116905080830192505050505050919291929080604001906002806020026040519081016040528092919082600260200280828437600081840152601f19601f82011690508083019250505050505091929192908035906020019092919050505061068c565b604051808215151515815260200191505060405180910390f35b34801561031857600080fd5b506103456004803603602081101561032f57600080fd5b8101908080359060200190929190505050610777565b6040518085815260200184815260200183815260200182815260200194505050505060405180910390f35b610378610bde565b610380610bde565b6103c78460006002806020026040519081016040528092919082600280156103bd576020028201915b8154815260200190600101908083116103a9575b50505050506107e8565b90506103d1610c00565b6040518060800160405280836000600481106103e957fe5b602002015181526020018360016004811061040057fe5b602002015181526020018360026004811061041757fe5b602002015181526020018360036004811061042e57fe5b60200201518152509050806003600086815260200190815260200160002060008201518160000155602082015181600101556040820151816002015560608201518160030155905050819250505092915050565b61048a610c28565b610492610c28565b6105436040518060800160405280856000600381106104ad57fe5b60200201516000600281106104be57fe5b60200201518152602001856000600381106104d557fe5b60200201516001600281106104e657fe5b60200201518152602001856001600381106104fd57fe5b602002015160006002811061050e57fe5b602002015181526020018560016003811061052557fe5b602002015160016002811061053657fe5b6020020151815250610ad5565b90508260026003811061055257fe5b602002015160006002811061056357fe5b60200201518160006002811061057557fe5b60200201511480156105b957508260026003811061058f57fe5b60200201516001600281106105a057fe5b6020020151816001600281106105b257fe5b6020020151145b61062b576040517f08c379a000000000000000000000000000000000000000000000000000000000815260040180806020018281038252600f8152602001807f657175616c697479206661696c6564000000000000000000000000000000000081525060200191505060405180910390fd5b60405180604001604052808460006003811061064357fe5b602002015160006002811061065457fe5b602002015181526020018460006003811061066b57fe5b602002015160016002811061067c57fe5b6020020151815250915050919050565b6000806001905061069b610c4a565b60405180608001604052808881526020018781526020018681526020018315158152509050600260008581526020019081526020016000208190806001815401808255809150509060018203906000526020600020906009020160009091929091909150600082015181600001906004610716929190610c86565b5060208201518160040190600261072e929190610cc6565b50604082015181600601906002610746929190610cc6565b5060608201518160080160006101000a81548160ff0219169083151502179055505050508192505050949350505050565b600080600080600360008681526020019081526020016000206000015460036000878152602001908152602001600020600101546003600088815260200190815260200160002060020154600360008981526020019081526020016000206003015493509350935093509193509193565b6107f0610bde565b6107f8610c28565b610800610c28565b610808610c28565b610810610c28565b60008090505b60028110156109f85761089460405180606001604052808a846002811061083957fe5b602002015160006004811061084a57fe5b602002015181526020018a846002811061086057fe5b602002015160016004811061087157fe5b6020020151815260200189846002811061088757fe5b6020020151815250610b68565b925061090b60405180606001604052808a84600281106108b057fe5b60200201516002600481106108c157fe5b602002015181526020018a84600281106108d757fe5b60200201516003600481106108e857fe5b602002015181526020018984600281106108fe57fe5b6020020151815250610b68565b915061097a60405180608001604052808560006002811061092857fe5b602002015181526020018560016002811061093f57fe5b602002015181526020018760006002811061095657fe5b602002015181526020018760016002811061096d57fe5b6020020151815250610ad5565b94506109e960405180608001604052808460006002811061099757fe5b60200201518152602001846001600281106109ae57fe5b60200201518152602001866000600281106109c557fe5b60200201518152602001866001600281106109dc57fe5b6020020151815250610ad5565b93508080600101915050610816565b50610a01610bde565b604051806080016040528086600060028110610a1957fe5b6020020151815260200186600160028110610a3057fe5b6020020151815260200185600060028110610a4757fe5b6020020151815260200185600160028110610a5e57fe5b602002015181525090507f2214d5f796a5030b1f93bdad19cf57561590f164f5e74396c5981f6e99b4d601816040518082600460200280838360005b83811015610ab5578082015181840152602081019050610a9a565b5050505090500191505060405180910390a1809550505050505092915050565b610add610c28565b600060408260808560006006600019f1905080610b62576040517f08c379a000000000000000000000000000000000000000000000000000000000815260040180806020018281038252601e8152602001807f656c6c6970746963206375727665206164646974696f6e206661696c6564000081525060200191505060405180910390fd5b50919050565b610b70610c28565b600060408260608560006007600019f1905080610bd8576040517f08c379a0000000000000000000000000000000000000000000000000000000008152600401808060200182810382526024815260200180610d706024913960400191505060405180910390fd5b50919050565b6040518060800160405280600490602082028038833980820191505090505090565b6040518060800160405280600081526020016000815260200160008152602001600081525090565b6040518060400160405280600290602082028038833980820191505090505090565b6040518060800160405280610c5d610d06565b8152602001610c6a610d28565b8152602001610c77610d28565b81526020016000151581525090565b8260048101928215610cb5579160200282015b82811115610cb4578251825591602001919060010190610c99565b5b509050610cc29190610d4a565b5090565b8260028101928215610cf5579160200282015b82811115610cf4578251825591602001919060010190610cd9565b5b509050610d029190610d4a565b5090565b6040518060800160405280600490602082028038833980820191505090505090565b6040518060400160405280600290602082028038833980820191505090505090565b610d6c91905b80821115610d68576000816000905550600101610d50565b5090565b9056fe656c6c6970746963206375727665206d756c7469706c69636174696f6e206661696c6564a265627a7a723158204c9765e9012b6f302395dca9f69fc221e6e515cab95340e9fc5d4bcbb05979e364736f6c63430005100032",
  "source": "//pragma solidity >=0.4.22 <0.6.0;\npragma solidity >=0.4.22 <0.7.0;\n\n\ncontract ThemisPolicyContract {\n  uint constant length_policies = 2;\n  uint256[length_policies] policies = [1, 2];\n\n  struct EncryptedAggregate {\n    uint256 x0;\n    uint256 x1;\n    uint256 y0;\n    uint256 y1;\n  }\n\n  struct PaymentRequests {\n    uint256[4] encrypted_aggregate;\n    uint256[2] decrypted_aggregate;\n    uint256[2] proof_correct_decryption;\n    bool valid;\n  }\n\n  // public storage\n  mapping (bytes32 => PaymentRequests[]) payment_requests;\n  mapping (bytes32 => EncryptedAggregate) aggregate_storage;\n\n  event Aggregate(uint256[4] aggr);\n  event DoneProof();\n\n  // TODO: define constructor\n  constructor() public {}\n\n  // public \n  function add_points_and_check(\n    uint256[2][3] memory input\n  ) payable public returns (uint256[2] memory) {\n    uint256[2] memory addition = _bn128_add([input[0][0], input[0][1], input[1][0], input[1][1]]);\n\n    require(addition[0] == input[2][0] && addition[1] == input[2][1], \"equality failed\");\n    \n    return [input[0][0], input[0][1]];\n\n  }\n  // public\n  function calculate_aggregate(\n    uint256[4][length_policies] memory input, \n    bytes32 client_id\n  ) payable public returns (uint256[4] memory) {\n\n    // calculates aggregate\n    uint256[4] memory aggregate = _inner_product(\n      input,\n      policies\n    );\n\n    // stores aggregate in array keyed by client_id && return aggregate to caller\n    EncryptedAggregate memory enc_aggr = EncryptedAggregate({ \n      x0: aggregate[0], \n      x1: aggregate[1], \n      y0: aggregate[2], \n      y1: aggregate[3]\n    });\n    aggregate_storage[client_id] = enc_aggr;\n\n    return aggregate;\n  }\n\n  function fetch_encrypted_aggregate(bytes32 client_id) public view returns (uint256, uint256, uint256, uint256) {\n      return  (aggregate_storage[client_id].x0, aggregate_storage[client_id].x1, aggregate_storage[client_id].y0, aggregate_storage[client_id].y1);\n  }\n\n  function request_payment(\n    uint256[4] memory encrypted_aggregate,\n    uint256[2] memory decrypted_aggregate,\n    uint256[2] memory proof_correct_decryption,\n    bytes32 client_id\n  ) payable public returns (bool valid) {\n    // TODO: implement proof verification\n\n    bool proof_is_valid = true;\n\n    PaymentRequests memory payment_request = PaymentRequests(\n      encrypted_aggregate,\n      decrypted_aggregate,\n      proof_correct_decryption,\n      proof_is_valid);    \n\n    payment_requests[client_id].push(payment_request);\n\n    return proof_is_valid;\n  }\n\n  // private\n  function _inner_product(uint256[4][length_policies] memory ciphertext_vector, uint256[length_policies] memory scalar_vector) private returns (uint256[4] memory) {\n      uint256[2] memory aggregate_1;\n      uint256[2] memory aggregate_2;\n      uint256[2] memory resultMult_1;\n      uint256[2] memory resultMult_2;\n\n      for (uint i = 0; i < length_policies; i++) {\n        resultMult_1 = _bn128_multiply([\n          ciphertext_vector[i][0],\n          ciphertext_vector[i][1], \n          scalar_vector[i]\n        ]);  \n\n        resultMult_2 = _bn128_multiply([\n          ciphertext_vector[i][2], \n          ciphertext_vector[i][3],\n          scalar_vector[i]\n        ]);\n\n        aggregate_1 = _bn128_add([resultMult_1[0], resultMult_1[1], aggregate_1[0], aggregate_1[1]]);\n        aggregate_2 = _bn128_add([resultMult_2[0], resultMult_2[1], aggregate_2[0], aggregate_2[1]]);\n        }\n\n      uint256[4] memory aggregate = [aggregate_1[0], aggregate_1[1], aggregate_2[0], aggregate_2[1]];\n      emit Aggregate(aggregate);\n      return aggregate;\n    }\n\n    function _bn128_add(uint256[4] memory input) private returns (uint256[2] memory result) {\n        bool success;\n        assembly {\n            success := call(not(0), 0x06, 0, input, 128, result, 64)\n        }\n        require(success, \"elliptic curve addition failed\");\n    }\n  \n    function _bn128_multiply(uint256[3] memory input)\n    private returns (uint256[2] memory result) {\n        bool success;\n        assembly {\n            success := call(not(0), 0x07, 0, input, 96, result, 64)\n        }\n        require(success, \"elliptic curve multiplication failed\");\n    }\n}\n",
  "sourcePath": "/Users/gpestana/brave/decentralized-bat-net-experiments/themis/contracts/Themis.sol",
  "compiler": {
    "name": "solc",
    "version": "0.5.16+commit.9c3226ce.Emscripten.clang"
  },
  "schemaVersion": "3.0.23",
  "updatedAt": "2020-04-27T22:33:37.227Z",
  "networkType": "ethereum",
  "devdoc": {
    "methods": {}
  },
  "userdoc": {
    "methods": {}
  }
}