{
  "contractName": "ThemisPolicyContract2",
  "abi": [
    {
      "inputs": [],
      "payable": false,
      "stateMutability": "nonpayable",
      "type": "constructor"
    },
    {
      "anonymous": false,
      "inputs": [
        {
          "indexed": false,
          "internalType": "uint256[4]",
          "name": "aggr",
          "type": "uint256[4]"
        }
      ],
      "name": "Aggregate",
      "type": "event"
    },
    {
      "anonymous": false,
      "inputs": [],
      "name": "DoneProof",
      "type": "event"
    },
    {
      "anonymous": false,
      "inputs": [
        {
          "indexed": false,
          "internalType": "bytes32",
          "name": "hashed",
          "type": "bytes32"
        }
      ],
      "name": "Hash",
      "type": "event"
    },
    {
      "anonymous": false,
      "inputs": [
        {
          "indexed": false,
          "internalType": "uint256[4]",
          "name": "input",
          "type": "uint256[4]"
        }
      ],
      "name": "Input",
      "type": "event"
    },
    {
      "anonymous": false,
      "inputs": [
        {
          "indexed": false,
          "internalType": "uint256",
          "name": "int_hashed",
          "type": "uint256"
        }
      ],
      "name": "IntegerHash",
      "type": "event"
    },
    {
      "constant": false,
      "inputs": [
        {
          "internalType": "uint256[2][3]",
          "name": "input",
          "type": "uint256[2][3]"
        }
      ],
      "name": "add_points_and_check",
      "outputs": [
        {
          "internalType": "uint256[2]",
          "name": "",
          "type": "uint256[2]"
        }
      ],
      "payable": true,
      "stateMutability": "payable",
      "type": "function"
    },
    {
      "constant": false,
      "inputs": [
        {
          "internalType": "uint256[7]",
          "name": "input",
          "type": "uint256[7]"
        },
        {
          "internalType": "bytes32",
          "name": "client_id",
          "type": "bytes32"
        }
      ],
      "name": "submit_proof_decryption",
      "outputs": [
        {
          "internalType": "bool",
          "name": "",
          "type": "bool"
        }
      ],
      "payable": true,
      "stateMutability": "payable",
      "type": "function"
    },
    {
      "constant": false,
      "inputs": [
        {
          "internalType": "uint256[4]",
          "name": "ciphertext",
          "type": "uint256[4]"
        },
        {
          "internalType": "uint256[2]",
          "name": "plaintext",
          "type": "uint256[2]"
        },
        {
          "internalType": "uint256[2]",
          "name": "public_key",
          "type": "uint256[2]"
        },
        {
          "internalType": "uint256[2]",
          "name": "announcement_g",
          "type": "uint256[2]"
        },
        {
          "internalType": "uint256[2]",
          "name": "announcement_ctx",
          "type": "uint256[2]"
        },
        {
          "internalType": "uint256",
          "name": "response",
          "type": "uint256"
        }
      ],
      "name": "check_proof",
      "outputs": [
        {
          "internalType": "bool",
          "name": "",
          "type": "bool"
        }
      ],
      "payable": true,
      "stateMutability": "payable",
      "type": "function"
    },
    {
      "constant": false,
      "inputs": [
        {
          "internalType": "uint256[4][2]",
          "name": "input",
          "type": "uint256[4][2]"
        },
        {
          "internalType": "uint256[2]",
          "name": "public_key",
          "type": "uint256[2]"
        },
        {
          "internalType": "bytes32",
          "name": "client_id",
          "type": "bytes32"
        }
      ],
      "name": "calculate_aggregate",
      "outputs": [
        {
          "internalType": "bool",
          "name": "",
          "type": "bool"
        }
      ],
      "payable": true,
      "stateMutability": "payable",
      "type": "function"
    },
    {
      "constant": true,
      "inputs": [
        {
          "internalType": "bytes32",
          "name": "client_id",
          "type": "bytes32"
        }
      ],
      "name": "fetch_encrypted_aggregate_array",
      "outputs": [
        {
          "internalType": "uint256[4]",
          "name": "",
          "type": "uint256[4]"
        }
      ],
      "payable": false,
      "stateMutability": "view",
      "type": "function"
    },
    {
      "constant": true,
      "inputs": [
        {
          "internalType": "bytes32",
          "name": "client_id",
          "type": "bytes32"
        }
      ],
      "name": "fetch_encrypted_aggregate",
      "outputs": [
        {
          "internalType": "uint256",
          "name": "",
          "type": "uint256"
        },
        {
          "internalType": "uint256",
          "name": "",
          "type": "uint256"
        },
        {
          "internalType": "uint256",
          "name": "",
          "type": "uint256"
        },
        {
          "internalType": "uint256",
          "name": "",
          "type": "uint256"
        }
      ],
      "payable": false,
      "stateMutability": "view",
      "type": "function"
    },
    {
      "constant": true,
      "inputs": [
        {
          "internalType": "bytes32",
          "name": "client_id",
          "type": "bytes32"
        }
      ],
      "name": "fetch_public_key",
      "outputs": [
        {
          "internalType": "uint256[2]",
          "name": "",
          "type": "uint256[2]"
        }
      ],
      "payable": false,
      "stateMutability": "view",
      "type": "function"
    },
    {
      "constant": true,
      "inputs": [
        {
          "internalType": "bytes32",
          "name": "client_id",
          "type": "bytes32"
        }
      ],
      "name": "fetch_proof_verification",
      "outputs": [
        {
          "internalType": "bool",
          "name": "",
          "type": "bool"
        }
      ],
      "payable": false,
      "stateMutability": "view",
      "type": "function"
    },
    {
      "constant": false,
      "inputs": [
        {
          "internalType": "uint256[4]",
          "name": "encrypted_aggregate",
          "type": "uint256[4]"
        },
        {
          "internalType": "uint256[2]",
          "name": "decrypted_aggregate",
          "type": "uint256[2]"
        },
        {
          "internalType": "uint256[2]",
          "name": "proof_correct_decryption",
          "type": "uint256[2]"
        },
        {
          "internalType": "bytes32",
          "name": "client_id",
          "type": "bytes32"
        }
      ],
      "name": "request_payment",
      "outputs": [
        {
          "internalType": "bool",
          "name": "valid",
          "type": "bool"
        }
      ],
      "payable": true,
      "stateMutability": "payable",
      "type": "function"
    }
  ],
  "bytecode": "0x6080604052604051806040016040528060018152602001600281525060009060026200002d92919062000042565b503480156200003b57600080fd5b50620000af565b826002810192821562000074579160200282015b828111156200007357825182559160200191906001019062000056565b5b50905062000083919062000087565b5090565b620000ac91905b80821115620000a85760008160009055506001016200008e565b5090565b90565b611bc680620000bf6000396000f3fe6080604052600436106100865760003560e01c8063952270e411610059578063952270e4146104fc5780639bea124b14610584578063a5f1c2bd146105fb578063aba997441461065f578063f35973c6146106b257610086565b80630b71d25a1461008b57806321c33d6514610164578063448e538f146102665780636ceac608146103f2575b600080fd5b610126600480360360c08110156100a157600080fd5b810190808060c00190600380602002604051908101604052809291906000905b82821015610115578382604002016002806020026040519081016040528092919082600260200280828437600081840152601f19601f820116905080830192505050505050815260200190600101906100c1565b505050509192919290505050610729565b6040518082600260200280838360005b83811015610151578082015181840152602081019050610136565b5050505090500191505060405180910390f35b61024c600480360361016081101561017b57600080fd5b81019080806101000190600280602002604051908101604052809291906000905b828210156101f0578382608002016004806020026040519081016040528092919082600460200280828437600081840152601f19601f8201169050808301925050505050508152602001906001019061019c565b50505050919291929080604001906002806020026040519081016040528092919082600260200280828437600081840152601f19601f820116905080830192505050505050919291929080359060200190929190505050610933565b604051808215151515815260200191505060405180910390f35b6103d860048036036101a081101561027d57600080fd5b8101908080608001906004806020026040519081016040528092919082600460200280828437600081840152601f19601f820116905080830192505050505050919291929080604001906002806020026040519081016040528092919082600260200280828437600081840152601f19601f820116905080830192505050505050919291929080604001906002806020026040519081016040528092919082600260200280828437600081840152601f19601f820116905080830192505050505050919291929080604001906002806020026040519081016040528092919082600260200280828437600081840152601f19601f820116905080830192505050505050919291929080604001906002806020026040519081016040528092919082600260200280828437600081840152601f19601f820116905080830192505050505050919291929080359060200190929190505050610b3f565b604051808215151515815260200191505060405180910390f35b6104e2600480360361012081101561040957600080fd5b8101908080608001906004806020026040519081016040528092919082600460200280828437600081840152601f19601f820116905080830192505050505050919291929080604001906002806020026040519081016040528092919082600260200280828437600081840152601f19601f820116905080830192505050505050919291929080604001906002806020026040519081016040528092919082600260200280828437600081840152601f19601f820116905080830192505050505050919291929080359060200190929190505050610cdc565b604051808215151515815260200191505060405180910390f35b61056a600480360361010081101561051357600080fd5b810190808060e001906007806020026040519081016040528092919082600760200280828437600081840152601f19601f820116905080830192505050505050919291929080359060200190929190505050610dc7565b604051808215151515815260200191505060405180910390f35b34801561059057600080fd5b506105bd600480360360208110156105a757600080fd5b8101908080359060200190929190505050610f16565b6040518082600460200280838360005b838110156105e85780820151818401526020810190506105cd565b5050505090500191505060405180910390f35b34801561060757600080fd5b506106346004803603602081101561061e57600080fd5b8101908080359060200190929190505050610f9e565b6040518085815260200184815260200183815260200182815260200194505050505060405180910390f35b34801561066b57600080fd5b506106986004803603602081101561068257600080fd5b810190808035906020019092919050505061100f565b604051808215151515815260200191505060405180910390f35b3480156106be57600080fd5b506106eb600480360360208110156106d557600080fd5b8101908080359060200190929190505050611039565b6040518082600260200280838360005b838110156107165780820151818401526020810190506106fb565b5050505090500191505060405180910390f35b610731611975565b610739611975565b6107ea60405180608001604052808560006003811061075457fe5b602002015160006002811061076557fe5b602002015181526020018560006003811061077c57fe5b602002015160016002811061078d57fe5b60200201518152602001856001600381106107a457fe5b60200201516000600281106107b557fe5b60200201518152602001856001600381106107cc57fe5b60200201516001600281106107dd57fe5b602002015181525061109a565b9050826002600381106107f957fe5b602002015160006002811061080a57fe5b60200201518160006002811061081c57fe5b602002015114801561086057508260026003811061083657fe5b602002015160016002811061084757fe5b60200201518160016002811061085957fe5b6020020151145b6108d2576040517f08c379a000000000000000000000000000000000000000000000000000000000815260040180806020018281038252600f8152602001807f657175616c697479206661696c6564000000000000000000000000000000000081525060200191505060405180910390fd5b6040518060400160405280846000600381106108ea57fe5b60200201516000600281106108fb57fe5b602002015181526020018460006003811061091257fe5b602002015160016002811061092357fe5b6020020151815250915050919050565b60007fb8aeb9134ec47f3964c01c8a2ad29f486edb1d88d5a9f4324d0c560c749d04248460006002811061096357fe5b60200201516040518082600460200280838360005b83811015610993578082015181840152602081019050610978565b5050505090500191505060405180910390a17fb8aeb9134ec47f3964c01c8a2ad29f486edb1d88d5a9f4324d0c560c749d0424846001600281106109d357fe5b60200201516040518082600460200280838360005b83811015610a035780820151818401526020810190506109e8565b5050505090500191505060405180910390a1610a1d611997565b610a64856000600280602002604051908101604052809291908260028015610a5a576020028201915b815481526020019060010190808311610a46575b505050505061112d565b9050610a6e6119b9565b6040518060a0016040528083600060048110610a8657fe5b6020020151815260200183600160048110610a9d57fe5b6020020151815260200183600260048110610ab457fe5b6020020151815260200183600360048110610acb57fe5b60200201518152602001868152509050806003600086815260200190815260200160002060008201518160000155602082015181600101556040820151816002015560608201518160030155608082015181600401906002610b2e9291906119ee565b509050506001925050509392505050565b6000808688868660405180604001604052806001815260200160028152508a6040516020018087600260200280838360005b83811015610b8c578082015181840152602081019050610b71565b5050505090500186600460200280838360005b83811015610bba578082015181840152602081019050610b9f565b5050505090500185600260200280838360005b83811015610be8578082015181840152602081019050610bcd565b5050505090500184600260200280838360005b83811015610c16578082015181840152602081019050610bfb565b5050505090500183600260200280838360005b83811015610c44578082015181840152602081019050610c29565b5050505090500182600260200280838360005b83811015610c72578082015181840152602081019050610c57565b50505050905001965050505050505060405160208183030381529060405280519060200120905060008160001c90506000610caf8888848861147e565b90506000610cc08b8b89868a61162a565b9050818015610ccc5750805b9450505050509695505050505050565b60008060019050610ceb611a2e565b60405180608001604052808881526020018781526020018681526020018315158152509050600260008581526020019081526020016000208190806001815401808255809150509060018203906000526020600020906009020160009091929091909150600082015181600001906004610d66929190611a6a565b50602082015181600401906002610d7e9291906119ee565b50604082015181600601906002610d969291906119ee565b5060608201518160080160006101000a81548160ff0219169083151502179055505050508192505050949350505050565b6000610dd1611997565b610dda83610f16565b9050610de4611975565b610ded84611039565b9050610df7611975565b604051806040016040528087600060078110610e0f57fe5b6020020151815260200187600160078110610e2657fe5b60200201518152509050610e38611975565b604051806040016040528088600260078110610e5057fe5b6020020151815260200188600360078110610e6757fe5b60200201518152509050610e79611975565b604051806040016040528089600460078110610e9157fe5b6020020151815260200189600560078110610ea857fe5b60200201518152509050600088600660078110610ec157fe5b602002015190506000610ed8878688878787610b3f565b905080600460008b815260200190815260200160002060006101000a81548160ff021916908315150217905550600197505050505050505092915050565b610f1e611997565b604051806080016040528060036000858152602001908152602001600020600001548152602001600360008581526020019081526020016000206001015481526020016003600085815260200190815260200160002060020154815260200160036000858152602001908152602001600020600301548152509050919050565b600080600080600360008681526020019081526020016000206000015460036000878152602001908152602001600020600101546003600088815260200190815260200160002060020154600360008981526020019081526020016000206003015493509350935093509193509193565b60006004600083815260200190815260200160002060009054906101000a900460ff169050919050565b611041611975565b6003600083815260200190815260200160002060040160028060200260405190810160405280929190826002801561108e576020028201915b81548152602001906001019080831161107a575b50505050509050919050565b6110a2611975565b600060408260808560006006600019f1905080611127576040517f08c379a000000000000000000000000000000000000000000000000000000000815260040180806020018281038252601e8152602001807f656c6c6970746963206375727665206164646974696f6e206661696c6564000081525060200191505060405180910390fd5b50919050565b611135611997565b61113d611975565b6040518060400160405280600081526020016000815250905061115e611975565b6040518060400160405280600081526020016000815250905061117f611975565b604051806040016040528060018152602001600181525090506111a0611975565b6040518060400160405280600181526020016001815250905060008090505b60028110156113a15761123d60405180606001604052808a84600281106111e257fe5b60200201516000600481106111f357fe5b602002015181526020018a846002811061120957fe5b602002015160016004811061121a57fe5b6020020151815260200189846002811061123057fe5b60200201518152506118ff565b92506112b460405180606001604052808a846002811061125957fe5b602002015160026004811061126a57fe5b602002015181526020018a846002811061128057fe5b602002015160036004811061129157fe5b602002015181526020018984600281106112a757fe5b60200201518152506118ff565b91506113236040518060800160405280856000600281106112d157fe5b60200201518152602001856001600281106112e857fe5b60200201518152602001876000600281106112ff57fe5b602002015181526020018760016002811061131657fe5b602002015181525061109a565b945061139260405180608001604052808460006002811061134057fe5b602002015181526020018460016002811061135757fe5b602002015181526020018660006002811061136e57fe5b602002015181526020018660016002811061138557fe5b602002015181525061109a565b935080806001019150506111bf565b506113aa611997565b6040518060800160405280866000600281106113c257fe5b60200201518152602001866001600281106113d957fe5b60200201518152602001856000600281106113f057fe5b602002015181526020018560016002811061140757fe5b602002015181525090507f2214d5f796a5030b1f93bdad19cf57561590f164f5e74396c5981f6e99b4d601816040518082600460200280838360005b8381101561145e578082015181840152602081019050611443565b5050505090500191505060405180910390a1809550505050505092915050565b6000611488611aaa565b6040518060400160405280876000600281106114a057fe5b60200201518152602001876001600281106114b757fe5b602002015181525090506114c9611aaa565b604051806040016040528060018152602001600281525090506114ea611975565b61151560405180606001604052808460000151815260200184602001518152602001878152506118ff565b905061151f611975565b61154a60405180606001604052808660000151815260200186602001518152602001898152506118ff565b9050611554611975565b6115c160405180608001604052808b60006002811061156f57fe5b602002015181526020018b60016002811061158657fe5b602002015181526020018460006002811061159d57fe5b60200201518152602001846001600281106115b457fe5b602002015181525061109a565b90506000816000600281106115d257fe5b6020020151846000600281106115e457fe5b60200201511480156116175750816001600281106115fe57fe5b60200201518460016002811061161057fe5b6020020151145b9050809650505050505050949350505050565b6000611634611ac4565b604051806040016040528060405180604001604052808a60006004811061165757fe5b602002015181526020018a60016004811061166e57fe5b6020020151815250815260200160405180604001604052808a60026004811061169357fe5b602002015181526020018a6003600481106116aa57fe5b602002015181525081525090506116bf611aaa565b6040518060400160405280886000600281106116d757fe5b60200201518152602001886001600281106116ee57fe5b60200201518152509050611700611975565b611733604051806060016040528085600001516000015181526020018560000151602001518152602001878152506118ff565b905061173d611975565b61176860405180606001604052808560000151815260200185602001518152602001898152506118ff565b9050611772611975565b6117df60405180608001604052808560006002811061178d57fe5b60200201518152602001856001600281106117a457fe5b60200201518152602001846000600281106117bb57fe5b60200201518152602001846001600281106117d257fe5b602002015181525061109a565b90506117e9611975565b61181c6040518060600160405280886020015160000151815260200188602001516020015181526020018b8152506118ff565b9050611826611975565b61189360405180608001604052808d60006002811061184157fe5b602002015181526020018d60016002811061185857fe5b602002015181526020018460006002811061186f57fe5b602002015181526020018460016002811061188657fe5b602002015181525061109a565b90506000816000600281106118a457fe5b6020020151846000600281106118b657fe5b60200201511480156118e95750816001600281106118d057fe5b6020020151846001600281106118e257fe5b6020020151145b9050809850505050505050505095945050505050565b611907611975565b600060408260608560006007600019f190508061196f576040517f08c379a0000000000000000000000000000000000000000000000000000000008152600401808060200182810382526024815260200180611b6e6024913960400191505060405180910390fd5b50919050565b6040518060400160405280600290602082028038833980820191505090505090565b6040518060800160405280600490602082028038833980820191505090505090565b6040518060a00160405280600081526020016000815260200160008152602001600081526020016119e8611aea565b81525090565b8260028101928215611a1d579160200282015b82811115611a1c578251825591602001919060010190611a01565b5b509050611a2a9190611b0c565b5090565b6040518060800160405280611a41611b31565b8152602001611a4e611aea565b8152602001611a5b611aea565b81526020016000151581525090565b8260048101928215611a99579160200282015b82811115611a98578251825591602001919060010190611a7d565b5b509050611aa69190611b0c565b5090565b604051806040016040528060008152602001600081525090565b6040518060400160405280611ad7611b53565b8152602001611ae4611b53565b81525090565b6040518060400160405280600290602082028038833980820191505090505090565b611b2e91905b80821115611b2a576000816000905550600101611b12565b5090565b90565b6040518060800160405280600490602082028038833980820191505090505090565b60405180604001604052806000815260200160008152509056fe656c6c6970746963206375727665206d756c7469706c69636174696f6e206661696c6564a265627a7a72315820007a6d6e1b3e26bfa95a03f8edfa14b5c3edf9250a78227cd577232f7285055764736f6c63430005100032",
  "source": "//pragma solidity >=0.4.22 <0.6.0;\npragma solidity >=0.4.22 <0.7.0;\n\ncontract ThemisPolicyContract2 {\n\n  uint constant length_policies = 2;\n  uint256[length_policies] policies = [uint256(1), uint256(2)];\n\n  struct EncryptedAggregate {\n    uint256 x0;\n    uint256 x1;\n    uint256 y0;\n    uint256 y1;\n    uint256[2] public_key;\n  }\n\n  struct PaymentRequests {\n    uint256[4] encrypted_aggregate;\n    uint256[2] decrypted_aggregate;\n    uint256[2] proof_correct_decryption;\n    bool valid;\n  }\n    \n    struct EcPoint{\n        uint256 x_coord; \n        uint256 y_coord;\n    }\n    \n    struct Ciphertext{\n        EcPoint point1; \n        EcPoint point2;\n    }\n\n  // public storage\n  mapping (bytes32 => PaymentRequests[]) payment_requests;\n  mapping (bytes32 => EncryptedAggregate) aggregate_storage;\n  mapping (bytes32 => bool) proof_verification_storage;\n\n  event Hash(bytes32 hashed);\n  event IntegerHash(uint256 int_hashed);\n  event Input(uint256[4] input);\n  event Aggregate(uint256[4] aggr);\n  event DoneProof();\n\n  // TODO: define constructor\n  constructor() public {}\n\n  // TODO: only for checking\n  function add_points_and_check(\n    uint256[2][3] memory input\n  ) payable public returns (uint256[2] memory) {\n    uint256[2] memory addition = _bn128_add([input[0][0], input[0][1], input[1][0], input[1][1]]);\n\n    require(addition[0] == input[2][0] && addition[1] == input[2][1], \"equality failed\");\n    \n    return [input[0][0], input[0][1]];\n\n  }\n\n  // public\n  function submit_proof_decryption(\n    uint256[7] memory input, \n    bytes32 client_id\n  ) payable public returns (bool) {\n    // begins fetching the client's aggregate\n    uint256[4] memory client_aggregate = fetch_encrypted_aggregate_array(client_id);\n    uint256[2] memory client_pk = fetch_public_key(client_id);\n    uint256[2] memory plaintext = [input[0], input[1]];\n    uint256[2] memory announcement_g = [input[2], input[3]];\n    uint256[2] memory announcement_ctx = [input[4], input[5]];\n    uint256 response = input[6];\n\n    bool proof_verification = check_proof(\n      client_aggregate, \n      plaintext, \n      client_pk, \n      announcement_g, \n      announcement_ctx,\n      response\n    );\n\n    proof_verification_storage[client_id] = proof_verification;\n\n    return true;\n  }\n\n  function check_proof(\n        uint256[4] memory ciphertext,\n        uint256[2] memory plaintext, \n        uint256[2] memory public_key,\n        uint256[2] memory announcement_g,\n        uint256[2] memory announcement_ctx,\n        uint256 response\n    ) payable public returns (bool) {\n    \n        bytes32 hashed_keccak256 = keccak256(abi.encode(\n            plaintext,\n            ciphertext,\n            announcement_g, \n            announcement_ctx, \n            [uint256(1), uint256(2)],\n            public_key\n            ));\n            \n\n        uint256 challenge = uint256(hashed_keccak256);\n        \n        bool check_1 = _proof_check_1(public_key, announcement_g, challenge, response);\n        bool check_2 = _proof_check_2(ciphertext, plaintext, announcement_ctx, challenge, response);\n        return check_1 && check_2;\n  }\n  \n  function _proof_check_2(\n            uint256[4] memory ciphertext, \n            uint256[2] memory plaintext, \n            uint256[2] memory announcement_ctx,\n            uint256 challenge,\n            uint256 response\n      ) private returns (bool) {\n        Ciphertext memory ctxt = Ciphertext(\n                EcPoint(ciphertext[0], ciphertext[1]), EcPoint(ciphertext[2], ciphertext[3])\n            );\n        EcPoint memory ptxt = EcPoint(plaintext[0], plaintext[1]);\n          \n        uint256[2] memory lhs_mult_1_check_2 = _bn128_multiply([ctxt.point1.x_coord, ctxt.point1.y_coord, response]);\n        // The following, in the original check is computed in the rhs. We do it in the lsh for simplicity\n        uint256[2] memory lhs_mult_2_check_2 = _bn128_multiply([ptxt.x_coord, ptxt.y_coord, challenge]);\n        uint256[2] memory lhs_check_2 = _bn128_add([lhs_mult_1_check_2[0], lhs_mult_1_check_2[1], lhs_mult_2_check_2[0], lhs_mult_2_check_2[1]]);\n        \n        uint256[2] memory rhs_mult_check_2 = _bn128_multiply([ctxt.point2.x_coord, ctxt.point2.y_coord, challenge]);\n        uint256[2] memory rhs_check_2 = _bn128_add([announcement_ctx[0], announcement_ctx[1], rhs_mult_check_2[0], rhs_mult_check_2[1]]);\n        \n        bool check_2 = lhs_check_2[0] == rhs_check_2[0] && lhs_check_2[1] == rhs_check_2[1];\n        return check_2;\n      }\n  \n  function _proof_check_1(\n        uint256[2] memory public_key,\n        uint256[2] memory announcement_g,\n        uint256 challenge,\n        uint256 response\n      ) private returns (bool) {\n        EcPoint memory pk = EcPoint(public_key[0], public_key[1]);\n        EcPoint memory generator = EcPoint(uint256(1), uint256(2));\n        \n        uint256[2] memory lhs_check_1 = _bn128_multiply([generator.x_coord, generator.y_coord, response]);\n    \n        uint256[2] memory pk_times_challenge = _bn128_multiply([pk.x_coord, pk.y_coord, challenge]);\n        uint256[2] memory rhs_check_1 = _bn128_add([announcement_g[0], announcement_g[1], pk_times_challenge[0], pk_times_challenge[1]]);    \n  \n        bool check_1 = lhs_check_1[0] == rhs_check_1[0] && lhs_check_1[1] == rhs_check_1[1];\n        return check_1;\n  }\n\n  function calculate_aggregate(\n    uint256[4][length_policies] memory input, \n    uint256[2] memory public_key,\n    bytes32 client_id\n  //) payable public returns (uint256[4] memory) {\n    ) payable public returns (bool) {    \n    emit Input(input[0]);\n    emit Input(input[1]);\n    \n    // calculates aggregate\n    uint256[4] memory aggregate = _inner_product(\n      input,\n      policies\n    );\n\n    // stores aggregate in array keyed by client_id && return aggregate to caller\n    EncryptedAggregate memory enc_aggr = EncryptedAggregate({ \n      x0: aggregate[0], \n      x1: aggregate[1], \n      y0: aggregate[2], \n      y1: aggregate[3], \n      public_key: public_key\n    });\n\n    aggregate_storage[client_id] = enc_aggr;\n\n    return true;\n  }\n\n  // supposed to replace `fetch_encrypted_aggregate` at some point. I like more uint256[4] than (.,.,.,.)\n  function fetch_encrypted_aggregate_array(bytes32 client_id) public view returns (uint256[4] memory) {\n    return [aggregate_storage[client_id].x0, aggregate_storage[client_id].x1, aggregate_storage[client_id].y0, aggregate_storage[client_id].y1];\n  }\n  function fetch_encrypted_aggregate(bytes32 client_id) public view returns (uint256, uint256, uint256, uint256) {\n      return  (aggregate_storage[client_id].x0, aggregate_storage[client_id].x1, aggregate_storage[client_id].y0, aggregate_storage[client_id].y1);\n  }\n\n  function fetch_public_key(bytes32 client_id) public view returns (uint256[2] memory ) {\n    return aggregate_storage[client_id].public_key;\n  }\n\n  function fetch_proof_verification(bytes32 client_id) public view returns (bool) {\n    return proof_verification_storage[client_id];\n  }\n\n  function request_payment(\n    uint256[4] memory encrypted_aggregate,\n    uint256[2] memory decrypted_aggregate,\n    uint256[2] memory proof_correct_decryption,\n    bytes32 client_id\n  ) payable public returns (bool valid) {\n    // TODO: implement proof verification\n\n    bool proof_is_valid = true;\n\n    PaymentRequests memory payment_request = PaymentRequests(\n      encrypted_aggregate,\n      decrypted_aggregate,\n      proof_correct_decryption,\n      proof_is_valid);    \n\n    payment_requests[client_id].push(payment_request);\n\n    return proof_is_valid;\n  }\n\n  // private\n  function _inner_product(\n    uint256[4][length_policies] memory ciphertext_vector, \n    uint256[length_policies] memory scalar_vector\n  ) private returns (uint256[4] memory) {\n\n      uint256[2] memory aggregate_1 = [uint256(0), uint256(0)];\n      uint256[2] memory aggregate_2 = [uint256(0), uint256(0)];\n      uint256[2] memory resultMult_1 = [uint256(1), uint256(1)];\n      uint256[2] memory resultMult_2 =  [uint256(1), uint256(1)];\n\n      for (uint i = 0; i < length_policies; i++) {\n        resultMult_1 = _bn128_multiply([\n          ciphertext_vector[i][0],\n          ciphertext_vector[i][1], \n          scalar_vector[i]\n        ]);  \n\n        resultMult_2 = _bn128_multiply([\n          ciphertext_vector[i][2], \n          ciphertext_vector[i][3],\n          scalar_vector[i]\n        ]);\n\n        aggregate_1 = _bn128_add([resultMult_1[0], resultMult_1[1], aggregate_1[0], aggregate_1[1]]);\n        \n        aggregate_2 = _bn128_add([resultMult_2[0], resultMult_2[1], aggregate_2[0], aggregate_2[1]]);\n        }\n\n      uint256[4] memory aggregate = [aggregate_1[0], aggregate_1[1], aggregate_2[0], aggregate_2[1]];\n\n\n      emit Aggregate(aggregate);\n      return aggregate;\n    }\n\n    function _bn128_add(uint256[4] memory input) private returns (uint256[2] memory result) {\n        bool success;\n        assembly {\n            success := call(not(0), 0x06, 0, input, 128, result, 64)\n        }\n        require(success, \"elliptic curve addition failed\");\n    }\n  \n    function _bn128_multiply(uint256[3] memory input)\n    private returns (uint256[2] memory result) {\n        bool success;\n        assembly {\n            success := call(not(0), 0x07, 0, input, 96, result, 64)\n        }\n        require(success, \"elliptic curve multiplication failed\");\n    }\n}\n",
  "sourcePath": "/Users/gpestana/brave/decentralized-bat-net-experiments/themis/contracts/Themis_2ads.sol",
  "compiler": {
    "name": "solc",
    "version": "0.5.16+commit.9c3226ce.Emscripten.clang"
  },
  "schemaVersion": "3.0.23",
  "updatedAt": "2020-07-24T13:17:54.485Z",
  "networkType": "ethereum",
  "devdoc": {
    "methods": {}
  },
  "userdoc": {
    "methods": {}
  }
}