{
  "contractName": "ThemisPolicyContract",
  "abi": [
    {
      "inputs": [
        {
          "internalType": "address",
          "name": "policy_sc_add",
          "type": "address"
        }
      ],
      "payable": false,
      "stateMutability": "nonpayable",
      "type": "constructor"
    },
    {
      "anonymous": false,
      "inputs": [
        {
          "indexed": false,
          "internalType": "uint256[4]",
          "name": "aggr",
          "type": "uint256[4]"
        }
      ],
      "name": "Aggregate",
      "type": "event"
    },
    {
      "anonymous": false,
      "inputs": [],
      "name": "DoneProof",
      "type": "event"
    },
    {
      "anonymous": false,
      "inputs": [
        {
          "indexed": false,
          "internalType": "bytes32",
          "name": "hashed",
          "type": "bytes32"
        }
      ],
      "name": "Hash",
      "type": "event"
    },
    {
      "anonymous": false,
      "inputs": [
        {
          "indexed": false,
          "internalType": "uint256[4]",
          "name": "input",
          "type": "uint256[4]"
        }
      ],
      "name": "Input",
      "type": "event"
    },
    {
      "anonymous": false,
      "inputs": [
        {
          "indexed": false,
          "internalType": "uint256",
          "name": "int_hashed",
          "type": "uint256"
        }
      ],
      "name": "IntegerHash",
      "type": "event"
    },
    {
      "constant": true,
      "inputs": [],
      "name": "policy_sc_address",
      "outputs": [
        {
          "internalType": "contract Policy",
          "name": "",
          "type": "address"
        }
      ],
      "payable": false,
      "stateMutability": "view",
      "type": "function"
    },
    {
      "constant": false,
      "inputs": [
        {
          "internalType": "uint256[7]",
          "name": "input",
          "type": "uint256[7]"
        },
        {
          "internalType": "bytes32",
          "name": "client_id",
          "type": "bytes32"
        }
      ],
      "name": "submit_proof_decryption",
      "outputs": [
        {
          "internalType": "bool",
          "name": "",
          "type": "bool"
        }
      ],
      "payable": true,
      "stateMutability": "payable",
      "type": "function"
    },
    {
      "constant": false,
      "inputs": [
        {
          "internalType": "uint256[4]",
          "name": "ciphertext",
          "type": "uint256[4]"
        },
        {
          "internalType": "uint256[2]",
          "name": "plaintext",
          "type": "uint256[2]"
        },
        {
          "internalType": "uint256[2]",
          "name": "public_key",
          "type": "uint256[2]"
        },
        {
          "internalType": "uint256[2]",
          "name": "announcement_g",
          "type": "uint256[2]"
        },
        {
          "internalType": "uint256[2]",
          "name": "announcement_ctx",
          "type": "uint256[2]"
        },
        {
          "internalType": "uint256",
          "name": "response",
          "type": "uint256"
        }
      ],
      "name": "check_proof",
      "outputs": [
        {
          "internalType": "bool",
          "name": "",
          "type": "bool"
        }
      ],
      "payable": true,
      "stateMutability": "payable",
      "type": "function"
    },
    {
      "constant": false,
      "inputs": [
        {
          "internalType": "uint256[4][512]",
          "name": "input",
          "type": "uint256[4][512]"
        },
        {
          "internalType": "uint256[2]",
          "name": "public_key",
          "type": "uint256[2]"
        },
        {
          "internalType": "bytes32",
          "name": "client_id",
          "type": "bytes32"
        }
      ],
      "name": "calculate_aggregate",
      "outputs": [
        {
          "internalType": "bool",
          "name": "",
          "type": "bool"
        }
      ],
      "payable": true,
      "stateMutability": "payable",
      "type": "function"
    },
    {
      "constant": true,
      "inputs": [
        {
          "internalType": "bytes32",
          "name": "client_id",
          "type": "bytes32"
        }
      ],
      "name": "fetch_encrypted_aggregate_array",
      "outputs": [
        {
          "internalType": "uint256[4]",
          "name": "",
          "type": "uint256[4]"
        }
      ],
      "payable": false,
      "stateMutability": "view",
      "type": "function"
    },
    {
      "constant": true,
      "inputs": [
        {
          "internalType": "bytes32",
          "name": "client_id",
          "type": "bytes32"
        }
      ],
      "name": "fetch_public_key",
      "outputs": [
        {
          "internalType": "uint256[2]",
          "name": "",
          "type": "uint256[2]"
        }
      ],
      "payable": false,
      "stateMutability": "view",
      "type": "function"
    },
    {
      "constant": true,
      "inputs": [
        {
          "internalType": "bytes32",
          "name": "client_id",
          "type": "bytes32"
        }
      ],
      "name": "fetch_proof_verification",
      "outputs": [
        {
          "internalType": "bool",
          "name": "",
          "type": "bool"
        }
      ],
      "payable": false,
      "stateMutability": "view",
      "type": "function"
    },
    {
      "constant": false,
      "inputs": [
        {
          "internalType": "uint256[4]",
          "name": "encrypted_aggregate",
          "type": "uint256[4]"
        },
        {
          "internalType": "uint256[2]",
          "name": "decrypted_aggregate",
          "type": "uint256[2]"
        },
        {
          "internalType": "uint256[2]",
          "name": "proof_correct_decryption",
          "type": "uint256[2]"
        },
        {
          "internalType": "bytes32",
          "name": "client_id",
          "type": "bytes32"
        }
      ],
      "name": "request_payment",
      "outputs": [
        {
          "internalType": "bool",
          "name": "valid",
          "type": "bool"
        }
      ],
      "payable": true,
      "stateMutability": "payable",
      "type": "function"
    }
  ],
  "bytecode": "0x608060405234801561001057600080fd5b50604051611b12380380611b128339818101604052602081101561003357600080fd5b8101908080519060200190929190505050806000806101000a81548173ffffffffffffffffffffffffffffffffffffffff021916908373ffffffffffffffffffffffffffffffffffffffff16021790555050611a7e806100946000396000f3fe60806040526004361061007b5760003560e01c80639bea124b1161004e5780639bea124b146104a3578063aba997441461051a578063d3233c591461056d578063f35973c6146105c45761007b565b8063448e538f146100805780635a0a3c3d1461020c5780636ceac60814610311578063952270e41461041b575b600080fd5b6101f260048036036101a081101561009757600080fd5b8101908080608001906004806020026040519081016040528092919082600460200280828437600081840152601f19601f820116905080830192505050505050919291929080604001906002806020026040519081016040528092919082600260200280828437600081840152601f19601f820116905080830192505050505050919291929080604001906002806020026040519081016040528092919082600260200280828437600081840152601f19601f820116905080830192505050505050919291929080604001906002806020026040519081016040528092919082600260200280828437600081840152601f19601f820116905080830192505050505050919291929080604001906002806020026040519081016040528092919082600260200280828437600081840152601f19601f82011690508083019250505050505091929192908035906020019092919050505061063b565b604051808215151515815260200191505060405180910390f35b6102f760048036036201006081101561022457600080fd5b810190808062010000019061020080602002604051908101604052809291906000905b8282101561029b578382608002016004806020026040519081016040528092919082600460200280828437600081840152601f19601f82011690508083019250505050505081526020019060010190610247565b50505050919291929080604001906002806020026040519081016040528092919082600260200280828437600081840152601f19601f8201169050808301925050505050509192919290803590602001909291905050506107d8565b604051808215151515815260200191505060405180910390f35b610401600480360361012081101561032857600080fd5b8101908080608001906004806020026040519081016040528092919082600460200280828437600081840152601f19601f820116905080830192505050505050919291929080604001906002806020026040519081016040528092919082600260200280828437600081840152601f19601f820116905080830192505050505050919291929080604001906002806020026040519081016040528092919082600260200280828437600081840152601f19601f820116905080830192505050505050919291929080359060200190929190505050610b27565b604051808215151515815260200191505060405180910390f35b610489600480360361010081101561043257600080fd5b810190808060e001906007806020026040519081016040528092919082600760200280828437600081840152601f19601f820116905080830192505050505050919291929080359060200190929190505050610c12565b604051808215151515815260200191505060405180910390f35b3480156104af57600080fd5b506104dc600480360360208110156104c657600080fd5b8101908080359060200190929190505050610d61565b6040518082600460200280838360005b838110156105075780820151818401526020810190506104ec565b5050505090500191505060405180910390f35b34801561052657600080fd5b506105536004803603602081101561053d57600080fd5b8101908080359060200190929190505050610de9565b604051808215151515815260200191505060405180910390f35b34801561057957600080fd5b50610582610e13565b604051808273ffffffffffffffffffffffffffffffffffffffff1673ffffffffffffffffffffffffffffffffffffffff16815260200191505060405180910390f35b3480156105d057600080fd5b506105fd600480360360208110156105e757600080fd5b8101908080359060200190929190505050610e38565b6040518082600260200280838360005b8381101561062857808201518184015260208101905061060d565b5050505090500191505060405180910390f35b6000808688868660405180604001604052806001815260200160028152508a6040516020018087600260200280838360005b8381101561068857808201518184015260208101905061066d565b5050505090500186600460200280838360005b838110156106b657808201518184015260208101905061069b565b5050505090500185600260200280838360005b838110156106e45780820151818401526020810190506106c9565b5050505090500184600260200280838360005b838110156107125780820151818401526020810190506106f7565b5050505090500183600260200280838360005b83811015610740578082015181840152602081019050610725565b5050505090500182600260200280838360005b8381101561076e578082015181840152602081019050610753565b50505050905001965050505050505060405160208183030381529060405280519060200120905060008160001c905060006107ab88888488610e99565b905060006107bc8b8b89868a611045565b90508180156107c85750805b9450505050509695505050505050565b60007fb8aeb9134ec47f3964c01c8a2ad29f486edb1d88d5a9f4324d0c560c749d0424846000610200811061080957fe5b60200201516040518082600460200280838360005b8381101561083957808201518184015260208101905061081e565b5050505090500191505060405180910390a17fb8aeb9134ec47f3964c01c8a2ad29f486edb1d88d5a9f4324d0c560c749d0424846001610200811061087a57fe5b60200201516040518082600460200280838360005b838110156108aa57808201518184015260208101905061088f565b5050505090500191505060405180910390a16000809054906101000a900473ffffffffffffffffffffffffffffffffffffffff1673ffffffffffffffffffffffffffffffffffffffff1663ad88cac06040518163ffffffff1660e01b815260040160006040518083038186803b15801561092357600080fd5b505afa158015610937573d6000803e3d6000fd5b505050506040513d6000823e3d601f19601f82011682018060405250602081101561096157600080fd5b810190808051604051939291908464010000000082111561098157600080fd5b8382019150602082018581111561099757600080fd5b82518660208202830111640100000000821117156109b457600080fd5b8083526020830192505050908051906020019060200280838360005b838110156109eb5780820151818401526020810190506109d0565b5050505090500160405250505060019080519060200190610a0d9291906117e0565b50610a1661182d565b610a70856001805480602002602001604051908101604052809291908181526020018280548015610a6657602002820191906000526020600020905b815481526020019060010190808311610a52575b505050505061131a565b9050610a7a611853565b6040518060a001604052808360000151600001518152602001836000015160200151815260200183602001516000015181526020018360200151602001518152602001868152509050806003600086815260200190815260200160002060008201518160000155602082015181600101556040820151816002015560608201518160030155608082015181600401906002610b16929190611888565b509050506001925050509392505050565b60008060019050610b366118c8565b60405180608001604052808881526020018781526020018681526020018315158152509050600260008581526020019081526020016000208190806001815401808255809150509060018203906000526020600020906009020160009091929091909150600082015181600001906004610bb1929190611904565b50602082015181600401906002610bc9929190611888565b50604082015181600601906002610be1929190611888565b5060608201518160080160006101000a81548160ff0219169083151502179055505050508192505050949350505050565b6000610c1c611944565b610c2583610d61565b9050610c2f611966565b610c3884610e38565b9050610c42611966565b604051806040016040528087600060078110610c5a57fe5b6020020151815260200187600160078110610c7157fe5b60200201518152509050610c83611966565b604051806040016040528088600260078110610c9b57fe5b6020020151815260200188600360078110610cb257fe5b60200201518152509050610cc4611966565b604051806040016040528089600460078110610cdc57fe5b6020020151815260200189600560078110610cf357fe5b60200201518152509050600088600660078110610d0c57fe5b602002015190506000610d2387868887878761063b565b905080600460008b815260200190815260200160002060006101000a81548160ff021916908315150217905550600197505050505050505092915050565b610d69611944565b604051806080016040528060036000858152602001908152602001600020600001548152602001600360008581526020019081526020016000206001015481526020016003600085815260200190815260200160002060020154815260200160036000858152602001908152602001600020600301548152509050919050565b60006004600083815260200190815260200160002060009054906101000a900460ff169050919050565b6000809054906101000a900473ffffffffffffffffffffffffffffffffffffffff1681565b610e40611966565b60036000838152602001908152602001600020600401600280602002604051908101604052809291908260028015610e8d576020028201915b815481526020019060010190808311610e79575b50505050509050919050565b6000610ea3611988565b604051806040016040528087600060028110610ebb57fe5b6020020151815260200187600160028110610ed257fe5b60200201518152509050610ee4611988565b60405180604001604052806001815260200160028152509050610f05611966565b610f3060405180606001604052808460000151815260200184602001518152602001878152506116d7565b9050610f3a611966565b610f6560405180606001604052808660000151815260200186602001518152602001898152506116d7565b9050610f6f611966565b610fdc60405180608001604052808b600060028110610f8a57fe5b602002015181526020018b600160028110610fa157fe5b6020020151815260200184600060028110610fb857fe5b6020020151815260200184600160028110610fcf57fe5b602002015181525061174d565b9050600081600060028110610fed57fe5b602002015184600060028110610fff57fe5b602002015114801561103257508160016002811061101957fe5b60200201518460016002811061102b57fe5b6020020151145b9050809650505050505050949350505050565b600061104f61182d565b604051806040016040528060405180604001604052808a60006004811061107257fe5b602002015181526020018a60016004811061108957fe5b6020020151815250815260200160405180604001604052808a6002600481106110ae57fe5b602002015181526020018a6003600481106110c557fe5b602002015181525081525090506110da611988565b6040518060400160405280886000600281106110f257fe5b602002015181526020018860016002811061110957fe5b6020020151815250905061111b611966565b61114e604051806060016040528085600001516000015181526020018560000151602001518152602001878152506116d7565b9050611158611966565b61118360405180606001604052808560000151815260200185602001518152602001898152506116d7565b905061118d611966565b6111fa6040518060800160405280856000600281106111a857fe5b60200201518152602001856001600281106111bf57fe5b60200201518152602001846000600281106111d657fe5b60200201518152602001846001600281106111ed57fe5b602002015181525061174d565b9050611204611966565b6112376040518060600160405280886020015160000151815260200188602001516020015181526020018b8152506116d7565b9050611241611966565b6112ae60405180608001604052808d60006002811061125c57fe5b602002015181526020018d60016002811061127357fe5b602002015181526020018460006002811061128a57fe5b60200201518152602001846001600281106112a157fe5b602002015181525061174d565b90506000816000600281106112bf57fe5b6020020151846000600281106112d157fe5b60200201511480156113045750816001600281106112eb57fe5b6020020151846001600281106112fd57fe5b6020020151145b9050809850505050505050505095945050505050565b61132261182d565b600082519050611330611966565b60405180604001604052806000815260200160008152509050611351611966565b60405180604001604052806000815260200160008152509050611372611966565b60405180604001604052806001815260200160018152509050611393611966565b6040518060400160405280600181526020016001815250905060008090505b8581101561159d5761143460405180606001604052808b8461020081106113d557fe5b60200201516000600481106113e657fe5b602002015181526020018b8461020081106113fd57fe5b602002015160016004811061140e57fe5b602002015181526020018a848151811061142457fe5b60200260200101518152506116d7565b92506114b060405180606001604052808b84610200811061145157fe5b602002015160026004811061146257fe5b602002015181526020018b84610200811061147957fe5b602002015160036004811061148a57fe5b602002015181526020018a84815181106114a057fe5b60200260200101518152506116d7565b915061151f6040518060800160405280856000600281106114cd57fe5b60200201518152602001856001600281106114e457fe5b60200201518152602001876000600281106114fb57fe5b602002015181526020018760016002811061151257fe5b602002015181525061174d565b945061158e60405180608001604052808460006002811061153c57fe5b602002015181526020018460016002811061155357fe5b602002015181526020018660006002811061156a57fe5b602002015181526020018660016002811061158157fe5b602002015181525061174d565b935080806001019150506113b2565b506115a661182d565b60405180604001604052806040518060400160405280886000600281106115c957fe5b60200201518152602001886001600281106115e057fe5b6020020151815250815260200160405180604001604052808760006002811061160557fe5b602002015181526020018760016002811061161c57fe5b602002015181525081525090507f2214d5f796a5030b1f93bdad19cf57561590f164f5e74396c5981f6e99b4d60160405180608001604052808360000151600001518152602001836000015160200151815260200183602001516000015181526020018360200151602001518152506040518082600460200280838360005b838110156116b657808201518184015260208101905061169b565b5050505090500191505060405180910390a180965050505050505092915050565b6116df611966565b600060408260608560006007600019f1905080611747576040517f08c379a0000000000000000000000000000000000000000000000000000000008152600401808060200182810382526024815260200180611a266024913960400191505060405180910390fd5b50919050565b611755611966565b600060408260808560006006600019f19050806117da576040517f08c379a000000000000000000000000000000000000000000000000000000000815260040180806020018281038252601e8152602001807f656c6c6970746963206375727665206164646974696f6e206661696c6564000081525060200191505060405180910390fd5b50919050565b82805482825590600052602060002090810192821561181c579160200282015b8281111561181b578251825591602001919060010190611800565b5b50905061182991906119a2565b5090565b60405180604001604052806118406119c7565b815260200161184d6119c7565b81525090565b6040518060a00160405280600081526020016000815260200160008152602001600081526020016118826119e1565b81525090565b82600281019282156118b7579160200282015b828111156118b657825182559160200191906001019061189b565b5b5090506118c491906119a2565b5090565b60405180608001604052806118db611a03565b81526020016118e86119e1565b81526020016118f56119e1565b81526020016000151581525090565b8260048101928215611933579160200282015b82811115611932578251825591602001919060010190611917565b5b50905061194091906119a2565b5090565b6040518060800160405280600490602082028038833980820191505090505090565b6040518060400160405280600290602082028038833980820191505090505090565b604051806040016040528060008152602001600081525090565b6119c491905b808211156119c05760008160009055506001016119a8565b5090565b90565b604051806040016040528060008152602001600081525090565b6040518060400160405280600290602082028038833980820191505090505090565b604051806080016040528060049060208202803883398082019150509050509056fe656c6c6970746963206375727665206d756c7469706c69636174696f6e206661696c6564a265627a7a72315820394d4677992a35dc8747f948c60e885d22e41d3fa39b89abfe51e52d377cdcdb64736f6c63430005100032",
  "source": "//pragma solidity >=0.4.22 <0.6.0;\npragma solidity >=0.4.22 <0.7.0;\n\ncontract ThemisPolicyContract {\n\n  Policy public policy_sc_address;\n  uint constant initial_length = 512;\n  uint256[] policies;\n\n  struct EncryptedAggregate {\n    uint256 x0;\n    uint256 y0;\n    uint256 x1;\n    uint256 y1;\n    uint256[2] public_key;\n  }\n\n  struct PaymentRequests {\n    uint256[4] encrypted_aggregate;\n    uint256[2] decrypted_aggregate;\n    uint256[2] proof_correct_decryption;\n    bool valid;\n  }\n    \n    struct EcPoint{\n        uint256 x_coord; \n        uint256 y_coord;\n    }\n    \n    struct Ciphertext{\n        EcPoint point1; \n        EcPoint point2;\n    }\n\n  // public storage\n  mapping (bytes32 => PaymentRequests[]) payment_requests;\n  mapping (bytes32 => EncryptedAggregate) aggregate_storage;\n  mapping (bytes32 => bool) proof_verification_storage;\n\n  event Hash(bytes32 hashed);\n  event IntegerHash(uint256 int_hashed);\n  event Input(uint256[4] input);\n  event Aggregate(uint256[4] aggr);\n  event DoneProof();\n\n  // TODO: define constructor\n  constructor(address policy_sc_add) public {\n      policy_sc_address = Policy(policy_sc_add);\n  }\n\n  // public\n  function submit_proof_decryption(\n    uint256[7] memory input, \n    bytes32 client_id\n  ) payable public returns (bool) {\n    // begins fetching the client's aggregate\n    uint256[4] memory client_aggregate = fetch_encrypted_aggregate_array(client_id);\n    uint256[2] memory client_pk = fetch_public_key(client_id);\n    uint256[2] memory plaintext = [input[0], input[1]];\n    uint256[2] memory announcement_g = [input[2], input[3]];\n    uint256[2] memory announcement_ctx = [input[4], input[5]];\n    uint256 response = input[6];\n\n    bool proof_verification = check_proof(\n      client_aggregate, \n      plaintext, \n      client_pk, \n      announcement_g, \n      announcement_ctx,\n      response\n    );\n\n    proof_verification_storage[client_id] = proof_verification;\n\n    return true;\n  }\n\n  function check_proof(\n        uint256[4] memory ciphertext,\n        uint256[2] memory plaintext, \n        uint256[2] memory public_key,\n        uint256[2] memory announcement_g,\n        uint256[2] memory announcement_ctx,\n        uint256 response\n    ) payable public returns (bool) {\n    \n        bytes32 hashed_keccak256 = keccak256(abi.encode(\n            plaintext,\n            ciphertext,\n            announcement_g, \n            announcement_ctx, \n            [uint256(1), uint256(2)],\n            public_key\n            ));\n            \n\n        uint256 challenge = uint256(hashed_keccak256);\n        \n        bool check_1 = _proof_check_1(public_key, announcement_g, challenge, response);\n        bool check_2 = _proof_check_2(ciphertext, plaintext, announcement_ctx, challenge, response);\n        return check_1 && check_2;\n  }\n  \n  function _proof_check_2(\n            uint256[4] memory ciphertext, \n            uint256[2] memory plaintext, \n            uint256[2] memory announcement_ctx,\n            uint256 challenge,\n            uint256 response\n      ) private returns (bool) {\n        Ciphertext memory ctxt = Ciphertext(\n                EcPoint(ciphertext[0], ciphertext[1]), EcPoint(ciphertext[2], ciphertext[3])\n            );\n        EcPoint memory ptxt = EcPoint(plaintext[0], plaintext[1]);\n          \n        uint256[2] memory lhs_mult_1_check_2 = _bn128_multiply([ctxt.point1.x_coord, ctxt.point1.y_coord, response]);\n        // The following, in the original check is computed in the rhs. We do it in the lsh for simplicity\n        uint256[2] memory lhs_mult_2_check_2 = _bn128_multiply([ptxt.x_coord, ptxt.y_coord, challenge]);\n        uint256[2] memory lhs_check_2 = _bn128_add([lhs_mult_1_check_2[0], lhs_mult_1_check_2[1], lhs_mult_2_check_2[0], lhs_mult_2_check_2[1]]);\n        \n        uint256[2] memory rhs_mult_check_2 = _bn128_multiply([ctxt.point2.x_coord, ctxt.point2.y_coord, challenge]);\n        uint256[2] memory rhs_check_2 = _bn128_add([announcement_ctx[0], announcement_ctx[1], rhs_mult_check_2[0], rhs_mult_check_2[1]]);\n        \n        bool check_2 = lhs_check_2[0] == rhs_check_2[0] && lhs_check_2[1] == rhs_check_2[1];\n        return check_2;\n      }\n  \n  function _proof_check_1(\n        uint256[2] memory public_key,\n        uint256[2] memory announcement_g,\n        uint256 challenge,\n        uint256 response\n      ) private returns (bool) {\n        EcPoint memory pk = EcPoint(public_key[0], public_key[1]);\n        EcPoint memory generator = EcPoint(uint256(1), uint256(2));\n        \n        uint256[2] memory lhs_check_1 = _bn128_multiply([generator.x_coord, generator.y_coord, response]);\n    \n        uint256[2] memory pk_times_challenge = _bn128_multiply([pk.x_coord, pk.y_coord, challenge]);\n        uint256[2] memory rhs_check_1 = _bn128_add([announcement_g[0], announcement_g[1], pk_times_challenge[0], pk_times_challenge[1]]);    \n  \n        bool check_1 = lhs_check_1[0] == rhs_check_1[0] && lhs_check_1[1] == rhs_check_1[1];\n        return check_1;\n  }\n\n  function calculate_aggregate(\n    uint256[4][initial_length] memory input, \n    uint256[2] memory public_key,\n    bytes32 client_id\n  //) payable public returns (uint256[4] memory) {\n    ) payable public returns (bool) {    \n    emit Input(input[0]);\n    emit Input(input[1]);\n\n    policies = policy_sc_address.get_policies();\n    \n    // todo: would be nice to break the input vector here, and not inside the inner product function.\n    // However, given the version of solidity, we cannot slice arrays using [:n].\n    Ciphertext memory aggregate = _inner_product(\n      input,\n      policies\n    );\n\n    // stores aggregate in array keyed by client_id && return aggregate to caller\n    EncryptedAggregate memory enc_aggr = EncryptedAggregate({ \n      x0: aggregate.point1.x_coord, \n      y0: aggregate.point1.y_coord, \n      x1: aggregate.point2.x_coord, \n      y1: aggregate.point2.y_coord, \n      public_key: public_key\n    });\n\n    aggregate_storage[client_id] = enc_aggr;\n\n    return true;\n  }\n\n  function fetch_encrypted_aggregate_array(bytes32 client_id) public view returns (uint256[4] memory) {\n    return [aggregate_storage[client_id].x0, aggregate_storage[client_id].y0, aggregate_storage[client_id].x1, aggregate_storage[client_id].y1];\n  }\n\n  function fetch_public_key(bytes32 client_id) public view returns (uint256[2] memory ) {\n    return aggregate_storage[client_id].public_key;\n  }\n\n  function fetch_proof_verification(bytes32 client_id) public view returns (bool) {\n    return proof_verification_storage[client_id];\n  }\n\n  function request_payment(\n    uint256[4] memory encrypted_aggregate,\n    uint256[2] memory decrypted_aggregate,\n    uint256[2] memory proof_correct_decryption,\n    bytes32 client_id\n  ) payable public returns (bool valid) {\n    // TODO: implement proof verification\n\n    bool proof_is_valid = true;\n\n    PaymentRequests memory payment_request = PaymentRequests(\n      encrypted_aggregate,\n      decrypted_aggregate,\n      proof_correct_decryption,\n      proof_is_valid);    \n\n    payment_requests[client_id].push(payment_request);\n\n    return proof_is_valid;\n  }\n\n  // private\n  function _inner_product(\n    uint256[4][initial_length] memory ciphertext_vector, \n    uint256[] memory scalar_vector\n  ) private returns (Ciphertext memory) {\n\n      uint length = scalar_vector.length;\n\n      uint256[2] memory aggregate_1 = [uint256(0), uint256(0)];\n      uint256[2] memory aggregate_2 = [uint256(0), uint256(0)];\n      uint256[2] memory resultMult_1 = [uint256(1), uint256(1)];\n      uint256[2] memory resultMult_2 =  [uint256(1), uint256(1)];\n\n      for (uint i = 0; i < length; i++) {\n        resultMult_1 = _bn128_multiply([\n          ciphertext_vector[i][0],\n          ciphertext_vector[i][1], \n          scalar_vector[i]\n        ]);  \n\n        resultMult_2 = _bn128_multiply([\n          ciphertext_vector[i][2], \n          ciphertext_vector[i][3],\n          scalar_vector[i]\n        ]);\n\n        aggregate_1 = _bn128_add([resultMult_1[0], resultMult_1[1], aggregate_1[0], aggregate_1[1]]);\n        \n        aggregate_2 = _bn128_add([resultMult_2[0], resultMult_2[1], aggregate_2[0], aggregate_2[1]]);\n        }\n\n      Ciphertext memory aggregate = Ciphertext(EcPoint(aggregate_1[0], aggregate_1[1]), EcPoint(aggregate_2[0], aggregate_2[1]));\n\n\n      emit Aggregate([aggregate.point1.x_coord, aggregate.point1.y_coord, aggregate.point2.x_coord, aggregate.point2.y_coord]);\n      return aggregate;\n    }\n\n    function _bn128_add(uint256[4] memory input) private returns (uint256[2] memory result) {\n        bool success;\n        assembly {\n            success := call(not(0), 0x06, 0, input, 128, result, 64)\n        }\n        require(success, \"elliptic curve addition failed\");\n    }\n  \n    function _bn128_multiply(uint256[3] memory input)\n    private returns (uint256[2] memory result) {\n        bool success;\n        assembly {\n            success := call(not(0), 0x07, 0, input, 96, result, 64)\n        }\n        require(success, \"elliptic curve multiplication failed\");\n    }\n}\n\ninterface Policy{\n    function get_length() external view returns (uint);\n    function get_policies() external view returns (uint256[] memory);\n}",
  "sourcePath": "/Users/inigoquerejeta/brave/decentralized-bat-net-experiments/themis/contracts/Themis.sol",
  "compiler": {
    "name": "solc",
    "version": "0.5.16+commit.9c3226ce.Emscripten.clang"
  },
  "schemaVersion": "3.0.23",
  "updatedAt": "2020-07-07T11:05:30.141Z",
  "networkType": "ethereum",
  "devdoc": {
    "methods": {}
  },
  "userdoc": {
    "methods": {}
  }
}