{
  "contractName": "ThemisPolicyContract",
  "abi": [
    {
      "inputs": [],
      "payable": false,
      "stateMutability": "nonpayable",
      "type": "constructor"
    },
    {
      "anonymous": false,
      "inputs": [
        {
          "indexed": false,
          "internalType": "uint256[4]",
          "name": "aggr",
          "type": "uint256[4]"
        }
      ],
      "name": "Aggregate",
      "type": "event"
    },
    {
      "anonymous": false,
      "inputs": [],
      "name": "DoneProof",
      "type": "event"
    },
    {
      "anonymous": false,
      "inputs": [
        {
          "indexed": false,
          "internalType": "bytes32",
          "name": "hashed",
          "type": "bytes32"
        }
      ],
      "name": "Hash",
      "type": "event"
    },
    {
      "anonymous": false,
      "inputs": [
        {
          "indexed": false,
          "internalType": "uint256[4]",
          "name": "input",
          "type": "uint256[4]"
        }
      ],
      "name": "Input",
      "type": "event"
    },
    {
      "anonymous": false,
      "inputs": [
        {
          "indexed": false,
          "internalType": "uint256",
          "name": "int_hashed",
          "type": "uint256"
        }
      ],
      "name": "IntegerHash",
      "type": "event"
    },
    {
      "constant": false,
      "inputs": [
        {
          "internalType": "uint256[2][3]",
          "name": "input",
          "type": "uint256[2][3]"
        }
      ],
      "name": "add_points_and_check",
      "outputs": [
        {
          "internalType": "uint256[2]",
          "name": "",
          "type": "uint256[2]"
        }
      ],
      "payable": true,
      "stateMutability": "payable",
      "type": "function"
    },
    {
      "constant": false,
      "inputs": [
        {
          "internalType": "uint256[4][2]",
          "name": "_input",
          "type": "uint256[4][2]"
        },
        {
          "internalType": "bytes32",
          "name": "_client_id",
          "type": "bytes32"
        }
      ],
      "name": "calculate_aggregate_mock",
      "outputs": [
        {
          "internalType": "bool",
          "name": "",
          "type": "bool"
        }
      ],
      "payable": true,
      "stateMutability": "payable",
      "type": "function"
    },
    {
      "constant": false,
      "inputs": [
        {
          "internalType": "uint256[7]",
          "name": "input",
          "type": "uint256[7]"
        },
        {
          "internalType": "bytes32",
          "name": "client_id",
          "type": "bytes32"
        }
      ],
      "name": "verify_proof",
      "outputs": [
        {
          "internalType": "bool",
          "name": "",
          "type": "bool"
        }
      ],
      "payable": true,
      "stateMutability": "payable",
      "type": "function"
    },
    {
      "constant": false,
      "inputs": [
        {
          "internalType": "uint256[4]",
          "name": "ciphertext",
          "type": "uint256[4]"
        },
        {
          "internalType": "uint256[2]",
          "name": "plaintext",
          "type": "uint256[2]"
        },
        {
          "internalType": "uint256[2]",
          "name": "public_key",
          "type": "uint256[2]"
        },
        {
          "internalType": "uint256[2]",
          "name": "announcement_g",
          "type": "uint256[2]"
        },
        {
          "internalType": "uint256[2]",
          "name": "announcement_ctx",
          "type": "uint256[2]"
        },
        {
          "internalType": "uint256",
          "name": "response",
          "type": "uint256"
        }
      ],
      "name": "verify_checks",
      "outputs": [
        {
          "internalType": "bool",
          "name": "",
          "type": "bool"
        }
      ],
      "payable": true,
      "stateMutability": "payable",
      "type": "function"
    },
    {
      "constant": false,
      "inputs": [
        {
          "internalType": "uint256[4][2]",
          "name": "input",
          "type": "uint256[4][2]"
        },
        {
          "internalType": "uint256[2]",
          "name": "public_key",
          "type": "uint256[2]"
        },
        {
          "internalType": "bytes32",
          "name": "client_id",
          "type": "bytes32"
        }
      ],
      "name": "calculate_aggregate",
      "outputs": [
        {
          "internalType": "bool",
          "name": "",
          "type": "bool"
        }
      ],
      "payable": true,
      "stateMutability": "payable",
      "type": "function"
    },
    {
      "constant": true,
      "inputs": [
        {
          "internalType": "bytes32",
          "name": "client_id",
          "type": "bytes32"
        }
      ],
      "name": "fetch_encrypted_aggregate_array",
      "outputs": [
        {
          "internalType": "uint256[4]",
          "name": "",
          "type": "uint256[4]"
        }
      ],
      "payable": false,
      "stateMutability": "view",
      "type": "function"
    },
    {
      "constant": true,
      "inputs": [
        {
          "internalType": "bytes32",
          "name": "client_id",
          "type": "bytes32"
        }
      ],
      "name": "fetch_encrypted_aggregate",
      "outputs": [
        {
          "internalType": "uint256",
          "name": "",
          "type": "uint256"
        },
        {
          "internalType": "uint256",
          "name": "",
          "type": "uint256"
        },
        {
          "internalType": "uint256",
          "name": "",
          "type": "uint256"
        },
        {
          "internalType": "uint256",
          "name": "",
          "type": "uint256"
        }
      ],
      "payable": false,
      "stateMutability": "view",
      "type": "function"
    },
    {
      "constant": true,
      "inputs": [
        {
          "internalType": "bytes32",
          "name": "client_id",
          "type": "bytes32"
        }
      ],
      "name": "fetch_public_key",
      "outputs": [
        {
          "internalType": "uint256[2]",
          "name": "",
          "type": "uint256[2]"
        }
      ],
      "payable": false,
      "stateMutability": "view",
      "type": "function"
    },
    {
      "constant": false,
      "inputs": [
        {
          "internalType": "uint256[4]",
          "name": "encrypted_aggregate",
          "type": "uint256[4]"
        },
        {
          "internalType": "uint256[2]",
          "name": "decrypted_aggregate",
          "type": "uint256[2]"
        },
        {
          "internalType": "uint256[2]",
          "name": "proof_correct_decryption",
          "type": "uint256[2]"
        },
        {
          "internalType": "bytes32",
          "name": "client_id",
          "type": "bytes32"
        }
      ],
      "name": "request_payment",
      "outputs": [
        {
          "internalType": "bool",
          "name": "valid",
          "type": "bool"
        }
      ],
      "payable": true,
      "stateMutability": "payable",
      "type": "function"
    }
  ],
  "bytecode": "0x6080604052604051806040016040528060018152602001600281525060009060026200002d92919062000042565b503480156200003b57600080fd5b50620000af565b826002810192821562000074579160200282015b828111156200007357825182559160200191906001019062000056565b5b50905062000083919062000087565b5090565b620000ac91905b80821115620000a85760008160009055506001016200008e565b5090565b90565b611c1680620000bf6000396000f3fe6080604052600436106100865760003560e01c8063946ed88c11610059578063946ed88c146104315780639bdb8d32146105bd5780639bea124b14610645578063a5f1c2bd146106bc578063f35973c61461072057610086565b80630b71d25a1461008b57806321c33d65146101645780635b678f1c146102665780636ceac60814610327575b600080fd5b610126600480360360c08110156100a157600080fd5b810190808060c00190600380602002604051908101604052809291906000905b82821015610115578382604002016002806020026040519081016040528092919082600260200280828437600081840152601f19601f820116905080830192505050505050815260200190600101906100c1565b505050509192919290505050610797565b6040518082600260200280838360005b83811015610151578082015181840152602081019050610136565b5050505090500191505060405180910390f35b61024c600480360361016081101561017b57600080fd5b81019080806101000190600280602002604051908101604052809291906000905b828210156101f0578382608002016004806020026040519081016040528092919082600460200280828437600081840152601f19601f8201169050808301925050505050508152602001906001019061019c565b50505050919291929080604001906002806020026040519081016040528092919082600260200280828437600081840152601f19601f8201169050808301925050505050509192919290803590602001909291905050506109a1565b604051808215151515815260200191505060405180910390f35b61030d600480360361012081101561027d57600080fd5b81019080806101000190600280602002604051908101604052809291906000905b828210156102f2578382608002016004806020026040519081016040528092919082600460200280828437600081840152601f19601f8201169050808301925050505050508152602001906001019061029e565b50505050919291929080359060200190929190505050610bad565b604051808215151515815260200191505060405180910390f35b610417600480360361012081101561033e57600080fd5b8101908080608001906004806020026040519081016040528092919082600460200280828437600081840152601f19601f820116905080830192505050505050919291929080604001906002806020026040519081016040528092919082600260200280828437600081840152601f19601f820116905080830192505050505050919291929080604001906002806020026040519081016040528092919082600260200280828437600081840152601f19601f820116905080830192505050505050919291929080359060200190929190505050610bb9565b604051808215151515815260200191505060405180910390f35b6105a360048036036101a081101561044857600080fd5b8101908080608001906004806020026040519081016040528092919082600460200280828437600081840152601f19601f820116905080830192505050505050919291929080604001906002806020026040519081016040528092919082600260200280828437600081840152601f19601f820116905080830192505050505050919291929080604001906002806020026040519081016040528092919082600260200280828437600081840152601f19601f820116905080830192505050505050919291929080604001906002806020026040519081016040528092919082600260200280828437600081840152601f19601f820116905080830192505050505050919291929080604001906002806020026040519081016040528092919082600260200280828437600081840152601f19601f820116905080830192505050505050919291929080359060200190929190505050610ca4565b604051808215151515815260200191505060405180910390f35b61062b60048036036101008110156105d457600080fd5b810190808060e001906007806020026040519081016040528092919082600760200280828437600081840152601f19601f820116905080830192505050505050919291929080359060200190929190505050610e41565b604051808215151515815260200191505060405180910390f35b34801561065157600080fd5b5061067e6004803603602081101561066857600080fd5b8101908080359060200190929190505050610f90565b6040518082600460200280838360005b838110156106a957808201518184015260208101905061068e565b5050505090500191505060405180910390f35b3480156106c857600080fd5b506106f5600480360360208110156106df57600080fd5b8101908080359060200190929190505050611018565b6040518085815260200184815260200183815260200182815260200194505050505060405180910390f35b34801561072c57600080fd5b506107596004803603602081101561074357600080fd5b8101908080359060200190929190505050611089565b6040518082600260200280838360005b83811015610784578082015181840152602081019050610769565b5050505090500191505060405180910390f35b61079f6119c5565b6107a76119c5565b6108586040518060800160405280856000600381106107c257fe5b60200201516000600281106107d357fe5b60200201518152602001856000600381106107ea57fe5b60200201516001600281106107fb57fe5b602002015181526020018560016003811061081257fe5b602002015160006002811061082357fe5b602002015181526020018560016003811061083a57fe5b602002015160016002811061084b57fe5b60200201518152506110ea565b90508260026003811061086757fe5b602002015160006002811061087857fe5b60200201518160006002811061088a57fe5b60200201511480156108ce5750826002600381106108a457fe5b60200201516001600281106108b557fe5b6020020151816001600281106108c757fe5b6020020151145b610940576040517f08c379a000000000000000000000000000000000000000000000000000000000815260040180806020018281038252600f8152602001807f657175616c697479206661696c6564000000000000000000000000000000000081525060200191505060405180910390fd5b60405180604001604052808460006003811061095857fe5b602002015160006002811061096957fe5b602002015181526020018460006003811061098057fe5b602002015160016002811061099157fe5b6020020151815250915050919050565b60007fb8aeb9134ec47f3964c01c8a2ad29f486edb1d88d5a9f4324d0c560c749d0424846000600281106109d157fe5b60200201516040518082600460200280838360005b83811015610a015780820151818401526020810190506109e6565b5050505090500191505060405180910390a17fb8aeb9134ec47f3964c01c8a2ad29f486edb1d88d5a9f4324d0c560c749d042484600160028110610a4157fe5b60200201516040518082600460200280838360005b83811015610a71578082015181840152602081019050610a56565b5050505090500191505060405180910390a1610a8b6119e7565b610ad2856000600280602002604051908101604052809291908260028015610ac8576020028201915b815481526020019060010190808311610ab4575b505050505061117d565b9050610adc611a09565b6040518060a0016040528083600060048110610af457fe5b6020020151815260200183600160048110610b0b57fe5b6020020151815260200183600260048110610b2257fe5b6020020151815260200183600360048110610b3957fe5b60200201518152602001868152509050806003600086815260200190815260200160002060008201518160000155602082015181600101556040820151816002015560608201518160030155608082015181600401906002610b9c929190611a3e565b509050506001925050509392505050565b60006001905092915050565b60008060019050610bc8611a7e565b60405180608001604052808881526020018781526020018681526020018315158152509050600260008581526020019081526020016000208190806001815401808255809150509060018203906000526020600020906009020160009091929091909150600082015181600001906004610c43929190611aba565b50602082015181600401906002610c5b929190611a3e565b50604082015181600601906002610c73929190611a3e565b5060608201518160080160006101000a81548160ff0219169083151502179055505050508192505050949350505050565b6000808688868660405180604001604052806001815260200160028152508a6040516020018087600260200280838360005b83811015610cf1578082015181840152602081019050610cd6565b5050505090500186600460200280838360005b83811015610d1f578082015181840152602081019050610d04565b5050505090500185600260200280838360005b83811015610d4d578082015181840152602081019050610d32565b5050505090500184600260200280838360005b83811015610d7b578082015181840152602081019050610d60565b5050505090500183600260200280838360005b83811015610da9578082015181840152602081019050610d8e565b5050505090500182600260200280838360005b83811015610dd7578082015181840152602081019050610dbc565b50505050905001965050505050505060405160208183030381529060405280519060200120905060008160001c90506000610e14888884886114ce565b90506000610e258b8b89868a61167a565b9050818015610e315750805b9450505050509695505050505050565b6000610e4b6119e7565b610e5483610f90565b9050610e5e6119c5565b610e6784611089565b9050610e716119c5565b604051806040016040528087600060078110610e8957fe5b6020020151815260200187600160078110610ea057fe5b60200201518152509050610eb26119c5565b604051806040016040528088600260078110610eca57fe5b6020020151815260200188600360078110610ee157fe5b60200201518152509050610ef36119c5565b604051806040016040528089600460078110610f0b57fe5b6020020151815260200189600560078110610f2257fe5b60200201518152509050600088600660078110610f3b57fe5b602002015190506000610f52878688878787610ca4565b905080600460008b815260200190815260200160002060006101000a81548160ff021916908315150217905550600197505050505050505092915050565b610f986119e7565b604051806080016040528060036000858152602001908152602001600020600001548152602001600360008581526020019081526020016000206001015481526020016003600085815260200190815260200160002060020154815260200160036000858152602001908152602001600020600301548152509050919050565b600080600080600360008681526020019081526020016000206000015460036000878152602001908152602001600020600101546003600088815260200190815260200160002060020154600360008981526020019081526020016000206003015493509350935093509193509193565b6110916119c5565b600360008381526020019081526020016000206004016002806020026040519081016040528092919082600280156110de576020028201915b8154815260200190600101908083116110ca575b50505050509050919050565b6110f26119c5565b600060408260808560006006600019f1905080611177576040517f08c379a000000000000000000000000000000000000000000000000000000000815260040180806020018281038252601e8152602001807f656c6c6970746963206375727665206164646974696f6e206661696c6564000081525060200191505060405180910390fd5b50919050565b6111856119e7565b61118d6119c5565b604051806040016040528060008152602001600081525090506111ae6119c5565b604051806040016040528060008152602001600081525090506111cf6119c5565b604051806040016040528060018152602001600181525090506111f06119c5565b6040518060400160405280600181526020016001815250905060008090505b60028110156113f15761128d60405180606001604052808a846002811061123257fe5b602002015160006004811061124357fe5b602002015181526020018a846002811061125957fe5b602002015160016004811061126a57fe5b6020020151815260200189846002811061128057fe5b602002015181525061194f565b925061130460405180606001604052808a84600281106112a957fe5b60200201516002600481106112ba57fe5b602002015181526020018a84600281106112d057fe5b60200201516003600481106112e157fe5b602002015181526020018984600281106112f757fe5b602002015181525061194f565b915061137360405180608001604052808560006002811061132157fe5b602002015181526020018560016002811061133857fe5b602002015181526020018760006002811061134f57fe5b602002015181526020018760016002811061136657fe5b60200201518152506110ea565b94506113e260405180608001604052808460006002811061139057fe5b60200201518152602001846001600281106113a757fe5b60200201518152602001866000600281106113be57fe5b60200201518152602001866001600281106113d557fe5b60200201518152506110ea565b9350808060010191505061120f565b506113fa6119e7565b60405180608001604052808660006002811061141257fe5b602002015181526020018660016002811061142957fe5b602002015181526020018560006002811061144057fe5b602002015181526020018560016002811061145757fe5b602002015181525090507f2214d5f796a5030b1f93bdad19cf57561590f164f5e74396c5981f6e99b4d601816040518082600460200280838360005b838110156114ae578082015181840152602081019050611493565b5050505090500191505060405180910390a1809550505050505092915050565b60006114d8611afa565b6040518060400160405280876000600281106114f057fe5b602002015181526020018760016002811061150757fe5b60200201518152509050611519611afa565b6040518060400160405280600181526020016002815250905061153a6119c5565b611565604051806060016040528084600001518152602001846020015181526020018781525061194f565b905061156f6119c5565b61159a604051806060016040528086600001518152602001866020015181526020018981525061194f565b90506115a46119c5565b61161160405180608001604052808b6000600281106115bf57fe5b602002015181526020018b6001600281106115d657fe5b60200201518152602001846000600281106115ed57fe5b602002015181526020018460016002811061160457fe5b60200201518152506110ea565b905060008160006002811061162257fe5b60200201518460006002811061163457fe5b602002015114801561166757508160016002811061164e57fe5b60200201518460016002811061166057fe5b6020020151145b9050809650505050505050949350505050565b6000611684611b14565b604051806040016040528060405180604001604052808a6000600481106116a757fe5b602002015181526020018a6001600481106116be57fe5b6020020151815250815260200160405180604001604052808a6002600481106116e357fe5b602002015181526020018a6003600481106116fa57fe5b6020020151815250815250905061170f611afa565b60405180604001604052808860006002811061172757fe5b602002015181526020018860016002811061173e57fe5b602002015181525090506117506119c5565b6117836040518060600160405280856000015160000151815260200185600001516020015181526020018781525061194f565b905061178d6119c5565b6117b8604051806060016040528085600001518152602001856020015181526020018981525061194f565b90506117c26119c5565b61182f6040518060800160405280856000600281106117dd57fe5b60200201518152602001856001600281106117f457fe5b602002015181526020018460006002811061180b57fe5b602002015181526020018460016002811061182257fe5b60200201518152506110ea565b90506118396119c5565b61186c6040518060600160405280886020015160000151815260200188602001516020015181526020018b81525061194f565b90506118766119c5565b6118e360405180608001604052808d60006002811061189157fe5b602002015181526020018d6001600281106118a857fe5b60200201518152602001846000600281106118bf57fe5b60200201518152602001846001600281106118d657fe5b60200201518152506110ea565b90506000816000600281106118f457fe5b60200201518460006002811061190657fe5b602002015114801561193957508160016002811061192057fe5b60200201518460016002811061193257fe5b6020020151145b9050809850505050505050505095945050505050565b6119576119c5565b600060408260608560006007600019f19050806119bf576040517f08c379a0000000000000000000000000000000000000000000000000000000008152600401808060200182810382526024815260200180611bbe6024913960400191505060405180910390fd5b50919050565b6040518060400160405280600290602082028038833980820191505090505090565b6040518060800160405280600490602082028038833980820191505090505090565b6040518060a0016040528060008152602001600081526020016000815260200160008152602001611a38611b3a565b81525090565b8260028101928215611a6d579160200282015b82811115611a6c578251825591602001919060010190611a51565b5b509050611a7a9190611b5c565b5090565b6040518060800160405280611a91611b81565b8152602001611a9e611b3a565b8152602001611aab611b3a565b81526020016000151581525090565b8260048101928215611ae9579160200282015b82811115611ae8578251825591602001919060010190611acd565b5b509050611af69190611b5c565b5090565b604051806040016040528060008152602001600081525090565b6040518060400160405280611b27611ba3565b8152602001611b34611ba3565b81525090565b6040518060400160405280600290602082028038833980820191505090505090565b611b7e91905b80821115611b7a576000816000905550600101611b62565b5090565b90565b6040518060800160405280600490602082028038833980820191505090505090565b60405180604001604052806000815260200160008152509056fe656c6c6970746963206375727665206d756c7469706c69636174696f6e206661696c6564a265627a7a7231582055b2535e52ce864cbaf5d670eb1be0bb7a200ed11e3984aed821fc629ceaa0d564736f6c63430005100032",
  "source": "//pragma solidity >=0.4.22 <0.6.0;\npragma solidity >=0.4.22 <0.7.0;\n\ncontract ThemisPolicyContract {\n\n  uint constant length_policies = 2;\n  uint256[length_policies] policies = [uint256(1), uint256(2)];\n\n  struct EncryptedAggregate {\n    uint256 x0;\n    uint256 x1;\n    uint256 y0;\n    uint256 y1;\n    uint256[2] public_key;\n  }\n\n  struct PaymentRequests {\n    uint256[4] encrypted_aggregate;\n    uint256[2] decrypted_aggregate;\n    uint256[2] proof_correct_decryption;\n    bool valid;\n  }\n\n  struct ProofCorrectDecryption{\n        uint256[2] announcement_g; \n        uint256[2] announcement_ctx;\n        uint256 response;\n    }\n    \n    struct EcPoint{\n        uint256 x_coord; \n        uint256 y_coord;\n    }\n    \n    struct Ciphertext{\n        EcPoint point1; \n        EcPoint point2;\n    }\n\n  // public storage\n  mapping (bytes32 => PaymentRequests[]) payment_requests;\n  mapping (bytes32 => EncryptedAggregate) aggregate_storage;\n  mapping (bytes32 => bool) proof_verification_storage;\n\n  event Hash(bytes32 hashed);\n  event IntegerHash(uint256 int_hashed);\n  event Input(uint256[4] input);\n  event Aggregate(uint256[4] aggr);\n  event DoneProof();\n\n  // TODO: define constructor\n  constructor() public {}\n\n  // TODO: only for checking\n  function add_points_and_check(\n    uint256[2][3] memory input\n  ) payable public returns (uint256[2] memory) {\n    uint256[2] memory addition = _bn128_add([input[0][0], input[0][1], input[1][0], input[1][1]]);\n\n    require(addition[0] == input[2][0] && addition[1] == input[2][1], \"equality failed\");\n    \n    return [input[0][0], input[0][1]];\n\n  }\n\n\n  function calculate_aggregate_mock(\n    uint256[4][length_policies] memory _input, \n    bytes32 _client_id\n  ) payable public returns (bool) {\n  \n    return true;\n  }\n\n  // // function to verify correctness of hash equality\n  // function verify_hash_comp(\n  //   uin256[2] product_rust\n  // ) payable public returns (bool) {\n  //   uint256[2] generator = [uint256(1), uint256(2)];\n\n  //   bytes32 hashed_keccak256 = keccak256(abi.encode(\n  //           uint256(0x25d59efa46fb42cde7a8bf1a15cb2df1e6ca3f9d4864cd94cb2e76e4b715050c), \n  //           uint256(0x0ceaa8fbb57178f608d24c5f29f8883fa6ebc0a26115ae3569138222c2af1240)\n  //           ));\n\n  //   uint256 scalar = IntegerHash(uint256(hashed_keccak256));\n\n  //   uint256[2] product_solidity = _bn128_multiply([generator[0], generator[1], scalar]);\n\n  //   require()\n\n  //   return true;\n  // }\n\n  // public\n  function verify_proof(\n    uint256[7] memory input, \n    bytes32 client_id\n  ) payable public returns (bool) {\n    // begins fetching the client's aggregate\n    uint256[4] memory client_aggregate = fetch_encrypted_aggregate_array(client_id);\n    uint256[2] memory client_pk = fetch_public_key(client_id);\n    uint256[2] memory plaintext = [input[0], input[1]];\n    uint256[2] memory announcement_g = [input[2], input[3]];\n    uint256[2] memory announcement_ctx = [input[4], input[5]];\n    uint256 response = input[6];\n\n    bool proof_verification = verify_checks(\n      client_aggregate, \n      plaintext, \n      client_pk, \n      announcement_g, \n      announcement_ctx,\n      response\n    );\n\n    proof_verification_storage[client_id] = proof_verification;\n\n    return true;\n  }\n\n  function verify_checks(\n        uint256[4] memory ciphertext,\n        uint256[2] memory plaintext, \n        uint256[2] memory public_key,\n        uint256[2] memory announcement_g,\n        uint256[2] memory announcement_ctx,\n        uint256 response\n    ) payable public returns (bool) {\n    \n        bytes32 hashed_keccak256 = keccak256(abi.encode(\n            plaintext,\n            ciphertext,\n            announcement_g, \n            announcement_ctx, \n            [uint256(1), uint256(2)],\n            public_key\n            ));\n            \n\n        uint256 challenge = uint256(hashed_keccak256);\n        \n        bool check_1 = _proof_check_1(public_key, announcement_g, challenge, response);\n        bool check_2 = _proof_check_2(ciphertext, plaintext, announcement_ctx, challenge, response);\n        return check_1 && check_2;\n  }\n  \n  function _proof_check_2(\n            uint256[4] memory ciphertext, \n            uint256[2] memory plaintext, \n            uint256[2] memory announcement_ctx,\n            uint256 challenge,\n            uint256 response\n      ) private returns (bool) {\n        Ciphertext memory ctxt = Ciphertext(\n                EcPoint(ciphertext[0], ciphertext[1]), EcPoint(ciphertext[2], ciphertext[3])\n            );\n        EcPoint memory ptxt = EcPoint(plaintext[0], plaintext[1]);\n          \n        uint256[2] memory lhs_mult_1_check_2 = _bn128_multiply([ctxt.point1.x_coord, ctxt.point1.y_coord, response]);\n        // The following, in the original check is computed in the rhs. We do it in the lsh for simplicity\n        uint256[2] memory lhs_mult_2_check_2 = _bn128_multiply([ptxt.x_coord, ptxt.y_coord, challenge]);\n        uint256[2] memory lhs_check_2 = _bn128_add([lhs_mult_1_check_2[0], lhs_mult_1_check_2[1], lhs_mult_2_check_2[0], lhs_mult_2_check_2[1]]);\n        \n        uint256[2] memory rhs_mult_check_2 = _bn128_multiply([ctxt.point2.x_coord, ctxt.point2.y_coord, challenge]);\n        uint256[2] memory rhs_check_2 = _bn128_add([announcement_ctx[0], announcement_ctx[1], rhs_mult_check_2[0], rhs_mult_check_2[1]]);\n        \n        bool check_2 = lhs_check_2[0] == rhs_check_2[0] && lhs_check_2[1] == rhs_check_2[1];\n        return check_2;\n      }\n  \n  function _proof_check_1(\n        uint256[2] memory public_key,\n        uint256[2] memory announcement_g,\n        uint256 challenge,\n        uint256 response\n      ) private returns (bool) {\n        EcPoint memory pk = EcPoint(public_key[0], public_key[1]);\n        EcPoint memory generator = EcPoint(uint256(1), uint256(2));\n        \n        uint256[2] memory lhs_check_1 = _bn128_multiply([generator.x_coord, generator.y_coord, response]);\n    \n        uint256[2] memory pk_times_challenge = _bn128_multiply([pk.x_coord, pk.y_coord, challenge]);\n        uint256[2] memory rhs_check_1 = _bn128_add([announcement_g[0], announcement_g[1], pk_times_challenge[0], pk_times_challenge[1]]);    \n  \n        bool check_1 = lhs_check_1[0] == rhs_check_1[0] && lhs_check_1[1] == rhs_check_1[1];\n        return check_1;\n  }\n\n  function calculate_aggregate(\n    uint256[4][length_policies] memory input, \n    uint256[2] memory public_key,\n    bytes32 client_id\n  //) payable public returns (uint256[4] memory) {\n    ) payable public returns (bool) {    \n    emit Input(input[0]);\n    emit Input(input[1]);\n    \n    // calculates aggregate\n    uint256[4] memory aggregate = _inner_product(\n      input,\n      policies\n    );\n\n    // stores aggregate in array keyed by client_id && return aggregate to caller\n    EncryptedAggregate memory enc_aggr = EncryptedAggregate({ \n      x0: aggregate[0], \n      x1: aggregate[1], \n      y0: aggregate[2], \n      y1: aggregate[3], \n      public_key: public_key\n    });\n\n    aggregate_storage[client_id] = enc_aggr;\n\n    return true;\n  }\n\n  // supposed to replace `fetch_encrypted_aggregate` at some point\n  function fetch_encrypted_aggregate_array(bytes32 client_id) public view returns (uint256[4] memory) {\n    return [aggregate_storage[client_id].x0, aggregate_storage[client_id].x1, aggregate_storage[client_id].y0, aggregate_storage[client_id].y1];\n  }\n  function fetch_encrypted_aggregate(bytes32 client_id) public view returns (uint256, uint256, uint256, uint256) {\n      return  (aggregate_storage[client_id].x0, aggregate_storage[client_id].x1, aggregate_storage[client_id].y0, aggregate_storage[client_id].y1);\n  }\n\n  function fetch_public_key(bytes32 client_id) public view returns (uint256[2] memory ) {\n    return aggregate_storage[client_id].public_key;\n  }\n\n  function request_payment(\n    uint256[4] memory encrypted_aggregate,\n    uint256[2] memory decrypted_aggregate,\n    uint256[2] memory proof_correct_decryption,\n    bytes32 client_id\n  ) payable public returns (bool valid) {\n    // TODO: implement proof verification\n\n    bool proof_is_valid = true;\n\n    PaymentRequests memory payment_request = PaymentRequests(\n      encrypted_aggregate,\n      decrypted_aggregate,\n      proof_correct_decryption,\n      proof_is_valid);    \n\n    payment_requests[client_id].push(payment_request);\n\n    return proof_is_valid;\n  }\n\n  // private\n  function _inner_product(\n    uint256[4][length_policies] memory ciphertext_vector, \n    uint256[length_policies] memory scalar_vector\n  ) private returns (uint256[4] memory) {\n\n      uint256[2] memory aggregate_1 = [uint256(0), uint256(0)];\n      uint256[2] memory aggregate_2 = [uint256(0), uint256(0)];\n      uint256[2] memory resultMult_1 = [uint256(1), uint256(1)];\n      uint256[2] memory resultMult_2 =  [uint256(1), uint256(1)];\n\n      for (uint i = 0; i < length_policies; i++) {\n        resultMult_1 = _bn128_multiply([\n          ciphertext_vector[i][0],\n          ciphertext_vector[i][1], \n          scalar_vector[i]\n        ]);  \n\n        resultMult_2 = _bn128_multiply([\n          ciphertext_vector[i][2], \n          ciphertext_vector[i][3],\n          scalar_vector[i]\n        ]);\n\n        aggregate_1 = _bn128_add([resultMult_1[0], resultMult_1[1], aggregate_1[0], aggregate_1[1]]);\n        \n        aggregate_2 = _bn128_add([resultMult_2[0], resultMult_2[1], aggregate_2[0], aggregate_2[1]]);\n        }\n\n      uint256[4] memory aggregate = [aggregate_1[0], aggregate_1[1], aggregate_2[0], aggregate_2[1]];\n\n\n      emit Aggregate(aggregate);\n      return aggregate;\n    }\n\n    function _bn128_add(uint256[4] memory input) private returns (uint256[2] memory result) {\n        bool success;\n        assembly {\n            success := call(not(0), 0x06, 0, input, 128, result, 64)\n        }\n        require(success, \"elliptic curve addition failed\");\n    }\n  \n    function _bn128_multiply(uint256[3] memory input)\n    private returns (uint256[2] memory result) {\n        bool success;\n        assembly {\n            success := call(not(0), 0x07, 0, input, 96, result, 64)\n        }\n        require(success, \"elliptic curve multiplication failed\");\n    }\n}\n",
  "sourcePath": "/Users/inigoquerejeta/brave/decentralized-bat-net-experiments/themis/contracts/Themis.sol",
  "compiler": {
    "name": "solc",
    "version": "0.5.16+commit.9c3226ce.Emscripten.clang"
  },
  "schemaVersion": "3.0.23",
  "updatedAt": "2020-05-05T15:48:30.091Z",
  "networkType": "ethereum",
  "devdoc": {
    "methods": {}
  },
  "userdoc": {
    "methods": {}
  }
}