{
  "contractName": "ThemisPolicyContract",
  "abi": [
    {
      "inputs": [],
      "payable": false,
      "stateMutability": "nonpayable",
      "type": "constructor"
    },
    {
      "anonymous": false,
      "inputs": [
        {
          "indexed": false,
          "internalType": "uint256[2]",
          "name": "aggr",
          "type": "uint256[2]"
        }
      ],
      "name": "Aggregate",
      "type": "event"
    },
    {
      "anonymous": false,
      "inputs": [],
      "name": "DoneProof",
      "type": "event"
    },
    {
      "constant": false,
      "inputs": [
        {
          "internalType": "uint256[2][2]",
          "name": "input",
          "type": "uint256[2][2]"
        },
        {
          "internalType": "bytes32",
          "name": "client_id",
          "type": "bytes32"
        }
      ],
      "name": "calculate_aggregate",
      "outputs": [
        {
          "internalType": "uint256[2]",
          "name": "",
          "type": "uint256[2]"
        }
      ],
      "payable": true,
      "stateMutability": "payable",
      "type": "function"
    },
    {
      "constant": false,
      "inputs": [
        {
          "internalType": "uint256[2]",
          "name": "encrypted_aggregate",
          "type": "uint256[2]"
        },
        {
          "internalType": "uint256[2]",
          "name": "decrypted_aggregate",
          "type": "uint256[2]"
        },
        {
          "internalType": "uint256[2]",
          "name": "proof_correct_decryption",
          "type": "uint256[2]"
        },
        {
          "internalType": "bytes32",
          "name": "client_id",
          "type": "bytes32"
        }
      ],
      "name": "request_payment",
      "outputs": [
        {
          "internalType": "bool",
          "name": "valid",
          "type": "bool"
        }
      ],
      "payable": true,
      "stateMutability": "payable",
      "type": "function"
    }
  ],
  "bytecode": "0x60806040526040518060400160405280600160ff168152602001600260ff168152506000906002610031929190610044565b5034801561003e57600080fd5b506100ae565b8260028101928215610078579160200282015b82811115610077578251829060ff16905591602001919060010190610057565b5b5090506100859190610089565b5090565b6100ab91905b808211156100a757600081600090555060010161008f565b5090565b90565b6107c9806100bd6000396000f3fe6080604052600436106100295760003560e01c80630cef91541461002e578063796f749314610137575b600080fd5b61011d600480360360e081101561004457600080fd5b8101908080604001906002806020026040519081016040528092919082600260200280828437600081840152601f19601f820116905080830192505050505050919291929080604001906002806020026040519081016040528092919082600260200280828437600081840152601f19601f820116905080830192505050505050919291929080604001906002806020026040519081016040528092919082600260200280828437600081840152601f19601f82011690508083019250505050505091929192908035906020019092919050505061021a565b604051808215151515815260200191505060405180910390f35b6101dc600480360360a081101561014d57600080fd5b810190808060800190600280602002604051908101604052809291906000905b828210156101c1578382604002016002806020026040519081016040528092919082600260200280828437600081840152601f19601f8201169050808301925050505050508152602001906001019061016d565b50505050919291929080359060200190929190505050610305565b6040518082600260200280838360005b838110156102075780820151818401526020810190506101ec565b5050505090500191505060405180910390f35b6000806001905061022961064b565b604051806080016040528088815260200187815260200186815260200183151581525090506003600085815260200190815260200160002081908060018154018082558091505090600182039060005260206000209060070201600090919290919091506000820151816000019060026102a4929190610687565b506020820151816002019060026102bc929190610687565b506040820151816004019060026102d4929190610687565b5060608201518160060160006101000a81548160ff0219169083151502179055505050508192505050949350505050565b61030d6106c7565b6103156106c7565b61035c846000600280602002604051908101604052809291908260028015610352576020028201915b81548152602001906001019080831161033e575b50505050506103bd565b905060006002600085815260200190815260200160002090508082908060018154018082558091505090600182039060005260206000209060020201600090919290919091509060026103b09291906106e9565b5050819250505092915050565b6103c56106c7565b6103cd6106c7565b6103d56106c7565b60008090505b60028110156104d75761045960405180606001604052808884600281106103fe57fe5b602002015160006002811061040f57fe5b6020020151815260200188846002811061042557fe5b602002015160016002811061043657fe5b6020020151815260200187846002811061044c57fe5b6020020151815250610542565b91506104c860405180608001604052808460006002811061047657fe5b602002015181526020018460016002811061048d57fe5b60200201518152602001856000600281106104a457fe5b60200201518152602001856001600281106104bb57fe5b60200201518152506105b8565b925080806001019150506103db565b507f798bddc99a3ff2913dc383e7d8f8793396b4c7cd686c09cecb490d2e99ba89b5826040518082600260200280838360005b8381101561052557808201518184015260208101905061050a565b5050505090500191505060405180910390a1819250505092915050565b61054a6106c7565b600060408260608560006007600019f19050806105b2576040517f08c379a00000000000000000000000000000000000000000000000000000000081526004018080602001828103825260248152602001806107716024913960400191505060405180910390fd5b50919050565b6105c06106c7565b600060408260808560006006600019f1905080610645576040517f08c379a000000000000000000000000000000000000000000000000000000000815260040180806020018281038252601e8152602001807f656c6c6970746963206375727665206164646974696f6e206661696c6564000081525060200191505060405180910390fd5b50919050565b604051806080016040528061065e610729565b815260200161066b610729565b8152602001610678610729565b81526020016000151581525090565b82600281019282156106b6579160200282015b828111156106b557825182559160200191906001019061069a565b5b5090506106c3919061074b565b5090565b6040518060400160405280600290602082028038833980820191505090505090565b8260028101928215610718579160200282015b828111156107175782518255916020019190600101906106fc565b5b509050610725919061074b565b5090565b6040518060400160405280600290602082028038833980820191505090505090565b61076d91905b80821115610769576000816000905550600101610751565b5090565b9056fe656c6c6970746963206375727665206d756c7469706c69636174696f6e206661696c6564a265627a7a723158206d1555f96ccfc2cc5e0c95fc57ed9d024a9ca5f7b62218f8661bf97efe318db464736f6c63430005100032",
  "source": "pragma solidity >=0.4.22 <0.6.0;\n\ncontract ThemisPolicyContract {\n  uint constant length_policies = 2;\n  uint256[length_policies] policies = [1, 2];\n  \n  // TODO: use structure representing point in curve across the smart contract (replace \"uint256[2]\" by CurvePoint{})\n  struct CurvePoint {\n    uint256 X;\n    uint256 Y;\n  }\n\n  struct PaymentRequests {\n    uint256[2] encrypted_aggregate;\n    uint256[2] decrypted_aggregate;\n    uint256[2] proof_correct_decryption;\n    bool valid;\n  }\n\n  // public storage\n  mapping (bytes32 => uint256[2][]) aggregate_storage;\n  mapping (bytes32 => PaymentRequests[]) payment_requests;\n\n  event Aggregate(uint256[2] aggr);\n  event DoneProof();\n\n  // TODO: define constructor\n  constructor() public {}\n\n  // public\n  function calculate_aggregate(\n    uint256[2][length_policies] memory input, \n    bytes32 client_id\n  ) payable public returns (uint256[2] memory) {\n\n    // calculates aggregate\n    uint256[2] memory aggregate = _inner_product(\n      input,\n      policies\n    );\n\n    // stores aggregate in array keyed by client_id && return aggregate to caller\n    uint256[2][] storage aggregates_client = aggregate_storage[client_id];\n    aggregates_client.push(aggregate);\n    \n    return aggregate;\n  }\n\n  function request_payment(\n    uint256[2] memory encrypted_aggregate,\n    uint256[2] memory decrypted_aggregate,\n    uint256[2] memory proof_correct_decryption,\n    bytes32 client_id\n  ) payable public returns (bool valid) {\n    // TODO: implement proof verification\n\n    bool proof_is_valid = true;\n\n    PaymentRequests memory payment_request = PaymentRequests(\n      encrypted_aggregate,\n      decrypted_aggregate,\n      proof_correct_decryption,\n      proof_is_valid);    \n\n    payment_requests[client_id].push(payment_request);\n\n    return proof_is_valid;\n  }\n\n  // private\n  function _inner_product(uint256[2][length_policies] memory ciphertext_vector, uint256[length_policies] memory scalar_vector) private returns (uint256[2] memory) {\n      uint256[2] memory aggregate;\n      uint256[2] memory resultMult;\n\n      for (uint i = 0; i < length_policies; i++) {\n        resultMult = _bn128_multiply([\n          ciphertext_vector[i][0],\n          ciphertext_vector[i][1], \n          scalar_vector[i]\n        ]);  \n\n        aggregate = _bn128_add([resultMult[0], resultMult[1], aggregate[0], aggregate[1]]);\n        }\n\n      emit Aggregate(aggregate);\n      return aggregate;\n    }\n\n    function _bn128_add(uint256[4] memory input) private returns (uint256[2] memory result) {\n        bool success;\n        assembly {\n            success := call(not(0), 0x06, 0, input, 128, result, 64)\n        }\n        require(success, \"elliptic curve addition failed\");\n    }\n  \n    function _bn128_multiply(uint256[3] memory input)\n    private returns (uint256[2] memory result) {\n        bool success;\n        assembly {\n            success := call(not(0), 0x07, 0, input, 96, result, 64)\n        }\n        require(success, \"elliptic curve multiplication failed\");\n    }\n}\n",
  "sourcePath": "/Users/gpestana/brave/decentralized-bat-net-experiments/themis/contracts/Themis.sol",
  "compiler": {
    "name": "solc",
    "version": "0.5.16+commit.9c3226ce.Emscripten.clang"
  },
  "schemaVersion": "3.0.23",
  "updatedAt": "2020-04-01T16:31:18.657Z",
  "devdoc": {
    "methods": {}
  },
  "userdoc": {
    "methods": {}
  }
}