{
  "contractName": "Escrow",
  "abi": [
    {
      "constant": true,
      "inputs": [],
      "name": "owner",
      "outputs": [
        {
          "name": "",
          "type": "address"
        }
      ],
      "payable": false,
      "stateMutability": "view",
      "type": "function"
    },
    {
      "inputs": [],
      "payable": false,
      "stateMutability": "nonpayable",
      "type": "constructor"
    },
    {
      "constant": false,
      "inputs": [],
      "name": "fund",
      "outputs": [],
      "payable": true,
      "stateMutability": "payable",
      "type": "function"
    }
  ],
  "bytecode": "0x608060405234801561001057600080fd5b50336000806101000a81548173ffffffffffffffffffffffffffffffffffffffff021916908373ffffffffffffffffffffffffffffffffffffffff160217905550600060018190555060ea806100676000396000f3fe60806040526004361060265760003560e01c80638da5cb5b14602b578063b60d428814607f575b600080fd5b348015603657600080fd5b50603d6087565b604051808273ffffffffffffffffffffffffffffffffffffffff1673ffffffffffffffffffffffffffffffffffffffff16815260200191505060405180910390f35b608560ac565b005b6000809054906101000a900473ffffffffffffffffffffffffffffffffffffffff1681565b3460016000828254019250508190555056fea165627a7a72305820dd56eabf6992e22706758c73ece71e9a94826d30f49ffd5d62ea5541230a86180029",
  "source": "pragma solidity >=0.4.21 <0.6.0;\n\ncontract Escrow {\n  address public owner;\n\tuint amount;\n\n\tconstructor() public {\n    owner = msg.sender;\n    amount = 0;\n  }\n\n\tfunction fund() public payable{\n\t\tamount += msg.value;\n\t}\n}\n",
  "sourcePath": "/Users/gpestana/brave/decentralized-bat-net-experiments/contracts/contracts/Escrow.sol",
  "compiler": {
    "name": "solc",
    "version": "0.5.8+commit.23d335f2.Emscripten.clang"
  },
  "schemaVersion": "3.0.11",
  "updatedAt": "2019-08-08T10:05:34.908Z",
  "devdoc": {
    "methods": {}
  },
  "userdoc": {
    "methods": {}
  }
}