{
  "contractName": "Payment",
  "abi": [
    {
      "constant": true,
      "inputs": [
        {
          "name": "",
          "type": "uint256"
        }
      ],
      "name": "policy_arr",
      "outputs": [
        {
          "name": "",
          "type": "uint256"
        }
      ],
      "payable": false,
      "stateMutability": "view",
      "type": "function"
    },
    {
      "constant": true,
      "inputs": [
        {
          "name": "",
          "type": "uint256"
        }
      ],
      "name": "encrypted_aggregates",
      "outputs": [
        {
          "name": "",
          "type": "uint256"
        }
      ],
      "payable": false,
      "stateMutability": "view",
      "type": "function"
    },
    {
      "constant": true,
      "inputs": [],
      "name": "ads_escrow_account",
      "outputs": [
        {
          "name": "",
          "type": "address"
        }
      ],
      "payable": false,
      "stateMutability": "view",
      "type": "function"
    },
    {
      "constant": true,
      "inputs": [],
      "name": "owner",
      "outputs": [
        {
          "name": "",
          "type": "address"
        }
      ],
      "payable": false,
      "stateMutability": "view",
      "type": "function"
    },
    {
      "inputs": [
        {
          "name": "parr",
          "type": "uint256[]"
        },
        {
          "name": "acc",
          "type": "address"
        }
      ],
      "payable": false,
      "stateMutability": "nonpayable",
      "type": "constructor"
    },
    {
      "constant": false,
      "inputs": [
        {
          "name": "click_arr",
          "type": "uint256[]"
        }
      ],
      "name": "compute_aggregate",
      "outputs": [
        {
          "name": "",
          "type": "uint256"
        }
      ],
      "payable": false,
      "stateMutability": "nonpayable",
      "type": "function"
    },
    {
      "constant": true,
      "inputs": [],
      "name": "get_aggregates",
      "outputs": [
        {
          "name": "",
          "type": "uint256[]"
        }
      ],
      "payable": false,
      "stateMutability": "view",
      "type": "function"
    },
    {
      "constant": true,
      "inputs": [
        {
          "name": "dec_aggr",
          "type": "uint256"
        },
        {
          "name": "proof",
          "type": "uint256"
        },
        {
          "name": "to_addr",
          "type": "address"
        }
      ],
      "name": "transfer_funds",
      "outputs": [],
      "payable": false,
      "stateMutability": "pure",
      "type": "function"
    }
  ],
  "bytecode": "0x608060405234801561001057600080fd5b506040516106e43803806106e48339810180604052604081101561003357600080fd5b81019080805164010000000081111561004b57600080fd5b8281019050602081018481111561006157600080fd5b815185602082028301116401000000008211171561007e57600080fd5b505092919060200180519060200190929190505050336000806101000a81548173ffffffffffffffffffffffffffffffffffffffff021916908373ffffffffffffffffffffffffffffffffffffffff16021790555081600390805190602001906100e9929190610132565b5080600160006101000a81548173ffffffffffffffffffffffffffffffffffffffff021916908373ffffffffffffffffffffffffffffffffffffffff16021790555050506101a4565b82805482825590600052602060002090810192821561016e579160200282015b8281111561016d578251825591602001919060010190610152565b5b50905061017b919061017f565b5090565b6101a191905b8082111561019d576000816000905550600101610185565b5090565b90565b610531806101b36000396000f3fe608060405234801561001057600080fd5b506004361061007d5760003560e01c8063614fc6b61161005b578063614fc6b6146101505780638da5cb5b146101a8578063e9da614a146101f2578063fe3ea4f0146102515761007d565b80631cd12178146100825780633e7b9ca8146100c45780634989a76114610106575b600080fd5b6100ae6004803603602081101561009857600080fd5b810190808035906020019092919050505061031d565b6040518082815260200191505060405180910390f35b6100f0600480360360208110156100da57600080fd5b810190808035906020019092919050505061033e565b6040518082815260200191505060405180910390f35b61010e61035f565b604051808273ffffffffffffffffffffffffffffffffffffffff1673ffffffffffffffffffffffffffffffffffffffff16815260200191505060405180910390f35b6101a66004803603606081101561016657600080fd5b810190808035906020019092919080359060200190929190803573ffffffffffffffffffffffffffffffffffffffff169060200190929190505050610385565b005b6101b06103a5565b604051808273ffffffffffffffffffffffffffffffffffffffff1673ffffffffffffffffffffffffffffffffffffffff16815260200191505060405180910390f35b6101fa6103ca565b6040518080602001828103825283818151815260200191508051906020019060200280838360005b8381101561023d578082015181840152602081019050610222565b505050509050019250505060405180910390f35b6103076004803603602081101561026757600080fd5b810190808035906020019064010000000081111561028457600080fd5b82018360208201111561029657600080fd5b803590602001918460208302840111640100000000831117156102b857600080fd5b919080806020026020016040519081016040528093929190818152602001838360200280828437600081840152601f19601f820116905080830192505050505050509192919290505050610422565b6040518082815260200191505060405180910390f35b6003818154811061032a57fe5b906000526020600020016000915090505481565b6002818154811061034b57fe5b906000526020600020016000915090505481565b600160009054906101000a900473ffffffffffffffffffffffffffffffffffffffff1681565b6000610391848461046e565b90508061039e57506103a0565b505b505050565b6000809054906101000a900473ffffffffffffffffffffffffffffffffffffffff1681565b6060600280548060200260200160405190810160405280929190818152602001828054801561041857602002820191906000526020600020905b815481526020019060010190808311610404575b5050505050905090565b60008061042e8361048f565b9050600081146104655760028190806001815401808255809150509060018203906000526020600020016000909192909190915055505b80915050919050565b6000600a83028214156104845760019050610489565b600090505b92915050565b6000806003805490508351146104a9576000915050610500565b60008090505b6003805490508110156104fa578381815181106104c857fe5b6020026020010151600382815481106104dd57fe5b9060005260206000200154028201915080806001019150506104af565b50809150505b91905056fea165627a7a72305820fb72e8720365bf8563a7a12ff6532c601d81549a9f630aca7da57986062fb8c10029",
  "source": "pragma solidity >=0.4.21 <0.6.0;\n\ncontract Payment {\n  address public owner;\n  address public ads_escrow_account;\n  uint[] public encrypted_aggregates;\n  uint[] public policy_arr;\n\n\n  constructor(uint[] memory parr, address acc) public {\n    owner = msg.sender;\n    policy_arr = parr;\n    ads_escrow_account = acc;\n  }\n\n  modifier restricted() {\n    if (msg.sender == owner) _;\n  }\n\n  // public function that computes aggregate over encrypted policy and click\n  // array and saves the encrypted aggregate in the storage \n  function compute_aggregate(uint[] memory click_arr) public returns (uint) {\n    uint aggr;\n    \n    // calculate encrypted aggregate \n    aggr = aggregate_sum(click_arr);\n\n    if (aggr != 0) {\n      encrypted_aggregates.push(aggr);\n    }\n\n    return aggr;\n  }\n\n  // returns current state of encrypted aggregates\n  function get_aggregates() public view returns (uint[] memory) {\n    return encrypted_aggregates;\n  }\n\n  // given a valid aggregate decryption proof and a decrypted aggregate sum,\n  // pays sum to zether account in using Zether escrow account \n  function transfer_funds(uint dec_aggr, uint proof, address to_addr) public pure {\n    bool valid_request;\n    \n    valid_request = is_valid_decryption(dec_aggr, proof);\n    if (!valid_request) {\n      // not a valid decryption\n      return;\n    } \n\n    // transfer funds to to_addr from escrow account `ads_escrow_account`\n  }\n\n  // checks aggregate value against proof decryption and returns bool\n  // according to its validity\n  // TODO: returning true if proof == dec_agggr * 10\n  function is_valid_decryption(uint dec_aggr, uint proof) private pure returns (bool) {\n    if (proof == dec_aggr * 10) {\n      return true;\n    }\n    return false;\n  }\n\n  // Performs homomorphic sum of the clickArr over policyArr\n  // currently, it adds performs aggregate of click_arr without encryption, \n  // i.e. policy_arr[i] * click_arr, for all i E policy_arr.length \n  function aggregate_sum(uint[] memory click_arr) private view returns (uint) {\n    uint aggr;\n\n\n    if (click_arr.length != policy_arr.length) {\n      // error\n      return 0;\n    }\n\n    for (uint i = 0; i < policy_arr.length; i++) {\n      aggr = aggr + (policy_arr[i] * click_arr[i]);\n    }\n\n    return aggr;\n  }\n}",
  "sourcePath": "/Users/gpestana/brave/decentralized-bat-net-experiments/contracts/contracts/Payment.sol",
  "compiler": {
    "name": "solc",
    "version": "0.5.8+commit.23d335f2.Emscripten.clang"
  },
  "schemaVersion": "3.0.11",
  "updatedAt": "2019-08-29T08:29:31.552Z",
  "devdoc": {
    "methods": {}
  },
  "userdoc": {
    "methods": {}
  }
}